:100000000C9434000C9451000C9451000C94510049
:100010000C9451000C9451000C9451000C9451001C
:100020000C9451000C9451000C9451000C9451000C
:100030000C9451000C9451000C9451000C945100FC
:100040000C9451000C9451000C9451000C945100EC
:100050000C9451000C9451000C9451000C945100DC
:100060000C9451000C94510011241FBECFEFD8E026
:10007000DEBFCDBF11E0A0E0B1E0E8E9F4E002C0EE
:1000800005900D92A232B107D9F711E0A2E2B1E0DA
:1000900001C01D92A732B107E1F70E9455010C94EF
:1000A0004A020C940000662311F0419A01C0419865
:1000B0004298529A539A549A559A5D985C985B98D4
:1000C0005A9887FD5D9A86FD5C9A85FD5B9A84FD52
:1000D0005A9A439A00C043985D985C985B985A98E6
:1000E00083FD5D9A82FD5C9A81FD5B9A80FD5A9A40
:1000F000439A00C043985A9A5B9A5C9A5D9A089515
:10010000882311F0419A01C04198429A529853981D
:1001100054985598439A00C04A9B02C080E101C0A0
:1001200080E04B9980624C9980644D998068439837
:1001300000C0439A00C04A9981604B9982604C99F3
:1001400084604D9988604398089580E00E94800003
:1001500087FDFBCF82E090E00197F1F780E00E94FD
:10016000800008951F93182F0E94A500812F60E042
:100170000E9453001F9108951F93182F0E94A500FD
:10018000812F61E00E9453001F910895662311F4AE
:10019000805801C080540E94B20008950E94A500BA
:1001A00090E0089581E00E94B200089582E00E94EC
:1001B000B20008951F93182F0E94A5001A3049F429
:1001C000803410F080E001C080E480580E94B200CA
:1001D00004C0812F61E00E9453001F910895CF93C6
:1001E000DF93EC0102C00E94DA0089918823D9F7DD
:1001F000DF91CF910895CF93DF93EC0102C00E946D
:10020000DA00FE01219684918823C9F7DF91CF910E
:1002100008951F93182F399A3A9A3B9A529A539AF3
:10022000549A559A80E89EE30197F1F75B9A5A9A9F
:10023000439A00C0439880E893E10197F1F7439A0D
:1002400000C0439880E490E0FC013197F1F7439AB5
:1002500000C04398FC013197F1F75A98439A00C0C7
:1002600043980197F1F788E20E94B20088E00E946B
:10027000B2000E94D20086E00E94B200812F0E944C
:10028000B2001F91089580917A00806480937A0073
:1002900080917A0084FFFCCF80917A008061809306
:1002A0007A008091790090E00895AF92BF92CF924A
:1002B000DF92EF92FF920F931F93DF93CF9300D0C3
:1002C00000D000D0CDB7DEB7DE011196ECE1F1E051
:1002D00086E001900D928150E1F78CE00E940901C7
:1002E0009FE7E92E94E8F92E9EE1092F112DD80100
:1002F000C7010197A109B109000001F0D1F7C89524
:10030000000080E091E00E94EF00D801C701019752
:10031000A109B109000001F0D1F7C89500000E94C1
:10032000D20080917A00876080937A0080917C006F
:10033000806480937C0080917C00806280937C004C
:1003400080917A00806880937A007E010894E11C95
:10035000F11C8FE7A82E84E8B82E8EE1C82ED12C90
:10036000C7016CE071E00E94FE0180917A00806418
:1003700080937A0080917A0084FFFCCF80917A008C
:10038000806180937A001091790082E191E00E946F
:10039000EF00D601C5010197A109B109000001F0E4
:1003A000D1F7C89500000E94D200812F869590E079
:1003B00062E271E04AE050E00E940502C70162E299
:1003C00071E00E94F301C7010E94EF00D601C50150
:1003D0000197A109B109000001F0D1F7C89500000B
:1003E0000E94D200BDCFFB01DC010D900020E9F797
:1003F000119701900D920020E1F70895FB01DC01B7
:1004000001900D920020E1F70895FB019F01E8940F
:100410004230C4F04532B4F44A3029F497FB1EF45C
:10042000909581959F4F642F77270E943602805DBB
:100430008A330CF0895D8193CB010097A1F716F404
:100440005DE251931082C9010C942602DC01FC018B
:10045000672F71917723E1F7329704C07C916D93F8
:1004600070836291AE17BF07C8F30895AA1BBB1B28
:1004700051E107C0AA1FBB1FA617B70710F0A61BA4
:10048000B70B881F991F5A95A9F780959095BC01C5
:08049000CD010895F894FFCF9F
:1004980074657374696E672E2E2E2E0054656D7008
:1004A8003D0053656E73696E672E2E0074656D701E
:0204B8003D0005
:00000001FF
