:100000000C9434000C9449000C9449000C94490061
:100010000C9449000C9449000C9449000C9449003C
:100020000C9449000C9449000C9449000C9449002C
:100030000C9449000C9449000C9449000C9449001C
:100040000C9449000C9449000C9449000C9449000C
:100050000C9449000C9449000C9449000C944900FC
:100060000C9449000C94490011241FBECFEFD8E036
:10007000DEBFCDBF12E0A0E0B1E0EEEDFFE002C0D8
:1000800005900D92AC31B107D9F70E943B010C9459
:10009000ED070C940000662311F0409A01C04098CF
:1000A0004198529A539A549A559A5D985C985B98E5
:1000B0005A9887FD5D9A86FD5C9A85FD5B9A84FD62
:1000C0005A9A429A00C042985D985C985B985A98F8
:1000D00083FD5D9A82FD5C9A81FD5B9A80FD5A9A50
:1000E000429A00C042985A9A5B9A5C9A5D9A089527
:1000F000882311F0409A01C04098419A5298539831
:1001000054985598429A00C04A9B02C080E101C0B1
:1001100080E04B9980624C9980644D998068429848
:1001200000C0429A00C04A9981604B9982604C9904
:1001300084604D9988604298089580E00E9478001C
:1001400087FDFBCF82E090E00197F1F780E00E940D
:10015000780008951F93182F0E949D00812F60E062
:100160000E944B001F9108951F93182F0E949D001D
:10017000812F61E00E944B001F910895662311F4C6
:10018000805801C080540E94AA0008950E949D00DA
:1001900090E0089581E00E94AA00089582E00E9404
:1001A000AA0008951F93182F0E949D001A3049F449
:1001B000803410F080E001C080E480580E94AA00E2
:1001C00004C0812F61E00E944B001F910895CF93DE
:1001D000DF93EC0102C00E94D20089918823D9F7F5
:1001E000DF91CF910895CF93DF93EC0102C00E947D
:1001F000D200FE01219684918823C9F7DF91CF9127
:1002000008951F93182F389A399A3A9A529A539A06
:10021000549A559A80E89EE30197F1F75B9A5A9AAF
:10022000429A00C0429880E893E10197F1F7429A20
:1002300000C0429880E490E0FC013197F1F7429AC7
:1002400000C04298FC013197F1F75A98429A00C0D9
:1002500042980197F1F788E20E94AA0088E00E9484
:10026000AA000E94CA0086E00E94AA00812F0E9474
:10027000AA001F910895AF92BF92CF92DF92EF92A2
:10028000FF920F931F93DF93CF93CDB7DEB72F97D6
:100290000FB6F894DEBF0FBECDBF80917A008760A5
:1002A00080937A0080917B00887F80937B0080918F
:1002B0007C00806480937C0080917A0080628093CF
:1002C0007A0080917A00806880937A0080917A0029
:1002D000806480937A007E010894E11CF11C90E018
:1002E000A92E91E0B92E8FE3C82E8CE9D82E60910B
:1002F0007800709179008DB79EB708970FB6F89483
:100300009EBF0FBE8DBF0DB71EB70F5F1F4FEDB75E
:10031000FEB7F282E182F801B382A2827583648320
:1003200080E090E00E94000320E030E040E05FE3E6
:100330000E94B2010E94AC02F801778366830E949A
:100340001505C6010197F1F7000000C08DB79EB7F3
:1003500008960FB6F8949EBF0FBE8DBFC7010E94CE
:10036000E700C5CFA0E2B0E0E8EBF1E00C94B607FF
:1003700069837A838B839C832D833E834F83588745
:10038000CE010196BE01675F7F4F0E949D04CE01A2
:100390000596BE016F5E7F4F0E949D049985923045
:1003A00088F089898230C8F0943019F4823051F491
:1003B00004C0843029F4923081F483E191E0C6C016
:1003C000923049F420E09A858A89981321E02A879F
:1003D000CE010996BBC0823049F420E09A858A8913
:1003E000981321E02A8BCE014196B0C02D843E8423
:1003F0004F8458886D887E888F88988CEE24FF24DF
:100400008701AA24BB24650140E050E060E070E071
:10041000E0E0F0E0C10181709070892BE9F0E60C1A
:10042000F71C081D191D9A01AB012A0D3B1D4C1D1F
:100430005D1D80E090E0A0E0B0E0E614F704080560
:10044000190520F481E090E0A0E0B0E0BA01A90134
:10045000480F591F6A1F7B1FAA0CBB1CCC1CDD1C3C
:1004600097FE08C081E090E0A0E0B0E0A82AB92A99
:10047000CA2ADB2A3196E032F10549F0660C771C76
:10048000881C991C5694479437942794C3CFFA85B7
:10049000EA892B893C898B859C85280F391F2E5F23
:1004A0003F4F17C0CA0181709070892B61F016957B
:1004B0000795F794E79480E090E0A0E0B0E8E82AA0
:1004C000F92A0A2B1B2B76956795579547952F5F31
:1004D0003F4F77FDE7CF0CC0440F551F661F771FB6
:1004E00017FD4160EE0CFF1C001F111F2150304012
:1004F000403090E0590790E0690790E4790760F395
:100500002B8F3C8FDB01CA018F779070A070B07089
:1005100080349105A105B10561F447FD0AC0E114DD
:10052000F1040105110529F0405C5F4F6F4F7F4FCB
:1005300040781A8EFE1711F081E08A8F4D8F5E8F02
:100540006F8F78A383E0898FCE0149960E94C803FC
:10055000A096E2E10C94D207ACE0B0E0E2EBF2E06E
:100560000C94C60769837A838B839C83CE010196A2
:10057000BE016B5F7F4F0E949D048D81823061F1CF
:10058000823050F1843021F48E81882351F12EC0C5
:100590002F81388537FD20C06E812F3131051CF049
:1005A0006623F9F023C08EE190E0821B930B29852E
:1005B0003A854B855C8504C05695479537952795B8
:1005C0008A95D2F76623B1F05095409530952195E4
:1005D0003F4F4F4F5F4F0EC020E030E040E050E013
:1005E00009C02FEF3FEF4FEF5FE704C020E030E09E
:1005F00040E050E8B901CA012C96E2E00C94E20711
:10060000A8E0B0E0E6E0F3E00C94BE077B018C01CB
:10061000611571058105910519F482E0898360C037
:1006200083E089838EE1C82ED12CDC82CB82ED82DF
:10063000FE820F831887C801B7010E947903FC016D
:100640003197F7FF3BC0222733272E1B3F0B570163
:100650006801022E04C0D694C794B794A7940A9454
:10066000D2F740E050E060E070E081E090E0A0E090
:10067000B0E004C0880F991FAA1FBB1F2A95D2F7AC
:100680000197A109B1098E219F21A023B1230097D1
:10069000A105B10521F041E050E060E070E04A2999
:1006A0005B296C297D294D835E836F8378878EE17A
:1006B00090E08E1B9F0B9C838B8312C0309781F040
:1006C0000E2E04C0EE0CFF1C001F111F0A94D2F75F
:1006D000ED82FE820F831887CE1ADF0ADC82CB827E
:1006E0001A82CE0101960E94C8032896EAE00C9473
:1006F000DA07EF92FF920F931F937B018C0180E04A
:10070000E81680E0F80681E0080780E0180788F422
:100710008FEFE816F1040105110531F028F088E0AB
:1007200090E0A0E0B0E017C080E090E0A0E0B0E092
:1007300012C080E0E81680E0F80680E0080781E05B
:10074000180728F088E190E0A0E0B0E004C080E164
:1007500090E0A0E0B0E020E230E040E050E0281B74
:10076000390B4A0B5B0B04C016950795F794E79479
:100770008A95D2F7F701E55EFE4F8081281B31098B
:1007800041095109C9011F910F91FF90EF90089500
:10079000DF92EF92FF920F931F93FC01E480F580AC
:1007A00006811781D1808081823048F480E090E01A
:1007B000A0E1B0E0E82AF92A0A2B1B2BA5C084305F
:1007C00009F49FC0823021F4EE24FF24870105C084
:1007D000E114F1040105110519F4E0E0F0E096C020
:1007E000628173819FEF623879070CF05BC022E869
:1007F0003FEF261B370B2A3131052CF020E030E08B
:1008000040E050E02AC0B801A701022E04C076954E
:100810006795579547950A94D2F781E090E0A0E05C
:10082000B0E004C0880F991FAA1FBB1F2A95D2F7FA
:100830000197A109B1098E219F21A023B12300971F
:10084000A105B10521F081E090E0A0E0B0E09A01BF
:10085000AB01282B392B4A2B5B2BDA01C9018F778F
:100860009070A070B07080349105A105B10539F485
:1008700027FF09C0205C3F4F4F4F5F4F04C0215CF2
:100880003F4F4F4F5F4FE0E0F0E02030A0E03A07ED
:10089000A0E04A07A0E45A0710F0E1E0F0E0790197
:1008A0008A0127C06038710564F5FB01E158FF4FEC
:1008B000D801C7018F779070A070B0708034910517
:1008C000A105B10539F4E7FE0DC080E490E0A0E099
:1008D000B0E004C08FE390E0A0E0B0E0E80EF91EC5
:1008E0000A1F1B1F17FF05C016950795F794E7947D
:1008F000319687E016950795F794E7948A95D1F796
:1009000005C0EE24FF248701EFEFF0E06E2F67951E
:1009100066276795902F9F77D794DD24D7948E2FE5
:100920008695492F462B582F5D29B701CA011F9183
:100930000F91FF90EF90DF900895FC01DB01408163
:1009400051812281622F6F7770E0221F2227221FA0
:100950009381892F880F822B282F30E0991F9927A8
:10096000991F11969C93119721153105A9F54115F1
:1009700051056105710511F482E037C082E89FEFEF
:1009800013969C938E9312979A01AB0167E0220F06
:10099000331F441F551F6A95D1F783E08C930DC018
:1009A000220F331F441F551F12968D919C91139750
:1009B000019713969C938E931297203080E038070E
:1009C00080E0480780E4580758F314962D933D9330
:1009D0004D935C93179708952F3F310579F4411596
:1009E00051056105710519F484E08C93089564FF45
:1009F00003C081E08C9312C01C9210C02F5730406E
:100A000013963C932E93129783E08C9387E0440FC8
:100A1000551F661F771F8A95D1F7706414964D9302
:100A20005D936D937C9317970895AEE0B0E0EBE192
:100A3000F5E00C94C4070D891E8986E08C831A8327
:100A400009838FEF9FE79E838D839E01275E3F4F33
:100A5000CE0101966F89788DA9010E9439052F81F9
:100A60003885020F131FF80110822E96E4E00C94D3
:100A7000E007ABE0B0E0EFE3F5E00C94B6073C0133
:100A80002B015A01FC0117821682838181FD03C06C
:100A90006FEF7FEFC6C19AE0892E1E010894211CDA
:100AA000311CF3012381F20123FD859123FF819104
:100AB0002F01882309F4B2C1853239F423FD8591D1
:100AC00023FF81912F01853229F490E0B3010E9428
:100AD0002C07E7CF982FFF24EE249924FFE1FF1580
:100AE000D0F09B3269F09C3228F4903259F0933266
:100AF00091F40EC09D3249F0903369F441E024C076
:100B000052E0F52A84E0F82A28C098E0F92A25C0A6
:100B1000E0E1FE2A22C0F7FC29C0892F80538A30E9
:100B200070F4F6FE05C0989C902C1124980E15C008
:100B3000E89CE02C1124E80EF0E2FF2A0EC09E3261
:100B400029F4F6FC6BC140E4F42A07C09C3619F482
:100B500050E8F52A02C0983649F4F20123FD959138
:100B600023FF91912F01992309F0B8CF892F855444
:100B7000833018F08052833038F444E050E0A40E03
:100B8000B51E5FE359830FC0933631F0933779F088
:100B9000933509F056C020C0F5018081898342E079
:100BA00050E0A40EB51E610101E010E012C0F50195
:100BB000C080D180F6FC03C06FEF7FEF02C0692DCB
:100BC00070E042E050E0A40EB51EC6010E9421076D
:100BD0008C015FE7F52214C0F501C080D180F6FCDE
:100BE00003C06FEF7FEF02C0692D70E042E050E07C
:100BF000A40EB51EC6010E9416078C0150E8F52A06
:100C0000F3FE07C01AC080E290E0B3010E942C07F7
:100C1000EA948E2D90E008171907A8F30EC0F6018C
:100C2000F7FC8591F7FE81916F0190E0B3010E947E
:100C30002C07E110EA94015010400115110579F7D5
:100C4000EAC0943611F0993669F5F7FE08C0F5014F
:100C5000208131814281538184E090E00AC0F50116
:100C6000808191819C01442737FD4095542F82E07B
:100C700090E0A80EB91E9FE6F92257FF09C05095D3
:100C80004095309521953F4F4F4F5F4FE0E8FE2A4A
:100C9000CA01B901A1012AE030E00E945807D82E0C
:100CA000D21840C0953729F41F2D1F7E2AE030E06E
:100CB0001DC01F2D197F9F3661F0903720F49835A5
:100CC00009F0ACC00FC0903739F0983709F0A6C0D2
:100CD00004C028E030E00AC0106114FD146020E177
:100CE00030E004C014FD166020E132E017FF08C0B8
:100CF000F501608171818281938144E050E008C0F8
:100D0000F50180819181BC0180E090E042E050E0FB
:100D1000A40EB51EA1010E945807D82ED2188FE745
:100D2000F82EF122F6FE0BC05EEFF522D91438F44E
:100D3000F4FE07C0F2FC05C08FEEF82202C01D2DA4
:100D400001C0192DF4FE0DC0FE01ED0DF11D8081D5
:100D5000803319F499EEF92208C01F5FF2FE05C036
:100D600003C08F2D867809F01F5F0F2DF3FC14C090
:100D7000F0FE0FC01E1510F09D2C0BC09D2C9E0C7C
:100D8000911A1E2D06C080E290E0B3010E942C074C
:100D90001F5F1E15C0F304C01E1510F4E11A01C038
:100DA000EE2404FF0FC080E390E0B3010E942C0703
:100DB00002FF1DC001FD03C088E790E00EC088E57A
:100DC00090E00BC0802F867891F001FF02C08BE28B
:100DD00001C080E2F7FC8DE290E0B3010E942C0795
:100DE00006C080E390E0B3010E942C079A94D914C6
:100DF000C0F3DA94F101ED0DF11D808190E0B301B3
:100E00000E942C07DD20A9F706C080E290E0B30124
:100E10000E942C07EA94EE20C1F743CEF3016681CD
:100E20007781CB012B96E2E10C94D207FC0105906F
:100E3000615070400110D8F7809590958E0F9F1FDC
:100E40000895FC016150704001900110D8F7809521
:100E500090958E0F9F1F08950F931F93CF93DF934D
:100E60008C01EB018B8181FF1BC082FF0DC02E81A5
:100E70003F818C819D812817390764F4E881F981CD
:100E80000193F983E88306C0E885F985802F0995E9
:100E9000892B31F48E819F8101969F838E8302C0BE
:100EA0000FEF1FEFC801DF91CF911F910F910895B0
:100EB000FA01AA27283051F1203181F1E8946F938B
:100EC0006E7F6E5F7F4F8F4F9F4FAF4FB1E03ED031
:100ED000B4E03CD0670F781F891F9A1FA11D680FCF
:100EE000791F8A1F911DA11D6A0F711D811D911D02
:100EF000A11D20D009F468943F912AE0269F112477
:100F00003019305D3193DEF6CF010895462F4770DA
:100F1000405D4193B3E00FD0C9F7F6CF462F4F7035
:100F2000405D4A3318F0495D31FD4052419302D093
:100F3000A9F7EACFB4E0A695979587957795679539
:100F4000BA95C9F700976105710508959B01AC0139
:100F50000A2E06945795479537952795BA95C9F760
:100F6000620F731F841F951FA01D08952F923F923B
:100F70004F925F926F927F928F929F92AF92BF92A9
:100F8000CF92DF92EF92FF920F931F93CF93DF9355
:100F9000CDB7DEB7CA1BDB0B0FB6F894DEBF0FBEB2
:100FA000CDBF09942A88398848885F846E847D84FF
:100FB0008C849B84AA84B984C884DF80EE80FD8001
:100FC0000C811B81AA81B981CE0FD11D0FB6F89477
:0E0FD000DEBF0FBECDBFED010895F894FFCF38
:100FDE0052454144494E473A202530336409256431
:100FEE000D0A0000000000000000000001020203D4
:100FFE0003030304040404040404040505050505A1
:10100E00050505050505050505050506060606067D
:10101E000606060606060606060606060606060662
:10102E00060606060606060606060607070707074D
:10103E000707070707070707070707070707070732
:10104E000707070707070707070707070707070722
:10105E000707070707070707070707070707070712
:10106E0007070707070707070707070808080808FD
:10107E0008080808080808080808080808080808E2
:10108E0008080808080808080808080808080808D2
:10109E0008080808080808080808080808080808C2
:1010AE0008080808080808080808080808080808B2
:1010BE0008080808080808080808080808080808A2
:1010CE000808080808080808080808080808080892
:1010DE000808080808080808080808080808080882
:0C10EE000808080808080808080808009E
:00000001FF
