:100000000C9434000C9449000C9449000C94490061
:100010000C9449000C9449000C9449000C9449003C
:100020000C9449000C9449000C9449000C9449002C
:100030000C9449000C9449000C9449000C9449001C
:100040000C9449000C9449000C9449000C9449000C
:100050000C9449000C9449000C9449000C944900FC
:100060000C9449000C94490011241FBECFEFD8E036
:10007000DEBFCDBF11E0A0E0B1E0E8E1F7E002C0F3
:1000800005900D92A633B107D9F70E94C0010C94D8
:100090008A030C940000662311F0419A01C0419834
:1000A0004298549A559A569A579A5F985E985D98D6
:1000B0005C9887FD5F9A86FD5E9A85FD5D9A84FD5A
:1000C0005C9A439A00C043985F985E985D985C98EC
:1000D00083FD5F9A82FD5E9A81FD5D9A80FD5C9A48
:1000E000439A00C043985C9A5D9A5E9A5F9A08951D
:1000F000882311F0419A01C04198429A549855982A
:1001000056985798439A00C04C9B02C080E101C0AA
:1001100080E04D9980624E9980644F998068439841
:1001200000C0439A00C04C9981604D9982604E99FD
:1001300084604F9988604398089580E00E94780019
:1001400087FDFBCF82E090E00197F1F780E00E940D
:10015000780008951F93182F0E949D00812F60E062
:100160000E944B001F9108951F93182F0E949D001D
:10017000812F61E00E944B001F910895662311F4C6
:10018000805801C080540E94AA0008950E949D00DA
:1001900090E0089581E00E94AA00089582E00E9404
:1001A000AA0008951F93182F0E949D001A3049F449
:1001B000803410F080E001C080E480580E94AA00E2
:1001C00004C0812F61E00E944B001F910895CF93DE
:1001D000DF93EC0102C00E94D20089918823D9F7F5
:1001E000DF91CF910895CF93DF93EC0102C00E947D
:1001F000D200FE01219684918823C9F7DF91CF9127
:1002000008951F93182F399A3A9A3B9A549A559AFF
:10021000569A579A80E89EE30197F1F75D9A5C9AA7
:10022000439A00C0439880E893E10197F1F7439A1D
:1002300000C0439880E490E0FC013197F1F7439AC5
:1002400000C04398FC013197F1F75C98439A00C0D5
:1002500043980197F1F788E20E94AA0088E00E9483
:10026000AA000E94CA0086E00E94AA00812F0E9474
:10027000AA001F9108951092B90088E48093B800F5
:100280000895982F84EA8093BC008091BC0087FF7A
:10029000FCCF8091B900887F883021F0803111F047
:1002A00081E008959093BB0084E88093BC00809126
:1002B000BC0087FFFCCF9091B900987F983111F472
:1002C00080E0089580E0903409F081E00895982F4F
:1002D00044EA34E824E94093BC008091BC0087FFE5
:1002E000FCCF8091B900887F883011F0803199F778
:1002F0009093BB003093BC008091BC0087FFFCCF83
:100300008091B900887F803211F0883539F42093CC
:10031000BC008091BC0084FDFCCFDDCF08950E941D
:100320004101089584E98093BC008091BC0084FD64
:10033000FCCF08958093BB0084E88093BC0080913B
:10034000BC0087FFFCCF8091B90090E0887F8832A5
:1003500009F091E0892F089584EC8093BC0080918E
:10036000BC0087FFFCCF8091BB00089584E8809398
:10037000BC008091BC0087FFFCCF8091BB0008953A
:100380002F923F924F925F926F927F928F929F92A5
:10039000AF92BF92CF92DF92EF92FF920F931F9393
:1003A000DF93CF93CDB7DEB7C05AD0400FB6F894E5
:1003B000DEBF0FBECDBF8CE00E9401018FE39DE048
:1003C000A3E0B0E00197A109B109000001F0D1F765
:1003D000C895000080917A00876080937A008091B0
:1003E0007C00806480937C0080917A008068809398
:1003F0007A0080917A00806480937A008FE794E895
:10040000AEE1B0E00197A109B109000001F0D1F718
:10041000C89500000E94CA001092B90088E4809339
:10042000B8004FE3A42E4DE0B42E43E0C42ED12CEF
:100430003DE3632E712C6C0E7D1E24E8E22E9FE7B7
:10044000292E94E8392E9EE1492E512CD601C50162
:100450000197A109B109000001F0D1F7C89500008A
:100460000E94CA000E94CA00D601C5010197A109D5
:10047000B109000001F0D1F7C895000080E091E0DB
:100480000E94E700FF2480917A00806480937A00C4
:1004900080917A0084FFFCCF80917A008061809304
:1004A0007A000091780010E080917900982E8824DD
:1004B0000829192916950795102FC30164E171E0E9
:1004C0000E942B03802F90E0BE01655F7F4F4AE0C2
:1004D00050E00E943203C301BE01655F7F4F0E945E
:1004E00020030E94CA00C3010E94E700D601C50193
:1004F0000197A109B109000001F0D1F7C8950000EA
:1005000082EA0E946701F092BB00E092BC008091F9
:10051000BC0087FFFCCF8091B9001093BB00E09234
:10052000BC008091BC0087FFFCCF8091B90084E9BA
:100530008093BC008091BC0084FDFCCFF3948EE1DD
:10054000F81609F0A0CF0E94CA008AE191E00E944B
:10055000E700D601C5010197A109B109000001F02A
:10056000D1F7C895000082EA0E9467011092BB0093
:10057000E092BC008091BC0087FFFCCF8091B90065
:1005800083EA0E9441010E94CA00D601C501019779
:10059000A109B109000001F0D1F7C89500008BE274
:1005A00091E00E94E70000E010E020E030E084EC01
:1005B0008093BC008091BC0087FFFCCF8091BB0082
:1005C000080F111D2F5F3F4F2E31310581F780E05D
:1005D00061E00E94BE00C8016EE170E00E9463030A
:1005E000CB01BE016F5F7F4F4AE050E00E943203B3
:1005F000D201C1010197A109B109000001F0D1F7B1
:10060000C8950000CE0101960E94E700D201C10109
:100610000197A109B109000001F0D1F7C8950000C8
:10062000E092BC008091BC0087FFFCCF8091BB00B2
:1006300084E98093BC008091BC0084FDFCCF06CF90
:10064000FB01DC010D900020E9F7119701900D925C
:100650000020E1F70895FB01DC0101900D920020DC
:10066000E1F70895FB019F01E8944230C4F0453260
:10067000B4F44A3029F497FB1EF4909581959F4F6E
:10068000642F77270E947603805D8A330CF0895DA2
:100690008193CB010097A1F716F45DE2519310828C
:1006A000C9010C945303DC01FC01672F719177237E
:1006B000E1F7329704C07C916D9370836291AE171D
:1006C000BF07C8F3089597FB092E07260AD077FDC8
:1006D00004D00CD006D000201AF4709561957F4F9D
:1006E0000895F6F7909581959F4F0895AA1BBB1B1F
:1006F00051E107C0AA1FBB1FA617B70710F0A61B22
:10070000B70B881F991F5A95A9F780959095BC0142
:08071000CD010895F894FFCF1C
:10071800496E697469616C697A656420493243205D
:100728004C69620054656D703D0057726974696E5A
:100738006720636F6D706C657465004176657261E2
:060748006765203D200062
:00000001FF
