:100000000C9446000C945D000C945D000C945D0013
:100010000C945D000C945D000C945D000C945D00EC
:100020000C945D000C945D000C945D000C945D00DC
:100030000C945D000C945D000C945D000C945D00CC
:100040000C945D000C945D000C945D000C945D00BC
:100050000C945D000C945D000C945D000C945D00AC
:100060000C945D000C945D000C945D000C945D009C
:100070000C945D000C945D000C945D000C945D008C
:100080000C945D000C945D000C945D0011241FBE67
:10009000CFEFD0E1DEBFCDBF11E0A0E0B1E0ECE2F8
:1000A000FCE000E00BBF02C007900D92AE30B1073C
:1000B000D9F70E940F020C9414060C9400006623DA
:1000C00011F0A99A01C0A998AA988C9A8D9A8E9A33
:1000D0008F9A979896989598949887FD979A86FD09
:1000E000969A85FD959A84FD949AAB9A00C0AB9838
:1000F000979896989598949883FD979A82FD969AEA
:1001000081FD959A80FD949AAB9A00C0AB98949A21
:10011000959A969A979A0895882311F0A99A01C002
:10012000A998AA9A8C988D988E988F98AB9A00C0AF
:10013000849B02C080E101C080E08599806286993D
:10014000806487998068AB9800C0AB9A00C084999E
:100150008160859982608699846087998860AB9870
:10016000089580E00E948C0087FDFBCF88E090E03E
:100170000197F1F780E00E948C0008951F93182FDB
:100180000E94B100812F60E00E945F001F910895DE
:100190001F93182F0E94B100812F61E00E945F0021
:1001A0001F910895662311F4805801C080540E9465
:1001B000BE0008950E94B10090E0089581E00E9481
:1001C000BE00089582E00E94BE0008951F93182F7C
:1001D0000E94B1001A3049F4803410F080E001C070
:1001E00080E480580E94BE0004C0812F61E00E941C
:1001F0005F001F910895CF93DF93EC0102C00E942E
:10020000E60089918823D9F7DF91CF910895CF93A4
:10021000DF93EC0102C00E94E600FE01219684916A
:100220008823C9F7DF91CF9108951F93182FA19AC2
:10023000A29AA39A8C9A8D9A8E9A8F9A80E09AEFBE
:100240000197F1F7959A949AAB9A00C0AB9880E029
:100250009EE40197F1F7AB9A00C0AB9880E091E083
:10026000FC013197F1F7AB9A00C0AB98FC013197D4
:10027000F1F79498AB9A00C0AB980197F1F788E238
:100280000E94BE0088E00E94BE000E94DE0086E060
:100290000E94BE00812F0E94BE001F9108951092FF
:1002A000710088E4809370000895982F84EA809309
:1002B00074008091740087FFFCCF80917100887F6B
:1002C000883021F0803111F081E00895909373001F
:1002D00084E8809374008091740087FFFCCF909134
:1002E0007100987F983111F480E0089580E0903497
:1002F00009F081E00895982F44EA34E824E9409316
:1003000074008091740087FFFCCF80917100887F1A
:10031000883011F0803199F7909373003093740016
:100320008091740087FFFCCF80917100887F8032BC
:1003300011F0883539F4209374008091740084FDA5
:10034000FCCFDDCF08950E945501089584E9809384
:1003500074008091740084FDFCCF08958093730035
:1003600084E8809374008091740087FFFCCF8091B3
:10037000710090E0887F883209F091E0892F08951C
:1003800084EC809374008091740087FFFCCF80918F
:100390007300089584E8809374008091740087FF4F
:1003A000FCCF8091730008950F931F93DF93CF9339
:1003B000CDB7DEB764970FB6F894DEBF0FBECDBFE2
:1003C00086B1876086B93E9A379A369A04B110E0B2
:1003D00025B1922F80E0082B192BC801BE016F5F59
:1003E0007F4F4AE050E00E94E402C801880F991F45
:1003F000880F991F800F911FBE01655F7F4F4AE0F4
:1004000050E00E94E402C80164960FB6F894DEBF83
:100410000FBECDBFCF91DF911F910F9108955F92D5
:100420006F927F928F929F92AF92BF92CF92DF9204
:10043000EF92FF920F931F93DF93CF93CDB7DEB769
:100440002A970FB6F894DEBF0FBECDBF8CE00E9496
:1004500015010E94DE001092710088E48093700004
:10046000B4E9EB2EA4E8FA2EFFE3AF2EFDE0BF2E99
:10047000F3E0CF2ED12CE4EC5E2E4E010894811CCB
:10048000911C70E0672E71E0772E80EA0E94550182
:10049000882339F0E09274008091740084FDFCCFD1
:1004A000F4CF10927300F09274008091740087FF73
:1004B000FCCF8091710000E010E00E94D40164E064
:1004C00070E00E94B60560937300F0927400809112
:1004D000740087FFFCCF80917100D601C5010197A0
:1004E000A109B109000001F0D1F7C89500000F5F24
:1004F0001F4F0E31110509F7E092740080917400CE
:1005000084FDFCCF80EA0E947B0110927300F09280
:1005100074008091740087FFFCCF8091710081EAA4
:100520000E94550140E050E020E030E0509274001D
:100530008091740087FFFCCF8091730090E0880F5A
:10054000991F880F991F480F591F2F5F3F4F2D315B
:10055000310561F7F09274008091740087FFFCCF41
:1005600000917300E09274008091740084FDFCCFD0
:1005700010E0000F111F000F111F040F151F0E9424
:10058000DE0000D000D000D0EDB7FEB73196ADB799
:10059000BEB712969C928E92119773826282C801A6
:1005A0006EE170E00E94B605758364830E940503C6
:1005B0008DB79EB706960FB6F8949EBF0FBE8DBF3F
:1005C000C4010E94FB0061CFFB019F01E89442300F
:1005D000C4F04532B4F44A3029F497FB1EF49095E8
:1005E00081959F4F642F77270E94C905805D8A33CC
:1005F0000CF0895D8193CB010097A1F716F45DE2C1
:1006000051931082C9010C941C05AEE0B0E0EBE000
:10061000F3E00C94EB050D891E8986E08C831A8328
:1006200009838FEF9FE79E838D839E01275E3F4F57
:10063000CE0101966F89788DA9010E9429032F812F
:100640003885020F131FF80110822E96E4E00C94F7
:100650000706ABE0B0E0EFE2F3E00C94DD053C010F
:100660002B015A01FC0117821682838181FD03C090
:100670006FEF7FEFC6C19AE0892E1E010894211CFE
:10068000311CF3012381F20123FD859123FF819128
:100690002F01882309F4B2C1853239F423FD8591F5
:1006A00023FF81912F01853229F490E0B3010E944C
:1006B0002C05E7CF982FFF24EE249924FFE1FF15A6
:1006C000D0F09B3269F09C3228F4903259F093328A
:1006D00091F40EC09D3249F0903369F441E024C09A
:1006E00052E0F52A84E0F82A28C098E0F92A25C0CB
:1006F000E0E1FE2A22C0F7FC29C0892F80538A300E
:1007000070F4F6FE05C0989C902C1124980E15C02C
:10071000E89CE02C1124E80EF0E2FF2A0EC09E3285
:1007200029F4F6FC6BC140E4F42A07C09C3619F4A6
:1007300050E8F52A02C0983649F4F20123FD95915C
:1007400023FF91912F01992309F0B8CF892F855468
:10075000833018F08052833038F444E050E0A40E27
:10076000B51E5FE359830FC0933631F0933779F0AC
:10077000933509F056C020C0F5018081898342E09D
:1007800050E0A40EB51E610101E010E012C0F501B9
:10079000C080D180F6FC03C06FEF7FEF02C0692DEF
:1007A00070E042E050E0A40EB51EC6010E941105A3
:1007B0008C015FE7F52214C0F501C080D180F6FC02
:1007C00003C06FEF7FEF02C0692D70E042E050E0A0
:1007D000A40EB51EC6010E9406058C0150E8F52A3C
:1007E000F3FE07C01AC080E290E0B3010E942C051E
:1007F000EA948E2D90E008171907A8F30EC0F601B1
:10080000F7FC8591F7FE81916F0190E0B3010E94A2
:100810002C05E110EA94015010400115110579F7FB
:10082000EAC0943611F0993669F5F7FE08C0F50173
:10083000208131814281538184E090E00AC0F5013A
:10084000808191819C01442737FD4095542F82E09F
:1008500090E0A80EB91E9FE6F92257FF09C05095F7
:100860004095309521953F4F4F4F5F4FE0E8FE2A6E
:10087000CA01B901A1012AE030E00E945805D82E32
:10088000D21840C0953729F41F2D1F7E2AE030E092
:100890001DC01F2D197F9F3661F0903720F49835C9
:1008A00009F0ACC00FC0903739F0983709F0A6C0F6
:1008B00004C028E030E00AC0106114FD146020E19B
:1008C00030E004C014FD166020E132E017FF08C0DC
:1008D000F501608171818281938144E050E008C01C
:1008E000F50180819181BC0180E090E042E050E020
:1008F000A40EB51EA1010E945805D82ED2188FE76C
:10090000F82EF122F6FE0BC05EEFF522D91438F472
:10091000F4FE07C0F2FC05C08FEEF82202C01D2DC8
:1009200001C0192DF4FE0DC0FE01ED0DF11D8081F9
:10093000803319F499EEF92208C01F5FF2FE05C05A
:1009400003C08F2D867809F01F5F0F2DF3FC14C0B4
:10095000F0FE0FC01E1510F09D2C0BC09D2C9E0CA0
:10096000911A1E2D06C080E290E0B3010E942C0572
:100970001F5F1E15C0F304C01E1510F4E11A01C05C
:10098000EE2404FF0FC080E390E0B3010E942C0529
:1009900002FF1DC001FD03C088E790E00EC088E59E
:1009A00090E00BC0802F867891F001FF02C08BE2AF
:1009B00001C080E2F7FC8DE290E0B3010E942C05BB
:1009C00006C080E390E0B3010E942C059A94D914EC
:1009D000C0F3DA94F101ED0DF11D808190E0B301D7
:1009E0000E942C05DD20A9F706C080E290E0B3014B
:1009F0000E942C05EA94EE20C1F743CEF3016681F4
:100A00007781CB012B96E2E10C94F905FC0105906E
:100A1000615070400110D8F7809590958E0F9F1F00
:100A20000895FC016150704001900110D8F7809545
:100A300090958E0F9F1F0895DC01FC01672F719127
:100A40007723E1F7329704C07C916D9370836291B4
:100A5000AE17BF07C8F308950F931F93CF93DF938B
:100A60008C01EB018B8181FF1BC082FF0DC02E81A9
:100A70003F818C819D812817390764F4E881F981D1
:100A80000193F983E88306C0E885F985802F0995ED
:100A9000892B31F48E819F8101969F838E8302C0C2
:100AA0000FEF1FEFC801DF91CF911F910F910895B4
:100AB000FA01AA27283051F1203181F1E8946F938F
:100AC0006E7F6E5F7F4F8F4F9F4FAF4FB1E03ED035
:100AD000B4E03CD0670F781F891F9A1FA11D680FD3
:100AE000791F8A1F911DA11D6A0F711D811D911D06
:100AF000A11D20D009F468943F912AE0269F11247B
:100B00003019305D3193DEF6CF010895462F4770DE
:100B1000405D4193B3E00FD0C9F7F6CF462F4F7039
:100B2000405D4A3318F0495D31FD4052419302D097
:100B3000A9F7EACFB4E0A69597958795779567953D
:100B4000BA95C9F700976105710508959B01AC013D
:100B50000A2E06945795479537952795BA95C9F764
:100B6000620F731F841F951FA01D089597FB092E08
:100B700007260AD077FD04D00CD006D000201AF446
:100B8000709561957F4F0895F6F7909581959F4FE9
:100B90000895AA1BBB1B51E107C0AA1FBB1FA617C4
:100BA000B70710F0A61BB70B881F991F5A95A9F716
:100BB00080959095BC01CD0108952F923F924F9260
:100BC0005F926F927F928F929F92AF92BF92CF92DD
:100BD000DF92EF92FF920F931F93CF93DF93CDB7E6
:100BE000DEB7CA1BDB0B0FB6F894DEBF0FBECDBF5E
:100BF00009942A88398848885F846E847D848C842F
:100C00009B84AA84B984C884DF80EE80FD800C8137
:100C10001B81AA81B981CE0FD11D0FB6F894DEBF1A
:0C0C20000FBECDBFED010895F894FFCF8A
:0E0C2C0041766572616765203A2025640000FC
:00000001FF
