:100000000C9434000C9449000C9449000C94490061
:100010000C9449000C9449000C9449000C9449003C
:100020000C9449000C9449000C9449000C9449002C
:100030000C9449000C9449000C9449000C9449001C
:100040000C9449000C9449000C9449000C9449000C
:100050000C9449000C9449000C9449000C944900FC
:100060000C9449000C94490011241FBECFEFD8E036
:10007000DEBFCDBF11E0A0E0B1E0E6EFF9E002C0E5
:1000800005900D92A830B107D9F70E943B010C945E
:10009000F9040C940000662311F0419A01C04198C4
:1000A0004298549A559A569A579A5F985E985D98D6
:1000B0005C9887FD5F9A86FD5E9A85FD5D9A84FD5A
:1000C0005C9A439A00C043985F985E985D985C98EC
:1000D00083FD5F9A82FD5E9A81FD5D9A80FD5C9A48
:1000E000439A00C043985C9A5D9A5E9A5F9A08951D
:1000F000882311F0419A01C04198429A549855982A
:1001000056985798439A00C04C9B02C080E101C0AA
:1001100080E04D9980624E9980644F998068439841
:1001200000C0439A00C04C9981604D9982604E99FD
:1001300084604F9988604398089580E00E94780019
:1001400087FDFBCF82E090E00197F1F780E00E940D
:10015000780008951F93182F0E949D00812F60E062
:100160000E944B001F9108951F93182F0E949D001D
:10017000812F61E00E944B001F910895662311F4C6
:10018000805801C080540E94AA0008950E949D00DA
:1001900090E0089581E00E94AA00089582E00E9404
:1001A000AA0008951F93182F0E949D001A3049F449
:1001B000803410F080E001C080E480580E94AA00E2
:1001C00004C0812F61E00E944B001F910895CF93DE
:1001D000DF93EC0102C00E94D20089918823D9F7F5
:1001E000DF91CF910895CF93DF93EC0102C00E947D
:1001F000D200FE01219684918823C9F7DF91CF9127
:1002000008951F93182F399A3A9A3B9A549A559AFF
:10021000569A579A80E89EE30197F1F75D9A5C9AA7
:10022000439A00C0439880E893E10197F1F7439A1D
:1002300000C0439880E490E0FC013197F1F7439AC5
:1002400000C04398FC013197F1F75C98439A00C0D5
:1002500043980197F1F788E20E94AA0088E00E9483
:10026000AA000E94CA0086E00E94AA00812F0E9474
:10027000AA001F9108952F923F924F925F926F9222
:100280007F928F929F92AF92BF92CF92DF92EF9226
:10029000FF920F931F93DF93CF93CDB7DEB7C45672
:1002A000D0400FB6F894DEBF0FBECDBF8CE00E94E9
:1002B00001010E94CA008FE794E8AEE1B0E0019727
:1002C000A109B109000001F0D1F7C89500008091A3
:1002D0007A00876080937A0080917B008B7F809387
:1002E0007B0080917C00806480937C0080917A0008
:1002F000806280937A0080917A00806880937A008F
:1003000080917A00806480937A008AB183608AB990
:10031000219A599A589881E88093800081E08093CF
:10032000810010928500109284002FE3622E2DE050
:10033000722E23E0822E912C9FE7A92E94E8B92EED
:100340009EE1C92ED12C2E010894411C511C80E045
:10035000282E81E0382E80917800082F10E08091BF
:100360007900F82EEE240E291F29D401C30101972C
:10037000A109B109000001F0D1F7C895000081E0A2
:10038000043F180718F0AFEFB0E011C0C801805962
:1003900091408436910518F488EC90E015C0C801AE
:1003A000885C9040883C910538F4A2E8B0E0B093B6
:1003B0008900A093880011C0C801845690408436FB
:1003C000910538F480E590E090938900809388004F
:1003D00004C010928900109288000E94CA00D601C1
:1003E000C5010197A109B109000001F0D1F7C89535
:1003F000000000D000D000D0EDB7FEB73196ADB709
:10040000BEB712965C924E92119733822282158368
:1004100004830E9421028DB79EB706960FB6F8940A
:100420009EBF0FBE8DBFC2010E94E700D601C5016D
:100430000197A109B109000001F0D1F7C8950000AA
:100440008ACFAEE0B0E0E7E2F2E00C94D0040D8990
:100450001E8986E08C831A8309838FEF9FE79E8332
:100460008D839E01275E3F4FCE0101966F89788D67
:10047000A9010E9445022F813885020F131FF80140
:1004800010822E96E4E00C94EC04ABE0B0E0EBE4D8
:10049000F2E00C94C2043C012B015A01FC011782CA
:1004A0001682838181FD03C06FEF7FEFC6C19AE0A2
:1004B000892E1E010894211C311CF3012381F201B5
:1004C00023FD859123FF81912F01882309F4B2C177
:1004D000853239F423FD859123FF81912F018532E7
:1004E00029F490E0B3010E943804E7CF982FFF244D
:1004F000EE249924FFE1FF15D0F09B3269F09C3285
:1005000028F4903259F0933291F40EC09D3249F0A4
:10051000903369F441E024C052E0F52A84E0F82ADF
:1005200028C098E0F92A25C0E0E1FE2A22C0F7FCA5
:1005300029C0892F80538A3070F4F6FE05C0989C3C
:10054000902C1124980E15C0E89CE02C1124E80E84
:10055000F0E2FF2A0EC09E3229F4F6FC6BC140E4A3
:10056000F42A07C09C3619F450E8F52A02C09836E0
:1005700049F4F20123FD959123FF91912F019923D5
:1005800009F0B8CF892F8554833018F0805283301A
:1005900038F444E050E0A40EB51E5FE359830FC069
:1005A000933631F0933779F0933509F056C020C077
:1005B000F5018081898342E050E0A40EB51E6101FF
:1005C00001E010E012C0F501C080D180F6FC03C04C
:1005D0006FEF7FEF02C0692D70E042E050E0A40EA3
:1005E000B51EC6010E942D048C015FE7F52214C0E0
:1005F000F501C080D180F6FC03C06FEF7FEF02C031
:10060000692D70E042E050E0A40EB51EC6010E94C4
:1006100022048C0150E8F52AF3FE07C01AC080E2DC
:1006200090E0B3010E943804EA948E2D90E0081700
:100630001907A8F30EC0F601F7FC8591F7FE81912A
:100640006F0190E0B3010E943804E110EA94015078
:1006500010400115110579F7EAC0943611F099366A
:1006600069F5F7FE08C0F50120813181428153818F
:1006700084E090E00AC0F501808191819C014427CB
:1006800037FD4095542F82E090E0A80EB91E9FE6FA
:10069000F92257FF09C050954095309521953F4F5D
:1006A0004F4F5F4FE0E8FE2ACA01B901A1012AE0DD
:1006B00030E00E946404D82ED21840C0953729F447
:1006C0001F2D1F7E2AE030E01DC01F2D197F9F3691
:1006D00061F0903720F4983509F0ACC00FC0903726
:1006E00039F0983709F0A6C004C028E030E00AC00D
:1006F000106114FD146020E130E004C014FD1660A8
:1007000020E132E017FF08C0F5016081718182812C
:10071000938144E050E008C0F50180819181BC01E3
:1007200080E090E042E050E0A40EB51EA1010E94DE
:100730006404D82ED2188FE7F82EF122F6FE0BC0F3
:100740005EEFF522D91438F4F4FE07C0F2FC05C0C0
:100750008FEEF82202C01D2D01C0192DF4FE0DC030
:10076000FE01ED0DF11D8081803319F499EEF9221F
:1007700008C01F5FF2FE05C003C08F2D867809F008
:100780001F5F0F2DF3FC14C0F0FE0FC01E1510F0FC
:100790009D2C0BC09D2C9E0C911A1E2D06C080E234
:1007A00090E0B3010E9438041F5F1E15C0F304C01F
:1007B0001E1510F4E11A01C0EE2404FF0FC080E3FF
:1007C00090E0B3010E94380402FF1DC001FD03C088
:1007D00088E790E00EC088E590E00BC0802F867817
:1007E00091F001FF02C08BE201C080E2F7FC8DE2D4
:1007F00090E0B3010E94380406C080E390E0B301AA
:100800000E9438049A94D914C0F3DA94F101ED0DE2
:10081000F11D808190E0B3010E943804DD20A9F72A
:1008200006C080E290E0B3010E943804EA94EE2012
:10083000C1F743CEF30166817781CB012B96E2E1CC
:100840000C94DE04FC010590615070400110D8F753
:10085000809590958E0F9F1F0895FC016150704008
:1008600001900110D8F7809590958E0F9F1F0895E5
:100870000F931F93CF93DF938C01EB018B8181FF4B
:100880001BC082FF0DC02E813F818C819D81281766
:10089000390764F4E881F9810193F983E88306C09C
:1008A000E885F985802F0995892B31F48E819F8108
:1008B00001969F838E8302C00FEF1FEFC801DF9167
:1008C000CF911F910F910895FA01AA27283051F175
:1008D000203181F1E8946F936E7F6E5F7F4F8F4F71
:1008E0009F4FAF4FB1E03ED0B4E03CD0670F781FD0
:1008F000891F9A1FA11D680F791F8A1F911DA11DB5
:100900006A0F711D811D911DA11D20D009F46894ED
:100910003F912AE0269F11243019305D3193DEF695
:10092000CF010895462F4770405D4193B3E00FD04B
:10093000C9F7F6CF462F4F70405D4A3318F0495D36
:1009400031FD4052419302D0A9F7EACFB4E0A69519
:100950009795879577956795BA95C9F7009761053B
:10096000710508959B01AC010A2E06945795479591
:1009700037952795BA95C9F7620F731F841F951F86
:10098000A01D08952F923F924F925F926F927F9297
:100990008F929F92AF92BF92CF92DF92EF92FF928F
:1009A0000F931F93CF93DF93CDB7DEB7CA1BDB0B3B
:1009B0000FB6F894DEBF0FBECDBF09942A883988E0
:1009C00048885F846E847D848C849B84AA84B984E7
:1009D000C884DF80EE80FD800C811B81AA81B981F3
:1009E000CE0FD11D0FB6F894DEBF0FBECDBFED0107
:0609F0000895F894FFCF0A
:0809F6004144433A202564004E
:00000001FF
