:100000000C9434000C9449000C9449000C94490061
:100010000C9449000C9449000C9449000C9449003C
:100020000C9449000C9449000C9449000C9449002C
:100030000C9449000C9449000C9449000C9449001C
:100040000C9449000C9449000C9497010C944900BD
:100050000C94AC010C9449000C9449000C94490098
:100060000C9449000C94490011241FBECFEFD8E036
:10007000DEBFCDBF11E0A0E0B1E0E0EAF3E002C0F6
:1000800005900D92A230B107D9F70E9462010C943D
:10009000CE010C940000662311F0419A01C04198F2
:1000A0004098549A559A569A579A5F985E985D98D8
:1000B0005C9887FD5F9A86FD5E9A85FD5D9A84FD5A
:1000C0005C9A429A00C042985F985E985D985C98EE
:1000D00083FD5F9A82FD5E9A81FD5D9A80FD5C9A48
:1000E000429A00C042985C9A5D9A5E9A5F9A08951F
:1000F000882311F0419A01C04198409A549855982C
:1001000056985798429A00C04C9B02C080E101C0AB
:1001100080E04D9980624E9980644F998068429842
:1001200000C0429A00C04C9981604D9982604E99FE
:1001300084604F9988604298089580E00E9478001A
:1001400087FDFBCF88E090E00197F1F780E00E9407
:10015000780008951F93182F0E949D00812F60E062
:100160000E944B001F9108951F93182F0E949D001D
:10017000812F61E00E944B001F910895662311F4C6
:10018000805801C080540E94AA0008950E949D00DA
:1001900090E0089581E00E94AA00089582E00E9404
:1001A000AA0008951F93182F0E949D001A3049F449
:1001B000803410F080E001C080E480580E94AA00E2
:1001C00004C0812F61E00E944B001F910895CF93DE
:1001D000DF93EC0102C00E94D20089918823D9F7F5
:1001E000DF91CF910895CF93DF93EC0102C00E947D
:1001F000D200FE01219684918823C9F7DF91CF9127
:1002000008951F93182F399A389A3A9A549A559A02
:10021000569A579A80E09AEF0197F1F75D9A5C9AA7
:10022000429A00C0429880E09EE40197F1F7429A1A
:1002300000C0429880E091E0FC013197F1F7429ACA
:1002400000C04298FC013197F1F75C98429A00C0D7
:1002500042980197F1F788E20E94AA0088E00E9484
:10026000AA000E94CA0086E00E94AA00812F0E9474
:10027000AA001F9108959093C5008093C40086E062
:100280008093C20088ED8093C1000895982F8091DB
:10029000C00085FFFCCF9093C60008958091C000F8
:1002A00087FFFCCF8091C6000895FC0107C08091B4
:1002B000C00085FFFCCF9093C600319690819923B2
:1002C000B1F7089580E287B988B983E08093C500CB
:1002D00080E48093C40086E08093C20088ED809320
:1002E000C100789446E432E42CE492E5309B06C0E9
:1002F0008091C00085FFFCCF4093C600319B06C0B3
:100300008091C00085FFFCCF3093C600329B06C0B1
:100310008091C00085FFFCCF2093C600339BE6CFC1
:100320008091C00085FFFCCF9093C600DFCF1F9265
:100330000F920FB60F9211248F938091C600809375
:100340000001809100018F5F809300018F910F90D9
:100350000FBE0F901F9018951F920F920FB60F921D
:1003600011248F939F93AF93BF938FEF87B988B971
:100370008FEF98E0ADE3B0E00197A109B10900006B
:1003800001F0D1F7C895000018B8BF91AF919F91C7
:100390008F910F900FBE0F901F901895F894FFCF7C
:0203A00041001A
:00000001FF
