:100000000C9434000C943E000C943E000C943E0082
:100010000C943E000C943E000C943E000C943E0068
:100020000C943E000C943E000C943E000C943E0058
:100030000C943E000C943E000C943E000C943E0048
:100040000C943E000C943E000C943E000C943E0038
:100050000C943E000C943E000C943E000C943E0028
:100060000C943E000C943E0011241FBECFEFD8E04C
:10007000DEBFCDBF0E9440000C947A000C940000BB
:1000800080917A00876080937A0080917C00806400
:1000900080937C0080917A00806280937A008091C6
:1000A0007A00806880937A0080917A0080648093DF
:1000B0007A008FEF84B94FE35DE063E070E0E7EC36
:1000C000DB01CA010197A109B109000001F0D1F7D4
:1000D000C89500008091780020917900322F20E0AF
:1000E00090E0822B932B8F5F934010F0E5B9E8CF1F
:0800F00015B8E6CFF894FFCF2C
:00000001FF
