:100000000C947E010C949B010C949B010C949B011D
:100010000C949B010C949B010C949B010C949B01F0
:100020000C949B010C949B010C949B010C949B01E0
:100030000C949B010C949B010C949B010C949B01D0
:100040000C949B010C949B010C94C8020C949B0192
:100050000C949B010C949B010C949B010C949B01B0
:100060000C949B010C949B015344204F6666200D19
:100070000A0041206E65772066696C652077696C9F
:100080006C20626520637265617465640D0A004DC1
:100090006963726F53446361726420696E69746945
:1000A000616C69736564200D0A0075617274206962
:1000B0006E697469616C69736564200D0A0065720C
:1000C000726F722064656C6574696E672066696C16
:1000D000653A20006572726F72206F70656E696E8E
:1000E00067200063616C6C20696E69745F73646380
:1000F0006172642829206669727374200A0053446F
:100100002043617264206E6F7420696E6974696146
:100110006C697A65642070726F7065726C790A0020
:100120006572726F722077726974696E6720746F7E
:100130002066696C650A006572726F72207365656E
:100140006B696E67206F6E20006572726F72206F30
:1001500070656E696E67200063616C6C20696E6902
:10016000745F7364636172642829206669727374B2
:100170000A0053442043617264206E6F7420696EDC
:10018000697469616C697A65642070726F706572F8
:100190006C790A006572726F722077726974696E89
:1001A0006720746F2066696C650A006572726F72F1
:1001B000207365656B696E67206F6E2000657272D3
:1001C0006F72206F70656E696E67200063616C6C82
:1001D00020696E69745F73646361726428292066A4
:1001E000697273740A0053442043617264206E6F15
:1001F0007420696E697469616C697A6564207072D3
:100200006F7065726C790A006572726F722063722A
:10021000656174696E672066696C653A20006F706D
:10022000656E696E6720726F6F74206469726563B2
:10023000746F7279206661696C65640A006F70651D
:100240006E696E672066696C6573797374656D207D
:100250006661696C65640A006F70656E696E67201F
:10026000706172746974696F6E206661696C65642F
:100270000A004D4D432F534420696E697469616CC7
:10028000697A6174696F6E206661696C65640A00E1
:10029000667265653A20202000666F726D61743A5F
:1002A000200077722E70722E3A2000636F70793AB8
:1002B000202020004D420A0073697A653A202020F0
:1002C00000646174653A2020200073657269616C76
:1002D0003A203078007265763A2020202000707233
:1002E0006F643A202020006F656D3A2020202000A6
:1002F0006D616E75663A20203078000011241FBEB3
:10030000CFEFD8E0DEBFCDBF11E0A0E0B1E0E2E189
:10031000FFE302C005900D92A432B107D9F713E0B4
:10032000A4E2B1E001C01D92A63FB107E1F70E942F
:100330008A1B0C94871F0C9400001092C50087E65E
:100340008093C40086E08093C20088E98093C10056
:1003500008951F93182F8A3019F48DE00E94A90187
:100360008091C00085FFFCCF1093C6001F910895B7
:100370001F93182F82958F708A3010F4805D01C012
:10038000895A0E94A901812F90E08F709070212FCF
:100390002F700A971CF4822F805D02C0822F895A29
:1003A0000E94A9011F9108951F93182F892F0E9461
:1003B000B801812F0E94B8011F910895EF92FF921A
:1003C0000F931F937B018C01C801AA27BB270E94B2
:1003D000D401C7010E94D4011F910F91FF90EF90AB
:1003E0000895CF92DF92FF920F931F93CF93DF93E5
:1003F0006C01C0E1D7E240E000E010E0C601BE01C0
:100400000E94071FF62E662329F4442319F4C130F5
:10041000D10529F48F2D805D0E94A90141E0CE0114
:100420006AE070E00E94071F0F5F1F4F0530110543
:1004300071F08F2D90E09C012C9FC0012D9F900D9D
:100440003C9F900D1124C81AD90AEB01D7CFDF9138
:10045000CF911F910F91FF90DF90CF9008954F9211
:100460005F926F927F928F929F92AF92BF92CF9244
:10047000DF92EF92FF920F931F93CF93DF935B0175
:100480006C01E12C9AECF92E9AE9092F9BE3192FC4
:100490004424C0E0D0E0C601B501A80197010E9444
:1004A0002E1F922E222341F4442031F481E0E816DD
:1004B000F1040105110531F4892D805D0E94A90127
:1004C00044244394C801B7012AE030E040E050E002
:1004D0000E942E1F822E732E642E552E2196CA3016
:1004E000D105A9F0692D70E080E090E0A8019701A6
:1004F0000E94E81EA61AB70AC80AD90A282D372D65
:10050000462D552DC901DA017C018D01C4CFDF9143
:10051000CF911F910F91FF90EF90DF90CF90BF9000
:10052000AF909F908F907F906F905F904F900895C5
:10053000CF93DF93EC0103C021960E94A90188812B
:100540008823D1F7DF91CF910895CF93DF93EC010A
:10055000FE0121968491882319F00E94A901F8CF09
:10056000DF91CF9108959FB7789407C083B78160DA
:1005700083BF889583B78E7F83BF8091C00087FF3C
:10058000F5CF9FBF8091C6008D3009F48AE00895B1
:100590001895FC01009711F0118210820895DF93E5
:1005A000CF9300D0CDB7DEB7DC01009781F1623088
:1005B000710568F1ED91FC911197660F771F80E04E
:1005C00090E016962D913D914D915C911997620F97
:1005D000731F841F951F0190F081E02DAE014F5FC6
:1005E0005F4F22E030E00995882389F029813A8124
:1005F0002115310571F08FEF273F380741F0C90110
:100600004096079720F08FEF283F380710F020E042
:1006100030E0C9010F900F90CF91DF9108954F9274
:100620005F926F927F928F929F92AF92BF92CF9282
:10063000DF92EF92FF920F931F93DF93CF9300D03F
:10064000CDB7DEB75C01009709F449C0623071058F
:1006500008F445C0DC0116966D907D908D909C90BD
:1006600019972E010894411C511C660F771F7B01BE
:1006700000E010E0E60CF71C081D191DD501ED91F6
:10068000FC910190F081E02DC801B701A20122E0A8
:1006900030E00995882319F1C980DA80C114D104AA
:1006A00001F1C60140960897D0F0B8EFCB16BFEF26
:1006B000DB0610F0CC24DD241A821982D501ED91DD
:1006C000FC910480F581E02DC801B701A20122E070
:1006D00030E00995B601C114D10439F602C080E0BA
:1006E00001C081E00F900F90CF91DF911F910F918A
:1006F000FF90EF90DF90CF90BF90AF909F908F9042
:100700007F906F905F904F9008952F923F924F92FD
:100710005F926F927F928F929F92AF92BF92CF9291
:10072000DF92EF92FF920F931F93DF93CF93CDB79A
:10073000DEB72C970FB6F894DEBF0FBECDBF4C01CD
:100740001B01CA018114910409F4ABC0D401ED91DD
:10075000FC911197208131813C872B874481558101
:100760005A87498716962D913D914D915C91199725
:100770002D833E834F8358875A96AD90BC905B97EC
:100780001A962D913D914D915C911D9756954795E7
:10079000379527953C832B835B961C921E925A9724
:1007A0003C012901CC24DD2454C0B2E0AB16B104D5
:1007B00028F0EB81FC81AE16BF0618F062E0A62E91
:1007C000B12CC501880F991F7C0100E010E02D813C
:1007D0003E814F815885E20EF31E041F151FC8018C
:1007E000B701AE014F5F5F4F22E030E0AB85BC85C3
:1007F000FD010995882309F454C089819A81892BC8
:1008000011F56114710421F4F401B38EA28E27C096
:10081000C114D10429F42FEF3FEF3A83298302C09A
:10082000DA82C982C801B701AE014F5F5F4F22E093
:1008300030E0A985BA85FD010995882371F10894F6
:100840006108710865010894410851080894A11CC9
:10085000B11C4114510409F0A8CF6728F1F4B2E0AB
:100860002B16310400F1C982DA82220C331CB1014B
:1008700080E090E02D813E814F815885620F731F8B
:10088000841F951FAE014F5F5F4F22E030E0A985C6
:10089000BA85FD010995882331F4C401B6010E948F
:1008A0000F03CC24DD24C6012C960FB6F894DEBFCE
:1008B0000FBECDBFCF91DF911F910F91FF90EF90B1
:1008C000DF90CF90BF90AF909F908F907F906F9070
:1008D0005F904F903F902F90089580E190E00895B1
:1008E000FC01009711F01182108208952F923F921F
:1008F0004F925F926F927F928F929F92AF92BF9230
:10090000CF92DF92EF92FF920F931F93DF93CF93DB
:10091000CDB7DEB72A970FB6F894DEBF0FBECDBFB6
:100920002C017A8369835C834B83009709F409C1A6
:10093000672B09F406C1452B09F403C1DC019D9620
:10094000AD90BD90CD90DC90D09795962D913D9136
:100950004D915C919897EB81FC81CF01A0E0B0E0D4
:100960008A0D9B1DAC1DBD1D281739074A075B0763
:1009700040F4B9016A197B097C836B83672B09F406
:10098000E3C0D201ED91FC91119720883188D19676
:10099000ED91FC91D297FA87E987EF2BF1F59396C9
:1009A0002D913C9194973A872987232B39F4A114F0
:1009B000B104C104D10409F4C7C0C3C0A114B10477
:1009C000C104D10451F186017501310188249924B3
:1009D00066277727CB0166197709880999096D83FE
:1009E0007E838F83988714C0D2018D919C916985F5
:1009F0007A850E94CF029A878987892B09F4A1C042
:100A00006D817E818F819885E60EF71E081F191F64
:100A1000E614F7040805190538F708942108310889
:100A2000A220B3200894211C311CCB80DC80D20191
:100A3000ED90FC90E114F10409F1E985FA85E230CA
:100A4000F105E0F03297BF0180E090E03296FA873E
:100A5000E987D70150962D913C91519740E050E0A5
:100A60000E94E81E9B01AC01F70182899389A48949
:100A7000B589280F391F4A1F5B1F04C020E030E0F2
:100A800040E050E081010A191B09C016D10608F4A4
:100A90008601D701ED91FC91C501A0E0B0E0280FDF
:100AA000391F4A1F5B1F0190F081E02DCA01B90177
:100AB00049815A8198010995882341F1C01AD10AC8
:100AC000C801A0E0B0E0F20125A536A547A550A9D0
:100AD000280F391F4A1F5B1FD2019D962D933D930E
:100AE0004D935C93D097C8018A0D9B1D8215930589
:100AF000A0F08D919C9169857A850E94CF029A879A
:100B00008987892B41F4F20112AA11AA4B815C81D9
:100B10004C195D091BC0AA24BB24E985FA85D201C2
:100B2000D296FC93EE93D197C114D10439F0298168
:100B30003A81200F311F3A83298379CF4B815C8121
:100B400005C04FEF5FEF02C040E050E0CA012A96B7
:100B50000FB6F894DEBF0FBECDBFCF91DF911F91CE
:100B60000F91FF90EF90DF90CF90BF90AF909F904C
:100B70008F907F906F905F904F903F902F9008954F
:100B8000FC01009711F0118210820895FC0100977A
:100B900011F480E0089583A194A196A785A710AAD7
:100BA00017A681E008957F928F929F92AF92BF9295
:100BB000CF92DF92EF92FF920F931F93DF93CF9329
:100BC000CDB7DEB72C970FB6F894DEBF0FBECDBF02
:100BD0006C015B01009709F453C06115710509F4BC
:100BE0004FC0DB019796ED90FD900D911C919A9767
:100BF000E114F1040105110509F442C04E01089405
:100C0000811C911CE5EE7E2ED601ED91FC910190A8
:100C1000F081E02DC801B701A4012CE030E0099576
:100C2000882371F17982D601ED91FC910480F581E0
:100C3000E02DC801B701A4012CE030E0099588231C
:100C4000F9F08C858F3049F480E290E0A0E0B0E0CC
:100C5000E80EF91E0A1F1B1FD7CFD50191966D9183
:100C60007C9192976115710539F0C6010E940F03BE
:100C700020E030E0882311F021E030E0822F01C035
:100C800080E02C960FB6F894DEBF0FBECDBFCF919B
:100C9000DF911F910F91FF90EF90DF90CF90BF9069
:100CA000AF909F908F907F900895FC01009729F45A
:100CB00020E030E040E050E014C062857385848518
:100CC0009585969587957795679562507040804099
:100CD00090402089318940E050E00E94E81E9B014D
:100CE000AC01B901CA0108952F923F924F925F92D1
:100CF0006F927F928F929F92AF92BF92CF92DF922C
:100D0000EF92FF920F931F93DF93CF93CDB7DEB790
:100D1000A6970FB6F894DEBF0FBECDBF9EA38DA3DE
:100D2000892B09F45DC01A82198280E290E09C83CD
:100D30008B83ADA1BEA116964D905D906D907C9079
:100D400019971A968D909D90AD90BC901D9734C0C8
:100D5000BEEF8B16BFEF9B06B0E0AB06B0E0BB0664
:100D600028F01EEF212E1FEF312E01C01401ADA17E
:100D7000BEA1ED91FC910280F381E02DC301B2018F
:100D8000AE014B5F5F4F20E230E08101BFE0EB2E10
:100D9000B7E0FB2E6E010894C11CD11C0995882375
:100DA000F9F0C101A0E0B0E0480E591E6A1E7B1E9A
:100DB000881A990AAA0ABB0A81149104A104B104F1
:100DC00039F6EDA1FEA16089718980E090E029816A
:100DD0003A8140E050E00E94E81E9B01AC0104C053
:100DE00020E030E040E050E0B901CA01A6960FB61D
:100DF000F894DEBF0FBECDBFCF91DF911F910F9151
:100E0000FF90EF90DF90CF90BF90AF909F908F902A
:100E10007F906F905F904F903F902F900895DC01EE
:100E2000F9014281538120E030E00DC08D919C9109
:100E30001197892B29F48081918101969183808378
:100E40002E5F3F4F12962417350780F381E00895F7
:100E500081E0089580E00895282F8FEF8EBD0DB4B6
:100E600007FEFDCF8DB58F778DBD8EB5822F806447
:100E70008EBD0DB407FEFDCF8DB58F778DBD872F4D
:100E80009927AA27BB278EBD0DB407FEFDCF8DB5D0
:100E90008F778DBDCB01AA27BB278EBD0DB407FE72
:100EA000FDCF8DB58F778DBDBB27A72F962F852FB3
:100EB0008EBD0DB407FEFDCF8DB58F778DBD4EBDB8
:100EC0000DB407FEFDCF8DB58F778DBD222319F0B0
:100ED000283069F406C085E98EBD0DB407FEFDCF4C
:100EE0000BC087E88EBD0DB407FEFDCF05C08FEFA8
:100EF0008EBD0DB407FEFDCF8DB58F778DBD90E013
:100F00002FEF2EBD0DB407FEFDCF8DB58F778DBDB4
:100F10008EB58F3F19F49F5F9A3099F70895FC01C1
:100F2000009711F480E00895108681E008958F9273
:100F30009F92AF92BF92CF92DF92EF92FF920F9368
:100F4000DF93CF93CDB7DEB760970FB6F894DEBFCF
:100F50000FBECDBF7C016B015A014901009709F416
:100F600093C06115710509F48FC004300CF08CC07A
:100F700007FD1DC0602F772767FD7095E4E0660FC1
:100F8000771FEA95E1F762547E4F882777FD8095B9
:100F9000982FAE014F5F5F4F20E130E0F7010995D8
:100FA000882309F471C08D81882309F46DC0809174
:100FB000E703882309F068C07CC08D818093E70334
:100FC0002A8530E040E050E0542F432F322F222773
:100FD0008B8590E0A0E0B0E0DC0199278827282BE2
:100FE000392B4A2B5B2B898590E0A0E0B0E0282BC1
:100FF000392B4A2B5B2B8C8590E0A0E0B0E0B82F1A
:10100000AA2799278827282B392B4A2B5B2B20933B
:10101000E8033093E9034093EA035093EB032E85F2
:1010200030E040E050E0542F432F322F22278F85AD
:1010300090E0A0E0B0E0DC0199278827282B392B2D
:101040004A2B5B2B8D8590E0A0E0B0E0282B392B5C
:101050004A2B5B2B888990E0A0E0B0E0B82FAA274C
:1010600099278827282B392B4A2B5B2B2093EC03BD
:101070003093ED034093EE035093EF0303C08FEFE3
:101080008093E7039F0102C020E030E0C901609631
:101090000FB6F894DEBF0FBECDBFCF91DF910F9199
:1010A000FF90EF90DF90CF90BF90AF909F908F9088
:1010B0000895EFEDF3E081E1DF011D928A95E9F7F4
:1010C000F092E003E092DF03D092E203C092E103EA
:1010D000B092E403A092E3039092E6038092E503CA
:1010E00007FF6BCFCCCFCF92DF92EF92FF920F939F
:1010F0001F93CF93DF93EC01009781F089E1FE010C
:1011000011928A95E9F72A988AE040E050E060E081
:1011100070E00E942C07882319F02A9A80E0F7C01B
:101120009FEF9EBD0DB407FEFDCF8DB58F778DBDB2
:101130008EB58E3FB1F71C2FCE01FC0160E670E04A
:101140000FEF9E2F911B0EBD0DB407FEFDCF8DB589
:101150008F778DBD2EB5983028F4933088F499237D
:1011600059F00CC09D3018F4993070F40BC09D30CC
:1011700019F19E3069F524C028832AC0208328C035
:10118000218326C02A8724C030E040E050E0062EAC
:1011900004C0220F331F441F551F0A94D2F78B85BA
:1011A0009C85AD85BE85822B932BA42BB52B8B877D
:1011B0009C87AD87BE870CC02295207F2F8708C0F3
:1011C000922F92959F708F85892B8F872F70288BF8
:1011D0003196685070408FEF603D780709F0B1CFCD
:1011E00089E040E050E060E070E00E942C07882336
:1011F00009F093CF9FEF9EBD0DB407FEFDCF8DB5D7
:101200008F778DBD8EB58E3FB1F7F0E070E020E0B6
:1012100030E040E050E060E01FEFE1E01EBD0DB4C3
:1012200007FEFDCF8DB58F778DBD8EB56E3079F40D
:1012300090E086FDED8B85FDEE8B84FDEF8B8C7051
:1012400090709595879595958795888F5AC067304A
:10125000F9F0683030F4653061F0663009F051C063
:101260000BC06930A1F1693010F16A3009F049C052
:1012700032C0F82FFF7045C090E0A0E0B0E083706E
:101280009070A070B0702227382F492F5A2F39C084
:1012900090E0A0E0B0E0282B392B4A2B5B2BA2E09A
:1012A000220F331F441F551FAA95D1F72AC08295DC
:1012B00086958695837090E0A0E0B0E0282B392BCE
:1012C0004A2B5B2B2F5F3F4F4F4F5F4F1AC0782F3A
:1012D0007370770F16C0881F8827881F782B8F2F71
:1012E00090E00296870F911D69017A0104C0CC0C31
:1012F000DD1CEE1CFF1C8A95D2F7C98ADA8AEB8ABC
:10130000FC8A6F5F623109F089CF2A9A81E0DF9110
:10131000CF911F910F91FF90EF90DF90CF900895A4
:10132000CF92DF92EF92FF920F931F93DF93CF93B1
:10133000CDB7DEB760970FB6F894DEBF0FBECDBF56
:101340008C016230710510F480E035C0009729F4FB
:1013500040E050E060E070E016C06250704080E015
:1013600090E0F8012089318940E050E00E94E81EB9
:10137000AB01BC01F80182899389A489B589480F22
:10138000591F6A1F7B1FDE01119680E1FD0111923A
:101390008A95E9F7F8018081918120893189FC01E2
:1013A000C680D780CB01BA01AD010DE614E0EE2472
:1013B000FF24F601099560960FB6F894DEBF0FBEC4
:1013C000CDBFCF91DF911F910F91FF90EF90DF90F4
:1013D000CF9008952F923F924F925F926F927F929B
:1013E0008F929F92AF92BF92CF92DF92EF92FF9235
:1013F0000F931F93DF93CF93CDB7DEB7AA970FB6A6
:10140000F894DEBF0FBECDBF4C01DB01009709F49D
:10141000B5C06115710509F4B1C0FC01608071802F
:10142000F30120883188FC01A5A4B6A427A530A922
:101430002215330508F07EC0AE014F5F5F4F86E096
:10144000FA0111928A95E9F78BE2FB0111928A95D4
:10145000E9F7A114B10409F074C0F30122883388BC
:1014600086899789281A390A6CC0720100E010E059
:10147000A114B10441F4D30156966D917D918D91E3
:101480009C91599724C061147104D9F0B2E0AB1655
:10149000B104B8F0F3012089318940E050E06FA138
:1014A00078A589A59AA50E94E81E9B01AC01F301CD
:1014B00082899389A489B589280F391F4A1F5B1F28
:1014C00004C020E030E040E050E0CA01B9016E0DF8
:1014D0007F1D801F911F1C821B82D301ED91FC9107
:1014E0008101041915090280F381E02DAE01495FE5
:1014F0005F4F20E230E0B8EDEB2EBAE0FB2E6E013C
:101500000894C11CD11C09958823C1F18B819C8151
:10151000480E591E4214530430F1C301B5010E9414
:10152000CF025C0120E030E0009769F48E818823CF
:10153000F1F4F40183A194A196A785A710AA17A698
:101540001DC0BA83A98329018EEF9FEFA80EB91E93
:10155000C501A0E0B0E08FA398A7A9A7BAA7A2E011
:10156000B0E0AA0EBB1E8E81882309F47ECFF40161
:10157000B6A6A5A650AA47A68E8101C080E0AA966D
:101580000FB6F894DEBF0FBECDBFCF91DF911F9194
:101590000F91FF90EF90DF90CF90BF90AF909F9012
:1015A0008F907F906F905F904F903F902F90089515
:1015B000CF92DF92EF92FF920F931F93CF93DF931F
:1015C0008C016A017B01A901D901CD91DC911197B0
:1015D00012968D919C911397809613969C938E935F
:1015E0001297F8019081953E11F0992321F4DA01C8
:1015F00014961C92C3C0F80183858F30E1F5D901A0
:1016000014969C91992319F08585981771F08BE2B7
:10161000FE0111928A95E9F7D8011D968C91FA0185
:101620008483CFA2D8A6E9A6FAA6D8018C9190E02F
:101630008F7390702DE030E0829FA001839F500D4A
:10164000929F500D11244D505040A6E1B1E0C40FBF
:10165000D51F0DC08D91F801E80FF11D8081899390
:101660004F5F5F4FE1E0A332BE0709F487C04F31FF
:10167000510580F383C088818823A1F0D901149695
:101680003C91F80121E0892F8695979599279795A8
:10169000982B8181980F2F5F31962B30A1F7391746
:1016A00009F457C08BE2FE0111928A95E9F7CFA2A7
:1016B000D8A6E9A6FAA6B801DE01780120E0F70174
:1016C00090819032A1F09C93F801848583FF08C03B
:1016D000F7018081813420F08B3510F4905E9C936B
:1016E0002F5F0894E11CF11C1196283041F7888186
:1016F000853011F485EE8883D80118968C9180325C
:1017000021F1FE01E20FF11D8EE28083322F3F5F57
:101710002C5FFB0190859032B9F0FE01E30FF11DC3
:101720009083D8011C968C9184FF09C0DB01189628
:101730008C91813420F08B3510F4905E90833F5F64
:101740006F5F7F4F321729F7232FFE01E20FF11D44
:101750001082F801838588A3828D938D9AA389A333
:10176000848D958DA68DB78D8BA39CA3ADA3BEA3B1
:1017700081E0DA0115968C9380E001C081E0DF9171
:10178000CF911F910F91FF90EF90DF90CF90089530
:101790002F923F924F925F926F927F928F929F9281
:1017A000AF92BF92CF92DF92EF92FF920F931F936F
:1017B000DF93CF93CDB7DEB7A8970FB6F894DEBF0F
:1017C0000FBECDBF98A78FA3009709F45CC1DC01C1
:1017D00014968D919C911597892B09F454C11696F6
:1017E0008D919C911797892B09F44DC168C1E8E24E
:1017F000F1E08CE1DF011D928A95E9F7EFA1F8A5F0
:10180000F0932901E0932801218432844384548495
:1018100059E0220C331C441C551C5A95D1F7C201C7
:10182000B101655F7F4F8F4F9F4F0190F081E02D99
:10183000AE014F5F5F4F29E130E00995882309F43D
:1018400045C1E981FA81FBA3EAA32C813D81FB819B
:10185000FCA34E818F8198859EA38DA3E985FA858F
:101860006C857D856E887F88888C998C6114710465
:101870008104910431F4309709F428C13F01882490
:1018800099246115710509F421C1C901A0E0B0E0F6
:101890008E8F9F8FA8A3B9A380E090E0242F30E023
:1018A00040E050E00E94E81E6A8F7B8F8C8F9D8FF6
:1018B000840173012E8D3F8D48A159A1E21AF30ACC
:1018C000040B150BE61AF70A080B190B8AA19BA14A
:1018D00001972DA13EA145E0220F331F4A95E1F764
:1018E000820F931F6AA17BA10E94071F80E090E0F6
:1018F000E61AF70A080B190B8CA1282F30E040E0FC
:1019000050E0C801B7010E942E1F79018A0195EFAE
:10191000E9169FE0F90690E0090790E0190708F43E
:10192000D5C0A5EFEA16AFEFFA06A0E00A07A0E0DF
:101930001A0728F486E0EFA1F8A5808705C08BE0A0
:10194000AFA1B8A518968C9388E1EAE2F1E0DF0137
:101950001D928A95E9F7EAA1FBA15F01CC24DD2461
:10196000C401B301A60195010E94E81E60932A01FB
:1019700070932B0180932C0190932D01C601B5012A
:101980002E8D3F8D48A159A10E94E81E260E371EBC
:10199000481E591E20922E0130922F014092300194
:1019A00050923101AFA1B8A518968C91863029F0DC
:1019B00064E070E080E090E004C062E070E080E00D
:1019C00090E022E030E040E050E0E20EF31E041F21
:1019D000151FA80197010E94E81E609332017093C1
:1019E000330180933401909335014AA15BA1509358
:1019F0003701409336015CA1852F90E0DC01EAA11C
:101A0000FBA1AE9FC001AF9F900DBE9F900D112412
:101A100090933901809338016A8D7B8D8C8D9D8DDB
:101A2000A60195010E94E81E20912E0130912F0100
:101A30004091300150913101620F731F841F951F37
:101A400060933E0170933F01809340019093410168
:101A5000ADA1BEA19D0140E050E015E0220F331F73
:101A6000441F551F1A95D1F7620F731F841F951FCE
:101A700060933A0170933B0180933C0190933D0148
:101A800028E231E002C020E030E0C901A8960FB69C
:101A9000F894DEBF0FBECDBFCF91DF911F910F91A4
:101AA000FF90EF90DF90CF90BF90AF909F908F907E
:101AB0007F906F905F904F903F902F90089580910E
:101AC000280190912901892BF1F691CE10922901DC
:101AD00010922801D8CF2F923F924F925F926F922F
:101AE0007F928F929F92AF92BF92CF92DF92EF92AE
:101AF000FF920F931F93CF93DF934B015C012A0159
:101B0000390133243A9422242394A1C0E401D170F2
:101B1000CE01A0E0B0E085017401E81AF90A0A0BD1
:101B20001B0BC12C62E0D62ECC1ADD0A6C147D048E
:101B300008F463018091D9039091DA03A091DB034B
:101B4000B091DC03E816F9060A071B07F9F00E94BA
:101B5000410E882309F481C0209729F480E0C8163B
:101B600082E0D80658F4C801B70149ED51E020E001
:101B700032E00E945B0E882309F46FC0E092D90323
:101B8000F092DA030093DB031093DC0389ED48162F
:101B900081E0580671F09E0127523E4FC901B20103
:101BA000A6010E94FB1B1092DD036C147D0409F456
:101BB00052C02A9888E1B801A7010E942C07882307
:101BC00011F02A9A4AC08EEF8EBD0DB407FEFDCFEC
:101BD0008DB58F778DBDE9EDF1E081918EBD0DB4AE
:101BE00007FEFDCF8DB58F778DBD83E0E93DF8070A
:101BF000A1F73EBC0DB407FEFDCF8DB58F778DBD2F
:101C00003EBC0DB407FEFDCF8DB58F778DBD3EBCBC
:101C10000DB407FEFDCF8DB58F778DBD8EB58F3F8F
:101C2000B1F78EBD0DB407FEFDCF8DB58F778DBD9D
:101C30008EB52A9A4C0C5D1CC601A0E0B0E0880E5F
:101C4000991EAA1EBB1E6C187D082092DD0361142C
:101C5000710409F05BCF81E001C080E0DF91CF919A
:101C60001F910F91FF90EF90DF90CF90BF90AF90BA
:101C70009F908F907F906F905F904F903F902F90AC
:101C800008958091DD03882311F081E0089560912B
:101C9000D9037091DA038091DB039091DC0349ED65
:101CA00051E020E032E00E946B0D882319F081E0C2
:101CB0008093DD0308953F924F925F926F927F92DF
:101CC0008F929F92AF92BF92CF92DF92EF92FF924C
:101CD0000F931F93CF93DF933B014C016A012901BE
:101CE00033243A948FC07FEFA72E71E0B72EA62041
:101CF000B720C501A0E0B0E084017301E81AF90A39
:101D00000A0B1B0BC0E0D2E0CA19DB094C165D06BA
:101D100008F4E2018091D9039091DA03A091DB03EA
:101D2000B091DC03E816F9060A071B0709F457C04F
:101D30000E94410E882309F46AC02A9881E1B80103
:101D4000A7010E942C07882319F02A9A80E05FC01F
:101D50003EBC0DB407FEFDCF8DB58F778DBD8EB522
:101D60008E3FB1F7E9EDF1E03EBC0DB407FEFDCFCB
:101D70008DB58F778DBD8EB5808383E0E83DF80704
:101D800011F03196F1CFE092D903F092DA0300938B
:101D9000DB031093DC03950127523E4FC601B901C6
:101DA000AE010E94FB1B3EBC0DB407FEFDCF8DB5FE
:101DB0008F778DBD8EB53EBC0DB407FEFDCF8DB5C2
:101DC0008F778DBD8EB52A9A3EBC0DB407FEFDCF30
:101DD000CC0EDD1E8DB58F778DBD8EB50AC09501F9
:101DE00027523E4FC601B901AE010E94FB1BCC0E2B
:101DF000DD1E4C1A5D0ACE01A0E0B0E0680E791E2F
:101E00008A1E9B1E4114510409F06DCF81E0DF91C1
:101E1000CF911F910F91FF90EF90DF90CF90BF90E7
:101E2000AF909F908F907F906F905F904F903F907A
:101E300008952F923F924F925F926F927F928F926E
:101E40009F92AF92BF92CF92DF92EF92FF920F9349
:101E50001F93DF93CF9300D000D0CDB7DEB74B01F7
:101E60005C013A013C832B832701DA82C982411548
:101E70005105A9F12115310591F10217130778F1E8
:101E8000E114F10461F11901309421943108339483
:101E9000021B130B6901EE24FF24C501B401A30149
:101EA0002B813C810E945B0E8823C9F0C301B501E0
:101EB000A40129813A81F2010995882391F0020D4C
:101EC000131D8B819C81800F911F2B813C81821778
:101ED000930738F08C0C9D1CAE1CBF1CDECF80E03D
:101EE00001C081E00F900F900F900F90CF91DF9184
:101EF0001F910F91FF90EF90DF90CF90BF90AF9028
:101F00009F908F907F906F905F904F903F902F9019
:101F100008950F931F93CF93DF93239A259A229AC4
:101F200024982A9A83E58CBD8DB58E7F8DBD109245
:101F3000DE0390E02FEF2EBD0DB407FEFDCF8DB573
:101F40008F778DBD8EB59F5F9A30A9F72A98C0E034
:101F5000D0E080E040E050E060E070E00E942C07BC
:101F6000182F813039F081E0CF3FD80709F440C005
:101F70002196EFCF87E340E050E060E070E00E9400
:101F80002C0789E240E050E060E070E00E942C07FE
:101F900082FD02C01093DE038091DE03082F10E063
:101FA00003701070C0E0D0E00115110549F087E31F
:101FB00040E050E060E070E00E942C0789E201C040
:101FC00081E040E050E060E070E00E942C0780FF7C
:101FD00006C08FE7CF3FD80759F02196E5CF80E1C3
:101FE00040E052E060E070E00E942C07882319F086
:101FF0002A9A80E022C02A9A8CB58C7F8CBD8DB540
:1020000081608DBD8FEF9FEFAFEFBFEF8093D9035E
:102010009093DA03A093DB03B093DC0381E0809319
:10202000DD0360E070E080E090E049ED51E020E009
:1020300032E00E945B0E811181E0DF91CF911F9110
:102040000F9108954F925F926F927F928F929F921D
:10205000AF92BF92CF92DF92EF92FF920F931F93B6
:10206000CF93DF935B016C014A01E901380127013D
:102070004115510571F10115110559F1FF24211583
:10208000310511F5FF24F3941FC0C401B601A50169
:102090009201F30109958C010097E9F0FF2019F4F2
:1020A000C817D907B0F0C601B501A40198010E9474
:1020B0006B0D882371F0C801A0E0B0E0A80EB91E36
:1020C000CA1EDB1EC01BD10BFF20F9F62097E9F6D4
:1020D00002C080E001C081E0DF91CF911F910F919C
:1020E000FF90EF90DF90CF90BF90AF909F908F9038
:1020F0007F906F905F904F900895CF93DF93AC01E6
:10210000DB01009789F16115710571F190968C9151
:10211000909784FF29C08091770190917801892B55
:1021200019F4E7E7F1E008C08091A8019091A901B6
:10213000892BD1F4E8EAF1E09F012E5F3F4FBD010A
:102140008BE2EB010990BE01E90109929E018150E9
:10215000C1F75183408391968D919C91929796A758
:1021600085A710AA17A602C0E0E0F0E0CF01DF913A
:10217000CF910895CF93DF939C01FB01009731F03D
:102180006115710519F080A184FF23C020E030E0C3
:10219000C901DF91CF910895C6E4D1E0DF018BE260
:1021A0000D9009928150E1F730934501209344014D
:1021B00010927101109272011092730110927401C9
:1021C00081A192A1909376018093750124E431E07E
:1021D000DFCF8091440190914501892BB9F6DCCF86
:1021E000EF92FF920F931F93CF93DF93EB018A013E
:1021F000790110C0C701B8010E94161C009751F464
:10220000209731F08BA19CA19EA78DA718AA1FA68D
:1022100081E006C0CE01B7010E94EA09882351F788
:10222000DF91CF911F910F91FF90EF900895EF9262
:10223000FF920F931F93DF93CF93CDB7DEB7AB978A
:102240000FB6F894DEBF0FBECDBF7C016091F403E2
:102250007091F5038091F0039091F103A7018E0135
:102260000F5F1F4F98010E94F010882361F080914A
:10227000F0039091F103B8010E94D305882319F06F
:1022800020E030E00CC08EEB90E00E94A502C70178
:102290000E9498028AE00E94A9012FEF3FEFC90136
:1022A000AB960FB6F894DEBF0FBECDBFCF91DF91D6
:1022B0001F910F91FF90EF900895EF92FF920F936F
:1022C0001F93DF93CF93CDB7DEB7AB970FB6F894DC
:1022D000DEBF0FBECDBF8C017E010894E11CF11C56
:1022E00097010E94F010882319F420E030E005C027
:1022F000C801B7010E94BA109C01C901AB960FB684
:10230000F894DEBF0FBECDBFCF91DF911F910F912B
:10231000FF90EF900895AF92BF92CF92DF92EF922D
:10232000FF920F931F93DF93CF93CDB7DEB728971C
:102330000FB6F894DEBF0FBECDBF8C018091F003C5
:102340009091F103009739F06091F4037091F503D7
:102350006115710559F48EEF90E00E94A50283EE9D
:1023600090E00E94A5022FEF3FEF35C0A8010E9428
:102370005D117C010097B1F484ED90E00E94A5020C
:10238000C8010E9498028AE00E94A9012EEF3FEF47
:1023900022C0F80181918F010E94A9010A151B0535
:1023A000C1F709C06E010894C11CD11CE9E0AE2E32
:1023B000B12CAC0EBD1EC701B60148E050E00E9432
:1023C00076041816190614F48601E3CFF70111827A
:1023D000108220E030E0C90128960FB6F894DEBFE5
:1023E0000FBECDBFCF91DF911F910F91FF90EF9066
:1023F000DF90CF90BF90AF9008952F923F924F9271
:102400005F926F927F928F929F92AF92BF92CF9284
:10241000DF92EF92FF920F931F93DF93CF9300D041
:102420000F92CDB7DEB71C019B01009709F4D2C013
:102430004115510509F4CEC0FA0101900020E9F7D9
:10244000E41BF50BCF010B966DE070E00E94071FB7
:10245000862F8F5F8B83D90193964D905C909497D4
:102460004114510451F0AA24BB246501EE24FF2439
:1024700087016624772443010BC0F101E688F788C1
:10248000008D118D62887388848895885701680152
:102490001A82E614F7040805190509F06EC0411404
:1024A000510409F497C0E114F1040105110589F103
:1024B000C101B2010E94CF02009751F5C101B201E2
:1024C00041E050E00E9485038C01009709F482C02E
:1024D00002501040B80180E090E00E5F1F4FD10124
:1024E00050962D913C91519740E050E00E94E81E9B
:1024F0005B016C01F10182899389A489B589A80ED9
:10250000B91ECA1EDB1EC101B8010E94900965C038
:102510002C01F2E04F16510420F4EE24FF24870131
:102520001DC02EEF3FEF420E531EB20180E090E03F
:10253000A2E0B0E04A0E5B1EF1012089318940E043
:1025400050E00E94E81E7B018C01F1018289938991
:10255000A489B589E80EF91E0A1F1B1FD1015096E8
:102560008D919C9151973C01882499246E0C7F1C7D
:10257000801E911E570168011A82D101ED91FC91D4
:102580000190F081E02DC801B701AE014F5F5F4FB0
:1025900021E030E009958823E9F08981853E11F03A
:1025A000882379F4BA81BF5FBA83EB81BE17A8F4A0
:1025B00080E290E0A0E0B0E0E80EF91E0A1F1B1FC9
:1025C00068CF80E290E0A0E0B0E0E80EF91E0A1FBC
:1025D0001B1F5CCFAA24BB246501B501C6010F9067
:1025E0000F900F90CF91DF911F910F91FF90EF907F
:1025F000DF90CF90BF90AF909F908F907F906F9023
:102600005F904F903F902F9008953F924F925F922E
:102610006F927F928F929F92AF92BF92CF92DF92F2
:10262000EF92FF920F931F93DF93CF93CDB7DEB757
:10263000A0970FB6F894DEBF0FBECDBFFC018B0193
:10264000009709F41FC16115710509F41BC10190C0
:10265000F081E02D44805580DB019796AD90BD90D0
:10266000CD90DC909A97E62E912EFB0101900020F0
:10267000E9F73197FE2EF61A8F2D90E00C966DE05B
:1026800070E00E941B1F762ECE01019660E270E082
:102690004BE050E00E94041CC8016EE270E00E9412
:1026A0003C1CFC010097E1F09C012F5F3F4F8181B2
:1026B0008823B1F0D9010D900020E9F71197A21BF2
:1026C000B30B8A2F8095F80EBE01675F7F4F4A2FAC
:1026D000A43008F043E0CB01B90150E00E94FB1B9D
:1026E000CE010196B8E0BF1588F06E2D792D4F2DE3
:1026F00050E00E94FB1BF80180818E3231F5818110
:102700008E3209F482818823F9F01FC0DC018E2DFE
:10271000992D9C01F90188E001900D928150E1F71B
:10272000D80191968C91982F92959F70803A10F4D1
:10273000905D01C09F598F708A3010F4805D01C098
:102740008F599F83888701C077248981853E11F442
:1027500085E089838CE0882E912C8C0E9D1E85E16E
:10276000F40111928A95E9F7D80190968C9190978F
:102770008C8791968D919C9192979C8F8B8F93963D
:102780008D919D910D90BC91A02D8D8F9E8FAF8FBF
:10279000B8A3672D70E0B5E0660F771FBA95E1F733
:1027A00080E090E06A0D7B1D8C1D9D1DAE014F5F8A
:1027B0005F4F20E230E0F2010995882309F462C0FE
:1027C000E980FE01329694018E2D8695E794EE24E1
:1027D000E794E82A8191E80EE217F307A9F7F72CAE
:1027E0004E010894811C911CADE03A2EFFE06F2E43
:1027F00044C0C4016FEF70E040E250E00E94041C4E
:10280000F39CD00111241D97A00FB11F91E0F4019A
:10281000E90FF11D8C918083892F8F5FF401E80F00
:10282000F11D10829E5F9B3019F09A3121F402C095
:102830009EE001C09CE18C91882321F09F3110F42F
:102840001196E5CFF982F71419F48F2D80648983EE
:102850006C86EE861D861B8E1C8EC601B501A401FA
:1028600020E230E0F201099580E290E0A0E0B0E0E3
:10287000A80EB91ECA1EDB1EFA94FF2009F0B9CFBC
:1028800081E001C080E0A0960FB6F894DEBF0FBED5
:10289000CDBFCF91DF911F910F91FF90EF90DF900F
:1028A000CF90BF90AF909F908F907F906F905F90F0
:1028B0004F903F9008957F928F929F92AF92BF92D8
:1028C000CF92DF92EF92FF920F931F93CF93DF93FC
:1028D0006C015B01EA01009709F49DC06115710567
:1028E00009F499C0FB018081882309F494C0411543
:1028F000510581F490C0C501682D772D0E94161CEA
:10290000009751F4F60183A194A196A785A710AA78
:1029100017A681C0842E7D2EC601BE010E94EA0941
:10292000882349F7F601E080F180C70160E070E09C
:1029300041E050E00E9485038C01009709F46BC0D0
:10294000C701B8010E9490098BE2FE0111928A959D
:10295000E9F780E188A302501040B80180E090E0E0
:102960000E5F1F4FF7012089318940E050E00E943F
:10297000E81EF7012289338944895589260F371FBC
:10298000481F591F2FA338A749A75AA79EE2992E7F
:1029900098821AA309A3C701BE010E9405138823C8
:1029A000B1F18FA198A5A9A5BAA58096A11DB11DC9
:1029B0008FA398A7A9A7BAA79982F60183A194A18A
:1029C0009AA389A3C701BE010E9405138823F9F0C9
:1029D000882D972DB5014FE150E00E942D1C1AA3C0
:1029E00009A3C701B601AE010E94FD116FA378A72C
:1029F00089A79AA7611571058105910541F0C70165
:102A0000BE010E940513882311F081E005C0C701B3
:102A1000B8010E940F0380E0DF91CF911F910F91C9
:102A2000FF90EF90DF90CF90BF90AF909F908F90EE
:102A30007F900895AF92BF92CF92DF92EF92FF9274
:102A40000F931F93CF93DF938C017B01EA010097D3
:102A500009F448C06115710509F444C0FB01808187
:102A6000882309F43FC041155105E1F1B42EAD2E84
:102A7000C801BE010E94EA09882379F0C7016B2DC5
:102A80007A2D0E94161C009799F7F80183A194A152
:102A900096A785A710AA17A625C0F801C080D180E7
:102AA0008BE2FE0111928A95E9F78B2D9A2DB701E1
:102AB0004FE150E00E942D1CC601B801AE010E94FA
:102AC000FD116FA378A789A79AA7611571058105E4
:102AD000910541F0C601BE010E940513882319F03B
:102AE00081E001C080E0DF91CF911F910F91FF90B5
:102AF000EF90DF90CF90BF90AF9008950F931F930A
:102B0000DF93CF93CDB7DEB7AB970FB6F894DEBFA8
:102B10000FBECDBF8C018091F4039091F503B801F5
:102B2000AE014F5F5F4F0E941A15882319F020E015
:102B300030E00CC088E092E00E94A502C8010E942B
:102B400098028AE00E94A9012FEF3FEFC901AB96DE
:102B50000FB6F894DEBF0FBECDBFCF91DF911F91AE
:102B60000F9108954F925F926F927F928F929F92F2
:102B7000AF92BF92CF92DF92EF92FF920F931F938B
:102B8000DF93CF93CDB7DEB72A970FB6F894DEBFA9
:102B90000FBECDBF2C015A016B01009709F4E5C0AF
:102BA000DC0193960D911C919497ED91FC912089F5
:102BB00031890115110599F0AB82BC82CD82DE828C
:102BC00039018824992422273327A9012619370996
:102BD000480959092F83388749875A8720C04115EA
:102BE00051056105710509F4A9C0E6CFD2018D91A7
:102BF0009C91B8010E94CF020097D9F0EB80FC8035
:102C00000D811E812F81388549855A85E20EF31E7C
:102C1000041F151FEB82FC820D831E838C018B81A8
:102C20009C81AD81BE81681679068A069B06F0F20A
:102C3000B4C078016B817C818D819E81660D771D8A
:102C4000881D991D6150704080409040A4019301FF
:102C50000E942E1FD2018D919C91B801A9010E9462
:102C60008503009709F481C0012B21F4F20194A39C
:102C700083A37C01D2019596AD92BD92CD92DC9258
:102C80009897A114B104C104D10421F494961C9224
:102C90001E929397F20181919191BF010E940513B9
:102CA000882309F462C0A114B104C104D10429F439
:102CB000F20180819181B7013FC00B811C812D8180
:102CC0003E816016710682069306C0F1D2010D9115
:102CD0001C910115110591F1B2E0EB16F10470F1B0
:102CE000C801B7010E94CF024C018FEF9FEF9A837A
:102CF0008983D801ED91FC911197EE0CFF1CB7016F
:102D000080E090E016962D913D914D915C91199740
:102D1000620F731F841F951F0480F581E02DAE01A3
:102D20004F5F5F4F22E030E00995882339F081142E
:102D3000910421F0C801B4010E940F03F20185A59E
:102D400096A5A7A5B0A9A816B906CA06DB0658F429
:102D5000D2019D96AD92BD92CD92DC92D097D29643
:102D60001C921E92D19781E001C080E02A960FB696
:102D7000F894DEBF0FBECDBFCF91DF911F910F91B1
:102D8000FF90EF90DF90CF90BF90AF909F908F908B
:102D90007F906F905F904F90089578010115110515
:102DA00009F448CF67CFCF92DF92EF92FF920F9353
:102DB0001F93CF93DF93EC016B01009709F445C09B
:102DC0006115710509F441C08DA59EA5AFA5B8A9EF
:102DD000413059F0413018F04230B9F50CC0FB01D8
:102DE000E080F1800281138113C0FB01E080F1805B
:102DF0000281138109C0FB01E080F180028113810F
:102E00008DA19EA1AFA1B8A5E80EF91E0A1F1B1F38
:102E10008DA19EA1AFA1B8A58E159F05A007B107F2
:102E200038F4CE01B801A7010E94B215882369F0D9
:102E3000EDA6FEA60FA718AB1AAA19AAF601E08202
:102E4000F1820283138381E001C080E0DF91CF91A2
:102E50001F910F91FF90EF90DF90CF9008952F92E8
:102E60003F924F925F926F927F928F929F92AF921A
:102E7000BF92CF92DF92EF92FF920F931F93DF9357
:102E8000CF9300D000D000D0CDB7DEB79E838D8326
:102E90007A8369835C834B83009709F441C1672B74
:102EA00009F43EC1452B09F43BC1DC019D968D9090
:102EB0009D90AD90BC90D097FC0185A196A1A7A153
:102EC000B0A588159905AA05BB0508F429C101908C
:102ED000F081E02D20883188AD81BE81D1960D91A1
:102EE0001C91D2970115110509F055C093960D91CB
:102EF0001C91949701151105A9F481149104A10462
:102F0000B10409F00DC1CF0160E070E041E050E094
:102F10000E9485038C01ED81FE8194A383A3009719
:102F200009F4FEC0AD81BE819D96CD90DD90ED90FF
:102F3000FC90D097C114D104E104F10421F52BC019
:102F4000C418D508E608F708ED81FE8180819181DB
:102F5000B8010E94CF02009711F08C0117C0C11474
:102F6000D104E104F10409F0DBC0AD81BE818D9193
:102F70009C91B80141E050E00E948503009709F45C
:102F8000CFC08C0103C0210166247724C414D5046A
:102F9000E604F704A8F6089421083108822093205B
:102FA0000894211C311CAB80BC80ED81FE81C08067
:102FB000D180C114D104F9F002301105E0F00250C3
:102FC0001040B80180E090E00E5F1F4FD601509690
:102FD0002D913C91519740E050E00E94E81E9B01EA
:102FE000AC01F60182899389A489B589280F391F1C
:102FF0004A1F5B1F04C020E030E040E050E0710158
:10300000E818F908AE14BF0408F47501D601ED9173
:10301000FC91C401A0E0B0E0280F391F4A1F5B1FDC
:103020000480F581E02DCA01B90149815A819701D7
:103030000995882309F448C0AE18BF08C701A0E06D
:10304000B0E0ED81FE8125A536A547A550A9280F42
:10305000391F4A1F5B1F25A736A747A750ABC701DB
:10306000880D991D8215930508F180819181B80121
:103070000E94CF02009711F08C0116C0A114B10478
:1030800059F0ED81FE8180819181B80141E050E0ED
:103090000E948503009739F4AD81BE81D2961C92BF
:1030A0001E92D19711C08C0188249924ED81FE8154
:1030B00012AB01ABA114B10439F089819A818E0D54
:1030C0009F1D9A83898371CFED81FE8185A596A589
:1030D000A7A5B0A9E5A0F6A007A110A5E816F906D6
:1030E0000A071B07C0F485A396A3A7A3B0A78191E5
:1030F0009191BF010E940513882369F4AD81BE81BF
:103100009D96AD90BC909E97AE18BF08FD01E5A6B8
:10311000F6A607A710AB4B815C814A195B0902C078
:103120004FEF5FEFCA0126960FB6F894DEBF0FBED1
:10313000CDBFCF91DF911F910F91FF90EF90DF9066
:10314000CF90BF90AF909F908F907F906F905F9047
:103150004F903F902F900895CF92DF92EF92FF9281
:103160000F931F93CF93DF938C016B017A018091B2
:10317000F0039091F103009739F06091F40370919E
:10318000F5036115710559F482E791E00E94A502EB
:1031900088E591E00E94A5022FEF3FEF52C0A80101
:1031A0000E945D11EC01009769F489E491E00E94AE
:1031B000A502C8010E9498028AE00E94A9012EEF90
:1031C0003FEF3FC064E271E040E00E94D3168823E5
:1031D00061F487E391E00E94A5028AE00E94A901C0
:1031E000198218822DEF3FEF2CC0CE01B601A70146
:1031F0000E942F178E159F0539F080E291E00E9402
:10320000A5022CEF3FEF1DC09C01442737FD4095E0
:10321000542F8091240190912501A0912601B09115
:103220002701820F931FA41FB51F80932401909341
:103230002501A0932601B09327011982188220E06E
:1032400030E0C901DF91CF911F910F91FF90EF9076
:10325000DF90CF9008956F927F928F929F92AF925E
:10326000BF92CF92DF92EF92FF920F931F93CF9373
:10327000DF934C01EB017A01009709F467C06115F7
:10328000710509F463C08881882309F45FC0411582
:10329000510509F45BC08F3209F421968BE2F701E6
:1032A00011928A95E9F780E1F70180A3370101C007
:1032B000E5018881882309F44BC0C401B7010E944D
:1032C0007D106C01009709F441C0CE016FE270E0FF
:1032D0000E940B1C009739F0482F4C1B5C0108948E
:1032E000A11CB11C2AC0FE0101900020E9F7319712
:1032F0004E2F4C1B5E01A40EB11C1FC0F3010190A8
:103300000020E9F73197E619F709E017F107B9F45A
:10331000CE01B301A8010E941F1C009781F4F601A1
:10332000118210820C0F1D1FF8018081882381F00B
:10333000F70180A184FDBCCF09C0042F10E0C601B5
:10334000B7010E94EA098823C9F612C080E001C0D3
:1033500081E0DF91CF911F910F91FF90EF90DF906F
:10336000CF90BF90AF909F908F907F906F90089577
:10337000F601118210829DCFEF92FF920F931F935F
:10338000DF93CF93CDB7DEB7C454D0400FB6F894D7
:10339000DEBF0FBECDBF83B7817F83BF4AE1E42E7E
:1033A000F12CEC0EFD1E0E94890F882319F482E790
:1033B00092E048C08BE59EE069E17FE04BE65DE08E
:1033C00022E230E100E00E9497079093F30380939C
:1033D000F203892BA1F48BE59EE069E17FE04BE6E7
:1033E0005DE022E230E10FEF0E9497079093F30334
:1033F0008093F203892B19F488E592E023C0809131
:10340000F2039091F3030E94C80B9093F103809311
:10341000F003009719F48DE392E014C060E071E0CE
:10342000A7010E942B198091F0039091F103B7013D
:103430000E947D109093F5038093F403892B29F467
:103440008EE192E00E94A502AECF0091F0031091B0
:10345000F1030115110509F4A1C0CE0101960E94E6
:103460007308882309F49AC080EF92E00E94A502B5
:1034700089810E94B8018AE00E94A90187EE92E04A
:103480000E94A502CE0102960E9498028AE00E9444
:10349000A9018EED92E00E94A502CE0105960E9440
:1034A00098028AE00E94A90185ED92E00E94A5029F
:1034B0008B850E94B8018AE00E94A9018AEC92E003
:1034C0000E94A5026C857D858E859F850E94DE0108
:1034D0008AE00E94A90181EC92E00E94A5028989FC
:1034E00090E00E94F1018FE20E94A901888990E09A
:1034F0000E94F1018AE00E94A90188EB92E00E94FB
:10350000A5026A897B898C899D8934E19695879586
:10351000779567953A95D1F70E942F0284EB92E058
:103520000E94A5028BEA92E00E94A5028E8990E09B
:103530000E94F1018AE00E94A90182EA92E00E94C1
:10354000A502888D90E00E94F1018FE20E94A901FE
:103550008F8990E00E94F1018AE00E94A90189E927
:1035600092E00E94A502898D90E00E94F1018AE01C
:103570000E94A90180E992E00E94A502C8010E9470
:1035800074060E942F028FE20E94A901C8010E94C6
:1035900055060E942F028AE00E94A90180E090E077
:1035A000CC5BDF4F0FB6F894DEBF0FBECDBFCF911F
:1035B000DF911F910F91FF90EF900895CF92DF92CE
:1035C000EF92FF920F931F93DF93CF93CDB7DEB7A8
:1035D00028970FB6F894DEBF0FBECDBF8C016B01EC
:1035E0008091F0039091F103009739F06091F4031A
:1035F0007091F5036115710559F486EE91E00E9412
:10360000A5028CEC91E00E94A5022FEF3FEF72C063
:10361000A8010E945D117C01009769F48DEB91E097
:103620000E94A502C8010E9498028AE00E94A90196
:103630002EEF3FEF5FC064E271E040E00E94D316DE
:10364000882369F48BEA91E00E94A5028AE00E9437
:10365000A901D7011D921C922DEF3FEF4BC000D066
:1036600000D000D0EDB7FEB731968E010F5F1F4F2F
:10367000ADB7BEB712961C930E93119782E091E0FE
:1036800093838283D582C4820E94471CD82EEDB7D3
:10369000FEB736960FB6F894FEBF0FBEEDBFC7015A
:1036A000B8014D2D50E00E942F172D2D30E08217CC
:1036B000930739F084E991E00E94A5022CEF3FEFD7
:1036C00019C08091240190912501A0912601B0910B
:1036D00027018D0D911DA11DB11D80932401909393
:1036E0002501A0932601B0932701D7011D921C92BA
:1036F00020E030E0C90128960FB6F894DEBF0FBE77
:10370000CDBFCF91DF911F910F91FF90EF90DF9090
:10371000CF900895EF92FF920F931F93CF93DF9373
:1037200080917A00876080937A0080917C008093FA
:103730007C0080917C00806480937C0080917C0080
:1037400080937C0080917A00806280937A008091DF
:103750007A00806880937A0080917A0080648093F8
:103760007A001092C50087E68093C40086E08093BB
:10377000C20088E98093C1008AEA90E00E94A50215
:103780000E94BC198FE890E00E94A50288E091E0B9
:103790000E94171182E790E00E94A5028FEF8AB97C
:1037A00087EC8BB988E091E00E947E15892BD1F7D8
:1037B0005FE3E52E5DE0F52E53E0052F112D6091BE
:1037C000780070E080917900D82FC0E06C2B7D2BC1
:1037D00088E091E00E94DE1AD801C7010197A10993
:1037E000B109000001F0D1F7C895000088E690E02B
:1037F0000E94A502E4CFFB01DC0102C001900D9202
:1038000041505040D8F70895DC0101C06D934150FC
:103810005040E0F70895FC018191861721F088233C
:10382000D9F7992708953197CF010895FB01DC015D
:103830008D91019080190110D9F3990B0895FB0126
:10384000DC014150504030F08D910190801919F405
:103850000020B9F7881B990B0895FB01DC0141504A
:10386000504048F001900D920020C9F701C01D9210
:1038700041505040E0F70895FC0181E090E0019054
:10388000061609F4CF010020D1F701970895AEE0A4
:10389000B0E0EDE4FCE10C945E1F0D891E8986E02A
:1038A0008C831A8309838FEF9FE79E838D839E010C
:1038B000275E3F4FCE0101966F89788DA9010E9446
:1038C0006B1C2F813885020F131FF80110822E9672
:1038D000E4E00C947A1FABE0B0E0E1E7FCE10C948B
:1038E000501F3C012B015A01FC0117821682838173
:1038F00081FD03C06FEF7FEFC6C19AE0892E1E01E4
:103900000894211C311CF3012381F20123FD8591D0
:1039100023FF81912F01882309F4B2C1853239F444
:1039200023FD859123FF81912F01853229F490E0B9
:10393000B3010E945E1EE7CF982FFF24EE24992446
:10394000FFE1FF15D0F09B3269F09C3228F49032F1
:1039500059F0933291F40EC09D3249F0903369F4DE
:1039600041E024C052E0F52A84E0F82A28C098E01B
:10397000F92A25C0E0E1FE2A22C0F7FC29C0892FE0
:1039800080538A3070F4F6FE05C0989C902C112468
:10399000980E15C0E89CE02C1124E80EF0E2FF2AF6
:1039A0000EC09E3229F4F6FC6BC140E4F42A07C035
:1039B0009C3619F450E8F52A02C0983649F4F20111
:1039C00023FD959123FF91912F01992309F0B8CF01
:1039D000892F8554833018F08052833038F444E0C6
:1039E00050E0A40EB51E5FE359830FC0933631F04B
:1039F000933779F0933509F056C020C0F5018081E6
:103A0000898342E050E0A40EB51E610101E010E0A0
:103A100012C0F501C080D180F6FC03C06FEF7FEFCC
:103A200002C0692D70E042E050E0A40EB51EC60150
:103A30000E94531E8C015FE7F52214C0F501C0807F
:103A4000D180F6FC03C06FEF7FEF02C0692D70E0FC
:103A500042E050E0A40EB51EC6010E94481E8C0133
:103A600050E8F52AF3FE07C01AC080E290E0B301E7
:103A70000E945E1EEA948E2D90E008171907A8F3A5
:103A80000EC0F601F7FC8591F7FE81916F0190E081
:103A9000B3010E945E1EE110EA940150104001152E
:103AA000110579F7EAC0943611F0993669F5F7FEF9
:103AB00008C0F501208131814281538184E090E08A
:103AC0000AC0F501808191819C01442737FD409512
:103AD000542F82E090E0A80EB91E9FE6F92257FF0E
:103AE00009C050954095309521953F4F4F4F5F4FFE
:103AF000E0E8FE2ACA01B901A1012AE030E00E94F3
:103B00008A1ED82ED21840C0953729F41F2D1F7E4B
:103B10002AE030E01DC01F2D197F9F3661F09037DD
:103B200020F4983509F0ACC00FC0903739F09837C1
:103B300009F0A6C004C028E030E00AC0106114FDFE
:103B4000146020E130E004C014FD166020E132E092
:103B500017FF08C0F501608171818281938144E083
:103B600050E008C0F50180819181BC0180E090E0C7
:103B700042E050E0A40EB51EA1010E948A1ED82E7C
:103B8000D2188FE7F82EF122F6FE0BC05EEFF52279
:103B9000D91438F4F4FE07C0F2FC05C08FEEF82209
:103BA00002C01D2D01C0192DF4FE0DC0FE01ED0D4A
:103BB000F11D8081803319F499EEF92208C01F5F4E
:103BC000F2FE05C003C08F2D867809F01F5F0F2D10
:103BD000F3FC14C0F0FE0FC01E1510F09D2C0BC09E
:103BE0009D2C9E0C911A1E2D06C080E290E0B30120
:103BF0000E945E1E1F5F1E15C0F304C01E1510F448
:103C0000E11A01C0EE2404FF0FC080E390E0B3018D
:103C10000E945E1E02FF1DC001FD03C088E790E008
:103C20000EC088E590E00BC0802F867891F001FFF0
:103C300002C08BE201C080E2F7FC8DE290E0B301AC
:103C40000E945E1E06C080E390E0B3010E945E1EEB
:103C50009A94D914C0F3DA94F101ED0DF11D80812D
:103C600090E0B3010E945E1EDD20A9F706C080E24D
:103C700090E0B3010E945E1EEA94EE20C1F743CEAD
:103C8000F30166817781CB012B96E2E10C946C1FE6
:103C9000FC010590615070400110D8F78095909517
:103CA0008E0F9F1F0895FC0161507040019001101C
:103CB000D8F7809590958E0F9F1F08950F931F93AF
:103CC000CF93DF938C01EB018B8181FF1BC082FFBF
:103CD0000DC02E813F818C819D812817390764F4A6
:103CE000E881F9810193F983E88306C0E885F985C5
:103CF000802F0995892B31F48E819F8101969F83B6
:103D00008E8302C00FEF1FEFC801DF91CF911F918B
:103D10000F910895FA01AA27283051F1203181F13D
:103D2000E8946F936E7F6E5F7F4F8F4F9F4FAF4FC3
:103D3000B1E03ED0B4E03CD0670F781F891F9A1FD6
:103D4000A11D680F791F8A1F911DA11D6A0F711D8A
:103D5000811D911DA11D20D009F468943F912AE096
:103D6000269F11243019305D3193DEF6CF0108957E
:103D7000462F4770405D4193B3E00FD0C9F7F6CFAF
:103D8000462F4F70405D4A3318F0495D31FD405277
:103D9000419302D0A9F7EACFB4E0A695979587950D
:103DA00077956795BA95C9F70097610571050895EC
:103DB0009B01AC010A2E0694579547953795279598
:103DC000BA95C9F7620F731F841F951FA01D089530
:103DD000629FD001739FF001829FE00DF11D649FEF
:103DE000E00DF11D929FF00D839FF00D749FF00D7B
:103DF000659FF00D9927729FB00DE11DF91F639F1C
:103E0000B00DE11DF91FBD01CF0111240895AA1BBA
:103E1000BB1B51E107C0AA1FBB1FA617B70710F0B5
:103E2000A61BB70B881F991F5A95A9F780959095E7
:103E3000BC01CD01089597FB092E07260AD077FD16
:103E400004D0E5DF06D000201AF4709561957F4F0D
:103E50000895F6F7909581959F4F0895A1E21A2E47
:103E6000AA1BBB1BFD010DC0AA1FBB1FEE1FFF1F1E
:103E7000A217B307E407F50720F0A21BB30BE40B6E
:103E8000F50B661F771F881F991F1A9469F76095B5
:103E90007095809590959B01AC01BD01CF0108956F
:103EA0002F923F924F925F926F927F928F929F924A
:103EB000AF92BF92CF92DF92EF92FF920F931F9338
:103EC000CF93DF93CDB7DEB7CA1BDB0B0FB6F894E9
:103ED000DEBF0FBECDBF09942A88398848885F8429
:103EE0006E847D848C849B84AA84B984C884DF809A
:103EF000EE80FD800C811B81AA81B981CE0FD11D7E
:103F00000FB6F894DEBF0FBECDBFED010895F89453
:023F1000FFCFE1
:103F12002F00253033642000766962726174696F04
:103F22006E2E7478740001030507090E1012141620
:043F3200181C1E0039
:00000001FF
