:100000000C9434000C9449000C9449000C94490061
:100010000C9449000C9449000C9449000C9449003C
:100020000C9449000C9449000C9449000C9449002C
:100030000C9449000C9449000C9449000C9449001C
:100040000C9449000C9449000C9449000C9449000C
:100050000C9449000C9449000C9449000C944900FC
:100060000C9449000C94490011241FBECFEFD8E036
:10007000DEBFCDBF11E0A0E0B1E0E2ECF3E002C0F2
:1000800005900D92A831B107D9F70E9465010C9433
:10009000DF010C940000662311F0429A01C04298DF
:1000A0004198549A559A569A579A5F985E985D98D7
:1000B0005C9887FD5F9A86FD5E9A85FD5D9A84FD5A
:1000C0005C9A439A00C043985F985E985D985C98EC
:1000D00083FD5F9A82FD5E9A81FD5D9A80FD5C9A48
:1000E000439A00C043985C9A5D9A5E9A5F9A08951D
:1000F000882311F0429A01C04298419A5498559829
:1001000056985798439A00C04C9B02C080E101C0AA
:1001100080E04D9980624E9980644F998068439841
:1001200000C0439A00C04C9981604D9982604E99FD
:1001300084604F9988604398089580E00E94780019
:1001400087FDFBCF82E090E00197F1F780E00E940D
:10015000780008951F93182F0E949D00812F60E062
:100160000E944B001F9108951F93182F0E949D001D
:10017000812F61E00E944B001F910895662311F4C6
:10018000805801C080540E94AA0008950E949D00DA
:1001900090E0089581E00E94AA00089582E00E9404
:1001A000AA0008951F93182F0E949D001A3049F449
:1001B000803410F080E001C080E480580E94AA00E2
:1001C00004C0812F61E00E944B001F910895CF93DE
:1001D000DF93EC0102C00E94D20089918823D9F7F5
:1001E000DF91CF910895CF93DF93EC0102C00E947D
:1001F000D200FE01219684918823C9F7DF91CF9127
:1002000008951F93182F3A9A399A3B9A549A559AFF
:10021000569A579A80E89EE30197F1F75D9A5C9AA7
:10022000439A00C0439880E893E10197F1F7439A1D
:1002300000C0439880E490E0FC013197F1F7439AC5
:1002400000C04398FC013197F1F75C98439A00C0D5
:1002500043980197F1F788E20E94AA0088E00E9483
:10026000AA000E94CA0086E00E94AA00812F0E9474
:10027000AA001F910895ACE7B0E080E48C93EAE710
:10028000F0E08081876080838C9180628C93808194
:1002900080688083089590917C008870892B80937A
:1002A0007C0080917A00806480937A0080917A004B
:1002B00084FFFCCF80917A00806180937A00209146
:1002C000780030917900C90108958F929F92AF9282
:1002D000BF92CF92DF92EF92FF920F931F9381E034
:1002E0008AB98BB98CE00E9401010E94CA0080E4A7
:1002F00080937C0080917A00876080937A0080915F
:100300007C00806280937C0080917A00806880937A
:100310007A004FE7842E46E9942E48E9A42EB12CAA
:100320003FEFC32E38E0D32E3DE3E32EF12C80E0E7
:1003300091E00E94E70080E061E00E94BE0088E05A
:1003400091E00E94E70080917C0080937C00809186
:100350007A00806480937A0080917A0084FFFCCFD9
:1003600080917A00806180937A00009178001091EA
:10037000790084E061E00E94BE00C80196958795EF
:100380000E94F300D501C4010197A109B109000041
:1003900001F0D1F7C89500000E94CA008EE091E0FC
:1003A0000E94E700D701C6010197A109B109000029
:1003B00001F0D1F7C89500000E94CA00B8CFF894A8
:0203C000FFCF6D
:1003C20043757272656E740054656D703D005468B9
:0803D200616E6B796F7500008C
:00000001FF
