:100000000C9434000C9449000C9449000C94490061
:100010000C9449000C9449000C9449000C9449003C
:100020000C9449000C9449000C9449000C9449002C
:100030000C9449000C9449000C9449000C9449001C
:100040000C9449000C9449000C9449000C9449000C
:100050000C9449000C9449000C9449000C944900FC
:100060000C9449000C94490011241FBECFEFD8E036
:10007000DEBFCDBF11E0A0E0B1E0EEEAFCE002C0DF
:1000800005900D92AC31B107D9F70E9443020C9450
:1000900055060C940000662311F0439A01C0439862
:1000A0004198529A539A549A559A5D985C985B98E5
:1000B0005A9887FD5D9A86FD5C9A85FD5B9A84FD62
:1000C0005A9A429A00C042985D985C985B985A98F8
:1000D00083FD5D9A82FD5C9A81FD5B9A80FD5A9A50
:1000E000429A00C042985A9A5B9A5C9A5D9A089527
:1000F000882311F0439A01C04398419A529853982B
:1001000054985598429A00C04A9B02C080E101C0B1
:1001100080E04B9980624C9980644D998068429848
:1001200000C0429A00C04A9981604B9982604C9904
:1001300084604D9988604298089580E00E9478001C
:1001400087FDFBCF88E090E00197F1F780E00E9407
:10015000780008951F93182F0E949D00812F60E062
:100160000E944B001F9108951F93182F0E949D001D
:10017000812F61E00E944B001F910895662311F4C6
:10018000805801C080540E94AA0008950E949D00DA
:1001900090E0089581E00E94AA00089582E00E9404
:1001A000AA0008951F93182F0E949D001A3049F449
:1001B000803410F080E001C080E480580E94AA00E2
:1001C00004C0812F61E00E944B001F910895CF93DE
:1001D000DF93EC0102C00E94D20089918823D9F7F5
:1001E000DF91CF910895CF93DF93EC0102C00E947D
:1001F000D200FE01219684918823C9F7DF91CF9127
:1002000008951F93182F3B9A399A3A9A529A539A03
:10021000549A559A80E09AEF0197F1F75B9A5A9AAF
:10022000429A00C0429880E09EE40197F1F7429A1A
:1002300000C0429880E091E0FC013197F1F7429ACA
:1002400000C04298FC013197F1F75A98429A00C0D9
:1002500042980197F1F788E20E94AA0088E00E9484
:10026000AA000E94CA0086E00E94AA00812F0E9474
:10027000AA001F9108951092B90088E48093B800F5
:100280000895982F84EA8093BC008091BC0087FF7A
:10029000FCCF8091B900887F883021F0803111F047
:1002A00081E008959093BB0084E88093BC00809126
:1002B000BC0087FFFCCF9091B900987F983111F472
:1002C00080E0089580E0903409F081E00895982F4F
:1002D00044EA34E824E94093BC008091BC0087FFE5
:1002E000FCCF8091B900887F883011F0803199F778
:1002F0009093BB003093BC008091BC0087FFFCCF83
:100300008091B900887F803211F0883539F42093CC
:10031000BC008091BC0084FDFCCFDDCF08950E941D
:100320004101089584E98093BC008091BC0084FD64
:10033000FCCF08958093BB0084E88093BC0080913B
:10034000BC0087FFFCCF8091B90090E0887F8832A5
:1003500009F091E0892F089584EC8093BC0080918E
:10036000BC0087FFFCCF8091BB00089584E8809398
:10037000BC008091BC0087FFFCCF8091BB0008953A
:10038000EF92FF920F931F93DF93CF93CDB7DEB71A
:100390002A970FB6F894DEBF0FBECDBFAAE7B0E034
:1003A0008C9187608C93EBE7F0E080818B7F80837A
:1003B000ECE7F0E0808180648083808180838C9191
:1003C00080628C938C9180688C938C9180648C93E8
:1003D0008CE00E9401018FE7E82E84E8F82E8EE180
:1003E000082F112DD801C7010197A109B1090000FB
:1003F00001F0D1F7C89500000E94CA00D801C701DA
:100400000197A109B109000001F0D1F7C8950000DA
:100410008FE39CE90197F1F7000000C0009178009C
:1004200010E020917900922F80E0082B192B00D04A
:1004300000D000D0EDB7FEB73196CE010196ADB732
:10044000BEB712969C938E93119780E091E09383B0
:100450008283158304830E9456038DB79EB7069648
:100460000FB6F8949EBF0FBE8DBFC8012A960FB677
:10047000F894DEBF0FBECDBFCF91DF911F910F91DA
:10048000FF90EF9008958F929F92AF92BF92CF927C
:10049000DF92EF92FF920F931F93DF93CF93CDB72D
:1004A000DEB72A970FB6F894DEBF0FBECDBF8CE043
:1004B0000E9401010E94CA00AFE7EA2EA4E8FA2ECA
:1004C000AEE10A2F112DD801C7010197A109B10989
:1004D000000001F0D1F7C89500001092B90088E43F
:1004E0008093B8000E94CA008FE39DE0A3E0B0E0D3
:1004F0000197A109B109000001F0D1F7C8950000EA
:1005000084E091E00E94E700D801C7010197A109AA
:10051000B109000001F0D1F7C895000080EA0E94FF
:10052000410100E010E0F5E0DF2EE4E8FE2E74E784
:10053000E72ED092BB00F092BC008091BC0087FFF8
:10054000FCCF8091B9000E94C001E092BB00F09204
:10055000BC008091BC0087FFFCCF8091B9000F5F89
:100560001F4F0A30110529F784E98093BC00809160
:10057000BC0084FDFCCF00E010E065E0E62E54E80E
:10058000F52E44E9D42E80EA0E946701E092BB0078
:10059000F092BC008091BC0087FFFCCF8091B90035
:1005A00081EA0E944101F092BC008091BC0087FF6B
:1005B000FCCF9091BB00D092BC008091BC0084FD28
:1005C000FCCF090F111DE3948FE0E816E1F6C80196
:1005D0006AE070E00E94F705CB0100D000D000D0A7
:1005E000EDB7FEB731968E010F5F1F4FADB7BEB7A7
:1005F00012961C930E93119723E131E033832283EB
:10060000880F991F880F991F958384830E94560332
:100610008DB79EB706960FB6F8949EBF0FBE8DBFDE
:100620000E94CA008FE39DE0A3E0B0E00197A1091A
:10063000B109000001F0D1F7C8950000C8010E947F
:10064000E7008FE794E8AEE1B0E00197A109B109B6
:10065000000001F0D1F7C89500002FE3A22E2DE095
:10066000B22E23E0C22ED12C48019FE7E92E94E858
:10067000F92E9EE1092F112D0E94CA00D601C50155
:100680000197A109B109000001F0D1F7C895000058
:10069000C4010E94E700D801C7010197A109B1096F
:1006A000000001F0D1F7C8950000E6CFAEE0B0E061
:1006B000ECE5F3E00C942C060D891E8986E08C8312
:1006C0001A8309838FEF9FE79E838D839E01275EA8
:1006D0003F4FCE0101966F89788DA9010E947A0360
:1006E0002F813885020F131FF80110822E96E4E047
:1006F0000C944806ABE0B0E0E0E8F3E00C941E0692
:100700003C012B015A01FC0117821682838181FD75
:1007100003C06FEF7FEFC6C19AE0892E1E010894D7
:10072000211C311CF3012381F20123FD859123FF5C
:1007300081912F01882309F4B2C1853239F423FD58
:10074000859123FF81912F01853229F490E0B30137
:100750000E946D05E7CF982FFF24EE249924FFE136
:10076000FF15D0F09B3269F09C3228F4903259F09A
:10077000933291F40EC09D3249F0903369F441E018
:1007800024C052E0F52A84E0F82A28C098E0F92A2B
:1007900025C0E0E1FE2A22C0F7FC29C0892F805342
:1007A0008A3070F4F6FE05C0989C902C1124980EA7
:1007B00015C0E89CE02C1124E80EF0E2FF2A0EC0E0
:1007C0009E3229F4F6FC6BC140E4F42A07C09C3643
:1007D00019F450E8F52A02C0983649F4F20123FDD5
:1007E000959123FF91912F01992309F0B8CF892F7B
:1007F0008554833018F08052833038F444E050E060
:10080000A40EB51E5FE359830FC0933631F09337C2
:1008100079F0933509F056C020C0F50180818983B5
:1008200042E050E0A40EB51E610101E010E012C0EC
:10083000F501C080D180F6FC03C06FEF7FEF02C0EE
:10084000692D70E042E050E0A40EB51EC6010E9482
:1008500062058C015FE7F52214C0F501C080D180EC
:10086000F6FC03C06FEF7FEF02C0692D70E042E03D
:1008700050E0A40EB51EC6010E9457058C0150E839
:10088000F52AF3FE07C01AC080E290E0B3010E948F
:100890006D05EA948E2D90E008171907A8F30EC095
:1008A000F601F7FC8591F7FE81916F0190E0B301AD
:1008B0000E946D05E110EA940150104001151105E8
:1008C00079F7EAC0943611F0993669F5F7FE08C059
:1008D000F501208131814281538184E090E00AC09A
:1008E000F501808191819C01442737FD4095542F6B
:1008F00082E090E0A80EB91E9FE6F92257FF09C0DA
:1009000050954095309521953F4F4F4F5F4FE0E810
:10091000FE2ACA01B901A1012AE030E00E9499052E
:10092000D82ED21840C0953729F41F2D1F7E2AE0FB
:1009300030E01DC01F2D197F9F3661F0903720F4E5
:10094000983509F0ACC00FC0903739F0983709F0EE
:10095000A6C004C028E030E00AC0106114FD146095
:1009600020E130E004C014FD166020E132E017FF02
:1009700008C0F501608171818281938144E050E07B
:1009800008C0F50180819181BC0180E090E042E0E7
:1009900050E0A40EB51EA1010E949905D82ED218D0
:1009A0008FE7F82EF122F6FE0BC05EEFF522D91488
:1009B00038F4F4FE07C0F2FC05C08FEEF82202C046
:1009C0001D2D01C0192DF4FE0DC0FE01ED0DF11D10
:1009D0008081803319F499EEF92208C01F5FF2FE7E
:1009E00005C003C08F2D867809F01F5F0F2DF3FC23
:1009F00014C0F0FE0FC01E1510F09D2C0BC09D2CD6
:100A00009E0C911A1E2D06C080E290E0B3010E9458
:100A10006D051F5F1E15C0F304C01E1510F4E11A0A
:100A200001C0EE2404FF0FC080E390E0B3010E94F8
:100A30006D0502FF1DC001FD03C088E790E00EC0F8
:100A400088E590E00BC0802F867891F001FF02C00E
:100A50008BE201C080E2F7FC8DE290E0B3010E94DE
:100A60006D0506C080E390E0B3010E946D059A9485
:100A7000D914C0F3DA94F101ED0DF11D808190E0FD
:100A8000B3010E946D05DD20A9F706C080E290E069
:100A9000B3010E946D05EA94EE20C1F743CEF30145
:100AA00066817781CB012B96E2E10C943A06FC013A
:100AB0000590615070400110D8F7809590958E0F89
:100AC0009F1F0895FC016150704001900110D8F7FC
:100AD000809590958E0F9F1F08950F931F93CF932E
:100AE000DF938C01EB018B8181FF1BC082FF0DC066
:100AF0002E813F818C819D812817390764F4E8811C
:100B0000F9810193F983E88306C0E885F985802F90
:100B10000995892B31F48E819F8101969F838E8365
:100B200002C00FEF1FEFC801DF91CF911F910F910E
:100B30000895FA01AA27283051F1203181F1E89473
:100B40006F936E7F6E5F7F4F8F4F9F4FAF4FB1E0C0
:100B50003ED0B4E03CD0670F781F891F9A1FA11DBB
:100B6000680F791F8A1F911DA11D6A0F711D811DBC
:100B7000911DA11D20D009F468943F912AE0269F81
:100B800011243019305D3193DEF6CF010895462FE0
:100B90004770405D4193B3E00FD0C9F7F6CF462FC1
:100BA0004F70405D4A3318F0495D31FD405241932A
:100BB00002D0A9F7EACFB4E0A695979587957795E7
:100BC0006795BA95C9F700976105710508959B016E
:100BD000AC010A2E06945795479537952795BA95F7
:100BE000C9F7620F731F841F951FA01D089597FBFF
:100BF000092E07260AD077FD04D00CD006D000209D
:100C00001AF4709561957F4F0895F6F79095819548
:100C10009F4F0895AA1BBB1B51E107C0AA1FBB1F12
:100C2000A617B70710F0A61BB70B881F991F5A9578
:100C3000A9F780959095BC01CD0108952F923F9220
:100C40004F925F926F927F928F929F92AF92BF92DC
:100C5000CF92DF92EF92FF920F931F93CF93DF9388
:100C6000CDB7DEB7CA1BDB0B0FB6F894DEBF0FBEE5
:100C7000CDBF09942A88398848885F846E847D8432
:100C80008C849B84AA84B984C884DF80EE80FD8034
:100C90000C811B81AA81B981CE0FD11D0FB6F894AA
:0E0CA000DEBF0FBECDBFED010895F894FFCF6B
:100CAE0025640A00454550524F4D2073746172748D
:0C0CBE00656400617667203A2025640020
:00000001FF
