:100000000C9434000C9449000C9449000C94490061
:100010000C9449000C9449000C9449000C9449003C
:100020000C9449000C9449000C9449000C9449002C
:100030000C9449000C9449000C9449000C9449001C
:100040000C9449000C9449000C9449000C9449000C
:100050000C9449000C9449000C9449000C944900FC
:100060000C9449000C94490011241FBECFEFD8E036
:10007000DEBFCDBF11E0A0E0B1E0E0EFFBE002C0E9
:1000800005900D92AE33B107D9F70E946A000C9427
:10009000F6050C940000AAE7B0E08C9187608C9381
:1000A000ECE7F0E0808180838081806480838081C0
:1000B00080838C9180688C938C9180648C93209148
:1000C000780030E040917900942F80E0282B392B84
:1000D000C90108952F923F924F925F926F927F9243
:1000E0008F929F92AF92BF92CF92DF92EF92FF9248
:1000F0000F931F93DF93CF93CDB7DEB72A970FB639
:10010000F894DEBF0FBECDBF8CE00E9438028FE3B3
:1001100092E4AFE0B0E00197A109B109000001F05D
:10012000D1F7C89500000E9401025FE7E52E54E870
:10013000F52E5EE1052F112DD801C7010197A10908
:10014000B109000001F0D1F7C895000080E091E00E
:100150000E941E02D801C7010197A109B109000040
:1001600001F0D1F7C89500000E9472024FEF442EB3
:100170004CE2542E41E3642E41E0742E1E0108949B
:10018000211C311C3FE7832E34E8932E3EE1A32E41
:10019000B12C80EA0E947802882339F00E94C902BB
:1001A00086E091E00E941E02F4CF80E00E94D1021E
:1001B00000E010E080917A00876080937A0080915F
:1001C0007C0080937C0080917C00806480937C0024
:1001D00080917C0080937C0080917A00806880937D
:1001E0007A0080917A00806480937A008091780010
:1001F00020917900D22ECC2490E08C299D2964E0B6
:1002000070E00E949805862F0E94D1028FE39DE046
:10021000A3E0B0E00197A109B109000001F0D1F716
:10022000C89500000F5F1F4F0E31110509F0C2CFB6
:100230000E94C90280EA0E949E0280E00E94D102D0
:1002400081EA0E94C6020E94010288E291E00E94B7
:100250001E02D301C2010197A109B109000001F0FA
:10026000D1F7C8950000EE24FF2400E010E00E94C2
:10027000E30290E0880F991F880F991FE80EF91E7E
:100280000F5F1F4F0D31110591F70E94ED02082FEE
:1002900010E00E94C902000F111F000F111F0E0D68
:1002A0001F1D0E94010200D000D000D0EDB7FEB7A4
:1002B0003196ADB7BEB712963C922E92119784E359
:1002C00091E093838283C8016EE170E00E949805FB
:1002D000758364830E94F702ADB7BEB716960FB65A
:1002E000F894BEBF0FBEADBFC1010E941E02D50172
:1002F000C4010197A109B109000001F0D1F7C89527
:10030000000047CF662311F0419A01C041984298FE
:10031000549A559A569A579A5F985E985D985C9849
:1003200087FD5F9A86FD5E9A85FD5D9A84FD5C9AE5
:10033000439A00C043985F985E985D985C9883FDEF
:100340005F9A82FD5E9A81FD5D9A80FD5C9A439A78
:1003500000C043985C9A5D9A5E9A5F9A08958823DC
:1003600011F0419A01C04198429A54985598569874
:100370005798439A00C04C9B02C080E101C080E0C6
:100380004D9980624E9980644F998068439800C06F
:10039000439A00C04C9981604D9982604E99846067
:1003A0004F9988604398089580E00E94AF0187FDCF
:1003B000FBCF88E090E00197F1F780E00E94AF0169
:1003C00008951F93182F0E94D401812F60E00E948E
:1003D00082011F9108951F93182F0E94D401812F2D
:1003E00061E00E9482011F910895662311F48058F4
:1003F00001C080540E94E10108950E94D40190E060
:10040000089581E00E94E101089582E00E94E101E7
:1004100008951F93182F0E94D4011A3049F4803494
:1004200010F080E001C080E480580E94E10104C027
:10043000812F61E00E9482011F910895CF93DF9385
:10044000EC0102C00E94090289918823D9F7DF914B
:10045000CF910895CF93DF93EC0102C00E9409026F
:10046000FE01219684918823C9F7DF91CF910895E9
:100470001F93182F399A3A9A3B9A549A559A569A3A
:10048000579A80E09AEF0197F1F75D9A5C9A439A48
:1004900000C0439880E09EE40197F1F7439A00C0C2
:1004A000439880E091E0FC013197F1F7439A00C056
:1004B0004398FC013197F1F75C98439A00C0439848
:1004C0000197F1F788E20E94E10188E00E94E101D2
:1004D0000E94010286E00E94E101812F0E94E10159
:1004E0001F9108951092B9008CE08093B800089590
:1004F000982F84EA8093BC008091BC0087FFFCCFDA
:100500008091B900887F883021F0803111F081E03E
:1005100008959093BB0084E88093BC008091BC0058
:1005200087FFFCCF9091B900987F983111F480E05B
:10053000089580E0903409F081E00895982F44EA0E
:1005400034E824E94093BC008091BC0087FFFCCFD5
:100550008091B900887F883011F0803199F79093AD
:10056000BB003093BC008091BC0087FFFCCF809122
:10057000B900887F803211F0883539F42093BC00AF
:100580008091BC0084FDFCCFDDCF08950E947802ED
:10059000089584E98093BC008091BC0084FDFCCF69
:1005A00008958093BB0084E88093BC008091BC00D8
:1005B00087FFFCCF8091B90090E0887F883209F0F6
:1005C00091E0892F089584EC8093BC008091BC0059
:1005D00087FFFCCF8091BB00089584E88093BC0026
:1005E0008091BC0087FFFCCF8091BB000895AEE0F6
:1005F000B0E0EDEFF2E00C94CD050D891E8986E0A8
:100600008C831A8309838FEF9FE79E838D839E01DE
:10061000275E3F4FCE0101966F89788DA9010E9418
:100620001B032F813885020F131FF80110822E96AD
:10063000E4E00C94E905ABE0B0E0E1E2F3E00C9417
:10064000BF053C012B015A01FC01178216828381F0
:1006500081FD03C06FEF7FEFC6C19AE0892E1E01B6
:100660000894211C311CF3012381F20123FD8591A3
:1006700023FF81912F01882309F4B2C1853239F417
:1006800023FD859123FF81912F01853229F490E08C
:10069000B3010E940E05E7CF982FFF24EE24992482
:1006A000FFE1FF15D0F09B3269F09C3228F49032C4
:1006B00059F0933291F40EC09D3249F0903369F4B1
:1006C00041E024C052E0F52A84E0F82A28C098E0EE
:1006D000F92A25C0E0E1FE2A22C0F7FC29C0892FB3
:1006E00080538A3070F4F6FE05C0989C902C11243B
:1006F000980E15C0E89CE02C1124E80EF0E2FF2AC9
:100700000EC09E3229F4F6FC6BC140E4F42A07C007
:100710009C3619F450E8F52A02C0983649F4F201E3
:1007200023FD959123FF91912F01992309F0B8CFD3
:10073000892F8554833018F08052833038F444E098
:1007400050E0A40EB51E5FE359830FC0933631F01D
:10075000933779F0933509F056C020C0F5018081B8
:10076000898342E050E0A40EB51E610101E010E073
:1007700012C0F501C080D180F6FC03C06FEF7FEF9F
:1007800002C0692D70E042E050E0A40EB51EC60123
:100790000E9403058C015FE7F52214C0F501C080BB
:1007A000D180F6FC03C06FEF7FEF02C0692D70E0CF
:1007B00042E050E0A40EB51EC6010E94F8048C0170
:1007C00050E8F52AF3FE07C01AC080E290E0B301BA
:1007D0000E940E05EA948E2D90E008171907A8F3E1
:1007E0000EC0F601F7FC8591F7FE81916F0190E054
:1007F000B3010E940E05E110EA940150104001156A
:10080000110579F7EAC0943611F0993669F5F7FECB
:1008100008C0F501208131814281538184E090E05C
:100820000AC0F501808191819C01442737FD4095E4
:10083000542F82E090E0A80EB91E9FE6F92257FFE0
:1008400009C050954095309521953F4F4F4F5F4FD0
:10085000E0E8FE2ACA01B901A1012AE030E00E94C5
:100860003A05D82ED21840C0953729F41F2D1F7E87
:100870002AE030E01DC01F2D197F9F3661F09037B0
:1008800020F4983509F0ACC00FC0903739F0983794
:1008900009F0A6C004C028E030E00AC0106114FDD1
:1008A000146020E130E004C014FD166020E132E065
:1008B00017FF08C0F501608171818281938144E056
:1008C00050E008C0F50180819181BC0180E090E09A
:1008D00042E050E0A40EB51EA1010E943A05D82EB8
:1008E000D2188FE7F82EF122F6FE0BC05EEFF5224C
:1008F000D91438F4F4FE07C0F2FC05C08FEEF822DC
:1009000002C01D2D01C0192DF4FE0DC0FE01ED0D1C
:10091000F11D8081803319F499EEF92208C01F5F20
:10092000F2FE05C003C08F2D867809F01F5F0F2DE2
:10093000F3FC14C0F0FE0FC01E1510F09D2C0BC070
:100940009D2C9E0C911A1E2D06C080E290E0B301F2
:100950000E940E051F5F1E15C0F304C01E1510F483
:10096000E11A01C0EE2404FF0FC080E390E0B30160
:100970000E940E0502FF1DC001FD03C088E790E044
:100980000EC088E590E00BC0802F867891F001FFC3
:1009900002C08BE201C080E2F7FC8DE290E0B3017F
:1009A0000E940E0506C080E390E0B3010E940E0590
:1009B0009A94D914C0F3DA94F101ED0DF11D808100
:1009C00090E0B3010E940E05DD20A9F706C080E289
:1009D00090E0B3010E940E05EA94EE20C1F743CEE9
:1009E000F30166817781CB012B96E2E10C94DB0564
:1009F000FC010590615070400110D8F780959095EA
:100A00008E0F9F1F0895FC016150704001900110EE
:100A1000D8F7809590958E0F9F1F08950F931F9381
:100A2000CF93DF938C01EB018B8181FF1BC082FF91
:100A30000DC02E813F818C819D812817390764F478
:100A4000E881F9810193F983E88306C0E885F98597
:100A5000802F0995892B31F48E819F8101969F8388
:100A60008E8302C00FEF1FEFC801DF91CF911F915E
:100A70000F910895FA01AA27283051F1203181F110
:100A8000E8946F936E7F6E5F7F4F8F4F9F4FAF4F96
:100A9000B1E03ED0B4E03CD0670F781F891F9A1FA9
:100AA000A11D680F791F8A1F911DA11D6A0F711D5D
:100AB000811D911DA11D20D009F468943F912AE069
:100AC000269F11243019305D3193DEF6CF01089551
:100AD000462F4770405D4193B3E00FD0C9F7F6CF82
:100AE000462F4F70405D4A3318F0495D31FD40524A
:100AF000419302D0A9F7EACFB4E0A69597958795E0
:100B000077956795BA95C9F70097610571050895BE
:100B10009B01AC010A2E069457954795379527956A
:100B2000BA95C9F7620F731F841F951FA01D089502
:100B300097FB092E07260AD077FD04D00CD006D0EB
:100B400000201AF4709561957F4F0895F6F79095FF
:100B500081959F4F0895AA1BBB1B51E107C0AA1F97
:100B6000BB1FA617B70710F0A61BB70B881F991F4E
:100B70005A95A9F780959095BC01CD0108952F92C3
:100B80003F924F925F926F927F928F929F92AF921D
:100B9000BF92CF92DF92EF92FF920F931F93CF936A
:100BA000DF93CDB7DEB7CA1BDB0B0FB6F894DEBF01
:100BB0000FBECDBF09942A88398848885F846E8427
:100BC0007D848C849B84AA84B984C884DF80EE8071
:100BD000FD800C811B81AA81B981CE0FD11D0FB67A
:100BE000F894DEBF0FBECDBFED010895F894FFCF9E
:100BF00048656C6C6F004E6F742061626C65207488
:100C00006F20636F6E6E65637420746F2074686507
:100C100020454550524F4D00496E2050726F67720B
:0E0C200065737300546865203A202564000057
:00000001FF
