:100000000C9434000C9449000C9449000C94490061
:100010000C9449000C9449000C9449000C9449003C
:100020000C9449000C9449000C9449000C9449002C
:100030000C9449000C9449000C9449000C9449001C
:100040000C9449000C9449000C9449000C9449000C
:100050000C9449000C9449000C9449000C944900FC
:100060000C9449000C94490011241FBECFEFD8E036
:10007000DEBFCDBF11E0A0E0B1E0ECEAF2E002C0EB
:1000800005900D92AC30B107D9F70E941F010C9476
:1000900054010C940000282F662311F0409A01C0EF
:1000A000409841988AB18F608AB99BB1907F822F26
:1000B00082958F70892B8BB9429A00C042982F701D
:1000C000292B2BB9429A00C042989F609BB9089592
:1000D0004098419A8AB1807F8AB9429A00C089B11A
:1000E000429800C0429A00C099B1429883FDF0CF77
:1000F00082E090E00197F1F74098419A8AB1807FC1
:100100008AB9429A00C099B1429800C0429A00C090
:1001100089B18F709295907F4298892B08951F9393
:10012000182F0E946800812F60E00E944B001F91F1
:1001300008951F93182F0E946800812F61E00E948C
:100140004B001F910895662311F4805801C080541C
:100150000E948F0008950E94680090E0089581E059
:100160000E948F00089582E00E948F0008951F93DF
:10017000182F0E9468001A3049F4803410F080E093
:1001800001C080E480580E948F0004C0812F61E08C
:100190000E944B001F910895CF93DF93EC0102C0A2
:1001A0000E94B70089918823D9F7DF91CF910895F4
:1001B000CF93DF93EC0102C00E94B700FE012196AD
:1001C00084918823C9F7DF91CF9108951F93182F49
:1001D0008AB18F608AB9389A399A3A9A80E89EE350
:1001E0000197F1F7599A589A429A00C0429880E8CC
:1001F00093E10197F1F7429A00C0429880E490E0C1
:10020000FC013197F1F7429A00C04298FC01319706
:10021000F1F75898429A00C042980197F1F788E2A6
:100220000E948F0088E00E948F000E94AF0086E04D
:100230000E948F00812F0E948F001F910895EF92DE
:10024000FF920F931F938CE00E94E6008FE7E82E49
:1002500084E8F82E8EE1082F112DD801C7010197EF
:10026000A109B109000001F0D1F7C89500000E9472
:10027000AF00D801C7010197A109B109000001F041
:10028000D1F7C89500000E94AF00D801C7010197BF
:10029000A109B109000001F0D1F7C895000080E084
:0C02A00091E00E94CC00E5CFF894FFCF65
:0C02AC00416E6B6974204B6164616D0051
:00000001FF
