:100000000C9434000C9449000C9449000C94490061
:100010000C9449000C9449000C9449000C9449003C
:100020000C9449000C9449000C9449000C9449002C
:100030000C9449000C9449000C9449000C9449001C
:100040000C9449000C9449000C9449000C9449000C
:100050000C9449000C9449000C9449000C944900FC
:100060000C9449000C94490011241FBECFEFD8E036
:10007000DEBFCDBF11E0A0E0B1E0EEEBF2E002C0E8
:1000800005900D92AC30B107D9F70E943B010C945A
:100090005D010C940000662311F0419A01C0419863
:1000A0004098549A559A569A579A5F985E985D98D8
:1000B0005C9887FD5F9A86FD5E9A85FD5D9A84FD5A
:1000C0005C9A429A00C042985F985E985D985C98EE
:1000D00083FD5F9A82FD5E9A81FD5D9A80FD5C9A48
:1000E000429A00C042985C9A5D9A5E9A5F9A08951F
:1000F000882311F0419A01C04198409A549855982C
:1001000056985798429A00C04C9B02C080E101C0AB
:1001100080E04D9980624E9980644F998068429842
:1001200000C0429A00C04C9981604D9982604E99FE
:1001300084604F9988604298089580E00E9478001A
:1001400087FDFBCF82E090E00197F1F780E00E940D
:10015000780008951F93182F0E949D00812F60E062
:100160000E944B001F9108951F93182F0E949D001D
:10017000812F61E00E944B001F910895662311F4C6
:10018000805801C080540E94AA0008950E949D00DA
:1001900090E0089581E00E94AA00089582E00E9404
:1001A000AA0008951F93182F0E949D001A3049F449
:1001B000803410F080E001C080E480580E94AA00E2
:1001C00004C0812F61E00E944B001F910895CF93DE
:1001D000DF93EC0102C00E94D20089918823D9F7F5
:1001E000DF91CF910895CF93DF93EC0102C00E947D
:1001F000D200FE01219684918823C9F7DF91CF9127
:1002000008951F93182F399A389A3A9A549A559A02
:10021000569A579A80E89EE30197F1F75D9A5C9AA7
:10022000429A00C0429880E893E10197F1F7429A20
:1002300000C0429880E490E0FC013197F1F7429AC7
:1002400000C04298FC013197F1F75C98429A00C0D7
:1002500042980197F1F788E20E94AA0088E00E9484
:10026000AA000E94CA0086E00E94AA00812F0E9474
:10027000AA001F910895EF92FF920F931F938CE0B5
:100280000E9401010E94CA0080E091E00E94E70004
:100290008FE3E82E82E4F82E8FE0082F112D88E1FD
:1002A0000E94AA00D801C7010197A109B109000065
:0E02B00001F0D1F7C8950000F2CFF894FFCF0F
:0C02BE00547568696E616E73687500000D
:00000001FF
