:100000000C9434000C943E000C943E000C943E0082
:100010000C943E000C943E000C943E000C943E0068
:100020000C943E000C943E000C943E000C943E0058
:100030000C943E000C943E000C943E000C943E0048
:100040000C943E000C943E000C943E000C943E0038
:100050000C943E000C943E000C943E000C943E0028
:100060000C943E000C943E0011241FBECFEFD8E04C
:10007000DEBFCDBF0E9430010C94CF010C94000074
:10008000662311F0439A01C043984498549A559AB4
:10009000569A579A5F985E985D985C9887FD5F9A2C
:1000A00086FD5E9A85FD5D9A84FD5C9A459A00C046
:1000B00045985F985E985D985C9883FD5F9A82FD95
:1000C0005E9A81FD5D9A80FD5C9A459A00C04598D4
:1000D0005C9A5D9A5E9A5F9A0895882311F0439A1C
:1000E00001C04398449A5498559856985798459A01
:1000F00000C04C9B02C080E101C080E04D9980624D
:100100004E9980644F998068459800C0459A00C018
:100110004C9981604D9982604E9984604F998860B6
:100120004598089580E00E946D0087FDFBCF82E036
:1001300090E00197F1F780E00E946D0008951F9311
:10014000182F0E949200812F60E00E9440001F91B2
:1001500008951F93182F0E949200812F61E00E9442
:1001600040001F910895662311F4805801C0805407
:100170000E949F0008950E94920090E0089581E0FF
:100180000E949F00089582E00E949F0008951F939F
:10019000182F0E9492001A3049F4803410F080E049
:1001A00001C080E480580E949F0004C0812F61E05C
:1001B0000E9440001F910895CF93DF93EC0102C08D
:1001C0000E94C70089918823D9F7DF91CF910895C4
:1001D000CF93DF93EC0102C00E94C700FE0121967D
:1001E00084918823C9F7DF91CF9108951F93182F29
:1001F0003B9A3C9A3D9A549A559A569A579A80E857
:100200009EE30197F1F75D9A5C9A459A00C0459884
:1002100080E893E10197F1F7459A00C0459880E4A2
:1002200090E0FC013197F1F7459A00C04598FC0138
:100230003197F1F75C98459A00C045980197F1F71E
:1002400088E20E949F0088E00E949F000E94BF00F9
:1002500086E00E949F00812F0E949F001F910895B9
:10026000AF92BF92CF92DF92EF92FF920F931F93C4
:10027000DF93CF93CDB7DEB72A970FB6F894DEBFE2
:100280000FBECDBF81E08AB98BB980917A008760BB
:1002900080937A0080917C00806480937C008091C0
:1002A0007A00806280937A0080917A0080688093DF
:1002B0007A008CE00E94F6005E010894A11CB11C3B
:1002C0008FE3C82E8DE0D82E83E0E82EF12C8091AC
:1002D0007A00806480937A008091780090E0209189
:1002E0007900122F00E0802B912BB5014AE050E0FD
:1002F0000E948A01C5010E94DC00D701C601019756
:10030000A109B109000001F0D1F7C89500000E94D1
:10031000BF00DDCFFB019F01E8944230C4F04532BD
:10032000B4F44A3029F497FB1EF4909581959F4FC1
:10033000642F77270E94BB01805D8A330CF0895DB2
:100340008193CB010097A1F716F45DE251931082DF
:10035000C9010C94AB01DC01FC01672F719177237B
:10036000E1F7329704C07C916D9370836291AE1770
:10037000BF07C8F30895AA1BBB1B51E107C0AA1F02
:10038000BB1FA617B70710F0A61BB70B881F991F36
:100390005A95A9F780959095BC01CD010895F894E0
:0203A000FFCF8D
:00000001FF
