:100000000C9461000C9476000C9476000C947600AD
:100010000C9476000C9476000C9476000C94760088
:100020000C9476000C9476000C9476000C94760078
:100030000C9476000C9476000C9476000C94760068
:100040000C9476000C9476000C9476000C94760058
:100050000C9476000C9493010C9476000C9476002A
:100060000C9476000C94760008000000BE9224499F
:10007000123EABAAAA2ABECDCCCC4C3E00000080DA
:10008000BEABAAAAAA3E00000000BF000000803F4D
:100090000000000000084178D3BB4387D1133D190D
:1000A0000E3CC3BD4282AD2B3E68EC8276BED98F3A
:1000B000E1A93E4C80EFFFBE01C4FF7F3F0000007E
:1000C000000011241FBECFEFD8E0DEBFCDBF12E08D
:1000D000A0E0B1E0EEE0F4E102C005900D92A8309E
:1000E000B107D9F70E9468010C94050A0C9400002E
:1000F000662311F0449A01C044984398549A559A43
:10010000569A579A5F985E985D985C9887FD5F9ABB
:1001100086FD5E9A85FD5D9A84FD5C9A459A00C0D5
:1001200045985F985E985D985C9883FD5F9A82FD24
:100130005E9A81FD5D9A80FD5C9A459A00C0459863
:100140005C9A5D9A5E9A5F9A0895882311F0449AAA
:1001500001C04498439A5498559856985798459A90
:1001600000C04C9B02C080E101C080E04D998062DC
:100170004E9980644F998068459800C0459A00C0A8
:100180004C9981604D9982604E9984604F99886046
:100190004598089580E00E94A50087FDFBCF88E088
:1001A00090E00197F1F780E00E94A50008951F9369
:1001B000182F0E94CA00812F60E00E9478001F91D2
:1001C00008951F93182F0E94CA00812F61E00E949A
:1001D00078001F910895662311F4805801C080545F
:1001E0000E94D70008950E94CA0090E0089581E01F
:1001F0000E94D700089582E00E94D70008951F93BF
:10020000182F0E94CA001A3049F4803410F080E0A0
:1002100001C080E480580E94D70004C0812F61E0B3
:100220000E9478001F910895CF93DF93EC0102C0E4
:100230000E94FF0089918823D9F7DF91CF9108951B
:10024000CF93DF93EC0102C00E94FF00FE012196D4
:1002500084918823C9F7DF91CF9108951F93182FB8
:100260003C9A3B9A3D9A549A559A569A579A80E0EE
:100270009AEF0197F1F75D9A5C9A459A00C045980C
:1002800080E09EE40197F1F7459A00C0459880E030
:1002900091E0FC013197F1F7459A00C04598FC01C7
:1002A0003197F1F75C98459A00C045980197F1F7AE
:1002B00088E20E94D70088E00E94D7000E94F700E1
:1002C00086E00E94D700812F0E94D7001F910895D9
:1002D00081E08AB98BB980917A00876080937A0037
:1002E00080917B008B7F80937B0080917C00806479
:1002F00080937C0080917A00806280937A00809164
:100300007A00806880937A0080917A008860809378
:100310007A00789480917A00806480937A008CE0EF
:100320000E942E01FFCF1F920F920FB60F92112441
:100330006F927F928F929F92AF92BF92CF92DF92F5
:10034000EF92FF920F931F932F933F934F935F93DF
:100350006F937F938F939F93AF93BF93EF93FF938D
:10036000DF93CF93CDB7DEB7C456D040DEBFCDBF4D
:100370000091780010E0F09079008CE00E942E014E
:100380008FE7682E84E8782E8EE1882E912CD40198
:10039000C3010197A109B109000001F0D1F7C89587
:1003A00000007F2D60E0602B712B882777FD809502
:1003B000982F0E94B1059B01AC0160E070EC8FE7C3
:1003C00094E40E94050520E030E040E85FE30E94ED
:1003D000AD0320E030E04AE754E40E940B040E94A1
:1003E0006C087B018C0126ED34E649E759E30E9455
:1003F0000B042BEC38E444E85AE30E94DE035B0173
:100400006C01C801B7012CE63FEC48E554E30E94BB
:100410000B04A80197010E940B04A80197010E94F8
:100420000B049B01AC01C601B5010E94DE039B01D8
:10043000AC0160E070E080E89FE30E94050523E3E3
:1004400033E948E853E40E94AD030E940F06DC0143
:10045000CB018E010F5F1F4FB8014AE050E00E94B0
:10046000FF07C8010E941401D401C3010197A1092B
:10047000B109000001F0D1F7C8950000CC59DF4F59
:10048000DEBFCDBFCF91DF91FF91EF91BF91AF91D3
:100490009F918F917F916F915F914F913F912F919C
:1004A0001F910F91FF90EF90DF90CF90BF90AF9092
:1004B0009F908F907F906F900F900FBE0F901F9026
:1004C0001895A0E0B0E0E7E6F2E00C943008DC011B
:1004D0002B01FA019C91923008F439C1EB0188811B
:1004E000823008F433C1943069F4843009F02FC1AC
:1004F00011969C9111978981981709F428C1A0E061
:10050000B1E025C1843009F421C18230A9F49230D0
:1005100009F01DC19A01AD0188E0EA010990AE0120
:10052000E90109929E018150C1F7E201898111968A
:100530009C918923818308C1923009F407C11296E6
:100540002D903C901397EB018A819B811496AD907E
:10055000BD90CD90DC901797EC80FD800E811F81BF
:100560009101281B390BB90137FF04C06627772793
:10057000621B730B603271050CF061C0121613061A
:100580006CF537014801062E04C096948794779441
:1005900067940A94D2F721E030E040E050E004C0D4
:1005A000220F331F441F551F6A95D2F72150304048
:1005B000404050402E213F21402351232115310539
:1005C0004105510521F021E030E040E050E07901A3
:1005D0008A01E628F728082919293CC0232BD1F1E4
:1005E000260E371E35014601062E04C096948794C8
:1005F000779467940A94D2F721E030E040E050E02D
:1006000004C0220F331F441F551F6A95D2F7215093
:100610003040404050402A213B214C215D21211592
:1006200031054105510521F021E030E040E050E086
:1006300059016A01A628B728C828D9280BC08215F5
:1006400093052CF01C01AA24BB24650103C0EE24F1
:10065000FF24870111969C91D20111968C919817D5
:1006600009F445C0992339F0A80197012A193B09DB
:100670004C095D0906C0A60195012E193F09400BE2
:10068000510B57FD08C011823382228224833583A7
:10069000468357831DC081E081833382228288276D
:1006A0009927DC01821B930BA40BB50B84839583E4
:1006B000A683B7830DC0220F331F441F551F248309
:1006C0003583468357838281938101979383828305
:1006D0002481358146815781DA01C9010197A10939
:1006E000B1098F5F9F4FAF4FBF4328F30BC091837A
:1006F00033822282EA0CFB1C0C1D1D1DE482F58254
:100700000683178383E08083248135814681578166
:1007100057FF1AC0C901AA2797FDA095BA2F81706B
:100720009070A070B0705695479537952795822B9D
:10073000932BA42BB52B84839583A683B7838281C7
:100740009381019693838283DF0101C0D201CD01A1
:10075000CDB7DEB7E2E10C944C08A0E2B0E0E3EBE9
:10076000F3E00C943C0869837A838B839C832D830C
:100770003E834F835887E9E0EE2EF12CEC0EFD1EF0
:10078000CE010196B7010E9487078E010F5E1F4FB1
:10079000CE010596B8010E9487078A8991E08927D2
:1007A0008A8BC701B801AE01475E5F4F0E946102AC
:1007B0000E94B206A096E6E00C945808A0E2B0E0D1
:1007C000E4EEF3E00C943C0869837A838B839C838A
:1007D0002D833E834F835887F9E0EF2EF12CEC0EEA
:1007E000FD1ECE010196B7010E9487078E010F5EA4
:1007F0001F4FCE010596B8010E948707C701B801B7
:10080000AE01475E5F4F0E9461020E94B206A09651
:10081000E6E00C945808A0E2B0E0E1E1F4E00C94CA
:10082000300869837A838B839C832D833E834F8337
:100830005887CE010196BE01675F7F4F0E948707F0
:10084000CE010596BE016F5E7F4F0E948707998596
:10085000923088F089898230C8F0943019F482305F
:1008600051F404C0843029F4923081F480E091E0A6
:10087000C6C0923049F420E09A858A89981321E015
:100880002A87CE010996BBC0823049F420E09A85C0
:100890008A89981321E02A8BCE014196B0C02D841D
:1008A0003E844F8458886D887E888F88988CEE248B
:1008B000FF248701AA24BB24650140E050E060E0EA
:1008C00070E0E0E0F0E0C10181709070892BE9F008
:1008D000E60CF71C081D191D9A01AB012A0D3B1DE2
:1008E0004C1D5D1D80E090E0A0E0B0E0E614F70450
:1008F0000805190520F481E090E0A0E0B0E0BA011D
:10090000A901480F591F6A1F7B1FAA0CBB1CCC1CD6
:10091000DD1C97FE08C081E090E0A0E0B0E0A82ACE
:10092000B92ACA2ADB2A3196E032F10549F0660C71
:10093000771C881C991C5694479437942794C3CFEE
:10094000FA85EA892B893C898B859C85280F391F7C
:100950002E5F3F4F17C0CA0181709070892B61F0E4
:1009600016950795F794E79480E090E0A0E0B0E852
:10097000E82AF92A0A2B1B2B7695679557954795F8
:100980002F5F3F4F77FDE7CF0CC0440F551F661F09
:10099000771F17FD4160EE0CFF1C001F111F215037
:1009A0003040403090E0590790E0690790E47907C3
:1009B00060F32B8F3C8FDB01CA018F779070A070A2
:1009C000B07080349105A105B10561F447FD0AC0FE
:1009D000E114F1040105110529F0405C5F4F6F4FF0
:1009E0007F4F40781A8EFE1711F081E08A8F4D8F6D
:1009F0005E8F6F8F78A383E0898FCE0149960E9426
:100A0000B206A096E2E10C944C08A8E1B0E0EBE05D
:100A1000F5E00C94380869837A838B839C832D835B
:100A20003E834F835887B9E0EB2EF12CEC0EFD1E70
:100A3000CE010196B7010E9487078E010F5E1F4FFE
:100A4000CE010596B8010E9487072985223008F457
:100A50007EC03989323010F4B8017CC08A859A8909
:100A600089278A87243011F0223031F4231709F0C6
:100A70006EC060E071E06EC0343039F41D861E86B1
:100A80001F86188A1C861B8604C0323021F484E03D
:100A90008987B7015FC02B853C858B899C89281B82
:100AA000390B3C872B87ED84FE840F851889AD8830
:100AB000BE88CF88D88CEA14FB040C051D0540F4D1
:100AC000EE0CFF1C001F111F215030403C872B876C
:100AD00020E030E040E050E080E090E0A0E0B0E4D2
:100AE00060E070E0EA14FB040C051D0540F0282BC3
:100AF000392B4A2B5B2BEA18FB080C091D09B6950C
:100B0000A79597958795EE0CFF1C001F111F6F5F2F
:100B10007F4F6F31710531F7DA01C9018F7790701E
:100B2000A070B07080349105A105B10561F427FD76
:100B30000AC0E114F1040105110529F0205C3F4FC2
:100B40004F4F5F4F20782D873E874F87588BBE01D0
:100B5000675F7F4FCB010E94B2066896EAE00C9473
:100B60005408A8E0B0E0E7EBF5E00C9439089B01ED
:100B7000AC0183E08983DA01C9018827B7FD839539
:100B80009927AA27BB27B82E211531054105510504
:100B900019F482E089833AC08823A9F0203080E0EC
:100BA000380780E0480780E8580729F460E070E0E3
:100BB00080E09FEC30C0EE24FF248701E21AF30AA4
:100BC000040B150B02C079018A018EE1C82ED12CCD
:100BD000DC82CB82ED82FE820F831887C801B701C9
:100BE0000E94630601971816190684F4082E04C0A3
:100BF000EE0CFF1C001F111F0A94D2F7ED82FE823B
:100C00000F831887C81AD90ADC82CB82BA82CE0138
:100C100001960E94B2062896E9E00C945508ACE0D3
:100C2000B0E0E5E1F6E00C94400869837A838B83B9
:100C30009C83CE010196BE016B5F7F4F0E948707A8
:100C40008D81823061F1823050F1843021F48E81C7
:100C5000882351F12EC02F81388537FD20C06E8149
:100C60002F3131051CF06623F9F023C08EE190E0AE
:100C7000821B930B29853A854B855C8504C056956C
:100C80004795379527958A95D2F76623B1F0509509
:100C90004095309521953F4F4F4F5F4F0EC020E05C
:100CA00030E040E050E009C02FEF3FEF4FEF5FE74B
:100CB00004C020E030E040E050E8B901CA012C96C1
:100CC000E2E00C945C08EF92FF920F931F937B017C
:100CD0008C0180E0E81680E0F80681E0080780E0FB
:100CE000180788F48FEFE816F1040105110531F0BB
:100CF00028F088E090E0A0E0B0E017C080E090E04D
:100D0000A0E0B0E012C080E0E81680E0F80680E0E5
:100D1000080781E0180728F088E190E0A0E0B0E043
:100D200004C080E190E0A0E0B0E020E230E040E0EC
:100D300050E0281B390B4A0B5B0B04C01695079536
:100D4000F794E7948A95D2F7F701E85FFE4F808128
:100D5000281B310941095109C9011F910F91FF90C9
:100D6000EF900895DF92EF92FF920F931F93FC0193
:100D7000E480F58006811781D1808081823048F43B
:100D800080E090E0A0E1B0E0E82AF92A0A2B1B2BD2
:100D9000A5C0843009F49FC0823021F4EE24FF24E2
:100DA000870105C0E114F1040105110519F4E0E023
:100DB000F0E096C0628173819FEF623879070CF092
:100DC0005BC022E83FEF261B370B2A3131052CF0A0
:100DD00020E030E040E050E02AC0B801A701022E38
:100DE00004C076956795579547950A94D2F781E0A8
:100DF00090E0A0E0B0E004C0880F991FAA1FBB1FBD
:100E00002A95D2F70197A109B1098E219F21A0232C
:100E1000B1230097A105B10521F081E090E0A0E0A9
:100E2000B0E09A01AB01282B392B4A2B5B2BDA015E
:100E3000C9018F779070A070B07080349105A105C2
:100E4000B10539F427FF09C0205C3F4F4F4F5F4F7A
:100E500004C0215C3F4F4F4F5F4FE0E0F0E0203097
:100E6000A0E03A07A0E04A07A0E45A0710F0E1E04A
:100E7000F0E079018A0127C06038710564F5FB0153
:100E8000E158FF4FD801C7018F779070A070B07004
:100E900080349105A105B10539F4E7FE0DC080E469
:100EA00090E0A0E0B0E004C08FE390E0A0E0B0E00C
:100EB000E80EF91E0A1F1B1F17FF05C016950795A0
:100EC000F794E794319687E016950795F794E794A1
:100ED0008A95D1F705C0EE24FF248701EFEFF0E0FB
:100EE0006E2F679566276795902F9F77D794DD249F
:100EF000D7948E2F8695492F462B582F5D29B70101
:100F0000CA011F910F91FF90EF90DF900895FC01AF
:100F1000DB01408151812281622F6F7770E0221FB7
:100F20002227221F9381892F880F822B282F30E0C0
:100F3000991F9927991F11969C9311972115310597
:100F4000A9F5411551056105710511F482E037C01D
:100F500082E89FEF13969C938E9312979A01AB01B0
:100F600067E0220F331F441F551F6A95D1F783E0B6
:100F70008C930DC0220F331F441F551F12968D9165
:100F80009C911397019713969C938E931297203000
:100F900080E0380780E0480780E4580758F314964B
:100FA0002D933D934D935C93179708952F3F3105F3
:100FB00079F4411551056105710519F484E08C93AC
:100FC000089564FF03C081E08C9312C01C9210C08E
:100FD0002F57304013963C932E93129783E08C93B7
:100FE00087E0440F551F661F771F8A95D1F77064FD
:100FF00014964D935D936D937C9317970895FB0121
:101000009F01E8944230C4F04532B4F44A3029F4E8
:1010100097FB1EF4909581959F4F642F77270E9430
:10102000F109805D8A330CF0895D8193CB010097D3
:10103000A1F716F45DE251931082C9010C942008C7
:10104000DC01FC01672F71917723E1F7329704C02F
:101050007C916D9370836291AE17BF07C8F30895BA
:101060002F923F924F925F926F927F928F929F92B8
:10107000AF92BF92CF92DF92EF92FF920F931F93A6
:10108000CF93DF93CDB7DEB7CA1BDB0B0FB6F89457
:10109000DEBF0FBECDBF09942A88398848885F8497
:1010A0006E847D848C849B84AA84B984C884DF8008
:1010B000EE80FD800C811B81AA81B981CE0FD11DEC
:1010C0000FB6F894DEBF0FBECDBFED0108950EF050
:1010D0000AC117C1689401C163D1C8F39923D1F340
:1010E000C6F3DF93CF931F930F93FF92C92FDD2792
:1010F00088232AF02197660F771F881FDAF720E0F0
:1011000030E040E85FEB9FE3883920F0803E30F02C
:1011100021968F7753DBE8E6F0E003C04FDBE5E98B
:10112000F0E0F2D08B01BE01EC01FB2E6F5771098C
:101130007595771F880B990B14DD28E132E741E3A1
:101140005FE314D0AF2D9801AE01FF900F911F9176
:10115000CF91DF916FD00BC1FCD028F001D118F0F6
:10116000952309F0BAC0CDC0112435C111D1A0F327
:10117000959FD1F3950F50E0551F629FF001729F2C
:10118000BB27F00DB11D639FAA27F00DB11DAA1F4B
:10119000649F6627B00DA11D661F829F2227B00D98
:1011A000A11D621F739FB00DA11D621F839FA00D23
:1011B000611D221F749F3327A00D611D231F849F73
:1011C000600D211D822F762F6A2F11249F575040CA
:1011D0008AF0E1F088234AF0EE0FFF1FBB1F661F65
:1011E000771F881F91505040A9F79E3F510570F01E
:1011F00074C0F1C05F3FECF3983EDCF386957795C1
:101200006795B795F795E7959F5FC1F7FE2B880F18
:10121000911D9695879597F908959BD030F0A0D0B1
:1012200020F031F49F3F11F41EF46BC00EF4E095F2
:10123000E7FB53C0E92FACD080F3BA1762077307FE
:101240008407950718F071F49EF5C4C00EF4E0957C
:101250000B2EBA2FA02D0B01B90190010C01CA0170
:10126000A0011124FF27591B99F0593F50F4503E1B
:1012700068F11A16F040A22F232F342F4427585F0D
:10128000F3CF469537952795A795F0405395C9F725
:101290007EF41F16BA0B620B730B840BBAF09150DD
:1012A000A1F0FF0FBB1F661F771F881FC2F70EC07C
:1012B000BA0F621F731F841F48F48795779567954F
:1012C000B795F7959E3F08F0B3CF9395880F08F038
:1012D0009927EE0F97958795089597F99F6780E86E
:1012E00070E060E008959F3F31F0915020F48795C1
:1012F00077956795B795880F911D9695879597F97E
:1013000008959FEF80EC0895DF93CF931F930F9381
:10131000FF92EF92DF927B018C01689405C0DA2E78
:10132000EF0124DFFE01E894A591259135914591C7
:101330005591AEF3EF017EDFFE019701A801DA942B
:1013400079F7DF90EF90FF900F911F91CF91DF9190
:10135000089500240A94161617061806090608951B
:1013600000240A9412161306140605060895092E81
:101370000394000C11F4882352F0BB0F40F4BF2BF0
:1013800011F460FF04C06F5F7F4F8F4F9F4F089530
:1013900057FD9058440F551F59F05F3F71F0479526
:1013A000880F97FB991F61F09F3F79F0879508950B
:1013B000121613061406551FF2CF4695F1DF08C02A
:1013C000161617061806991FF1CF86957105610547
:1013D00008940895E894BB2766277727CB0197F9EF
:1013E0000895AA1BBB1B51E107C0AA1FBB1FA6176C
:1013F000B70710F0A61BB70B881F991F5A95A9F7BE
:0E14000080959095BC01CD010895F894FFCF22
:10140E0000000000000000000001020203030303BD
:10141E000404040404040404050505050505050576
:10142E000505050505050505060606060606060656
:10143E00060606060606060606060606060606063E
:10144E000606060606060606070707070707070726
:10145E00070707070707070707070707070707070E
:10146E0007070707070707070707070707070707FE
:10147E0007070707070707070707070707070707EE
:10148E0007070707070707070808080808080808D6
:10149E0008080808080808080808080808080808BE
:1014AE0008080808080808080808080808080808AE
:1014BE00080808080808080808080808080808089E
:1014CE00080808080808080808080808080808088E
:1014DE00080808080808080808080808080808087E
:1014EE00080808080808080808080808080808086E
:1014FE00080808080808080808080808080808085E
:08150E00080808080808080895
:00000001FF
