:100000000C9434000C9449000C9449000C94490061
:100010000C9449000C9449000C9449000C9449003C
:100020000C9449000C9449000C9449000C9449002C
:100030000C9449000C9449000C9449000C9449001C
:100040000C9449000C9449000C9449000C9449000C
:100050000C9449000C9449000C9449000C944900FC
:100060000C9449000C94490011241FBECFEFD8E036
:10007000DEBFCDBF11E0A0E0B1E0EEE8F9E002C0E4
:1000800005900D92A430B107D9F70E943B010C9462
:10009000C5040C940000662311F0289A01C028982A
:1000A0002998549A559A569A579A5F985E985D98EF
:1000B0005C9887FD5F9A86FD5E9A85FD5D9A84FD5A
:1000C0005C9A2A9A00C02A985F985E985D985C981E
:1000D00083FD5F9A82FD5E9A81FD5D9A80FD5C9A48
:1000E0002A9A00C02A985C9A5D9A5E9A5F9A08954F
:1000F000882311F0289A01C02898299A5498559875
:10010000569857982A9A00C04C9B02C080E101C0C3
:1001100080E04D9980624E9980644F9980682A985A
:1001200000C02A9A00C04C9981604D9982604E9916
:1001300084604F9988602A98089580E00E94780032
:1001400087FDFBCF82E090E00197F1F780E00E940D
:10015000780008951F93182F0E949D00812F60E062
:100160000E944B001F9108951F93182F0E949D001D
:10017000812F61E00E944B001F910895662311F4C6
:10018000805801C080540E94AA0008950E949D00DA
:1001900090E0089581E00E94AA00089582E00E9404
:1001A000AA0008951F93182F0E949D001A3049F449
:1001B000803410F080E001C080E480580E94AA00E2
:1001C00004C0812F61E00E944B001F910895CF93DE
:1001D000DF93EC0102C00E94D20089918823D9F7F5
:1001E000DF91CF910895CF93DF93EC0102C00E947D
:1001F000D200FE01219684918823C9F7DF91CF9127
:1002000008951F93182F209A219A229A549A559A4A
:10021000569A579A80E89EE30197F1F75D9A5C9AA7
:100220002A9A00C02A9880E893E10197F1F72A9A68
:1002300000C02A9880E490E0FC013197F1F72A9AF7
:1002400000C02A98FC013197F1F75C982A9A00C007
:100250002A980197F1F788E20E94AA0088E00E949C
:10026000AA000E94CA0086E00E94AA00812F0E9474
:10027000AA001F9108958F929F92AF92BF92CF9242
:10028000DF92EF92FF920F931F93DF93CF93CDB73F
:10029000DEB72A970FB6F894DEBF0FBECDBF8091B0
:1002A0007A00876080937A0080917B008B7F8093B7
:1002B0007B0080917C00806480937C0080917C0036
:1002C00080937C0080917A00806280937A00809194
:1002D0007A00806880937A0080917A0080648093AD
:1002E0007A008CE00E9401012FE7E22E24E8F22E32
:1002F0002EE1022F112DD801C7010197A109B109E3
:10030000000001F0D1F7C89500000E94CA00D80192
:10031000C7010197A109B109000001F0D1F7C89503
:1003200000008FE39CE90197F1F7000000C05E0137
:100330000894A11CB11C90E0892E91E0992E8FE7C2
:10034000C82E84E8D82E8EE1E82EF12C809178001A
:1003500090E02091790000D000D000D0EDB7FEB73A
:100360003196ADB7BEB71296BC92AE9211979382FA
:100370008282122F00E0802B912B958384830E9430
:10038000ED018DB79EB706960FB6F8949EBF0FBECF
:100390008DBF0E94CA00D701C6010197A109B1090A
:1003A000000001F0D1F7C8950000C5010E94E700E8
:1003B000D701C6010197A109B109000001F0D1F7E9
:1003C000C8950000D701C6010197A109B109000035
:1003D00001F0D1F7C8950000B9CFAEE0B0E0E3EF8F
:1003E000F1E00C949C040D891E8986E08C831A83AD
:1003F00009838FEF9FE79E838D839E01275E3F4F8A
:10040000CE0101966F89788DA9010E9411022F817A
:100410003885020F131FF80110822E96E4E00C9429
:10042000B804ABE0B0E0E7E1F2E00C948E043C01EC
:100430002B015A01FC0117821682838181FD03C0C2
:100440006FEF7FEFC6C19AE0892E1E010894211C30
:10045000311CF3012381F20123FD859123FF81915A
:100460002F01882309F4B2C1853239F423FD859127
:1004700023FF81912F01853229F490E0B3010E947E
:100480000404E7CF982FFF24EE249924FFE1FF1501
:10049000D0F09B3269F09C3228F4903259F09332BC
:1004A00091F40EC09D3249F0903369F441E024C0CC
:1004B00052E0F52A84E0F82A28C098E0F92A25C0FD
:1004C000E0E1FE2A22C0F7FC29C0892F80538A3040
:1004D00070F4F6FE05C0989C902C1124980E15C05F
:1004E000E89CE02C1124E80EF0E2FF2A0EC09E32B8
:1004F00029F4F6FC6BC140E4F42A07C09C3619F4D9
:1005000050E8F52A02C0983649F4F20123FD95918E
:1005100023FF91912F01992309F0B8CF892F85549A
:10052000833018F08052833038F444E050E0A40E59
:10053000B51E5FE359830FC0933631F0933779F0DE
:10054000933509F056C020C0F5018081898342E0CF
:1005500050E0A40EB51E610101E010E012C0F501EB
:10056000C080D180F6FC03C06FEF7FEF02C0692D21
:1005700070E042E050E0A40EB51EC6010E94F903EF
:100580008C015FE7F52214C0F501C080D180F6FC34
:1005900003C06FEF7FEF02C0692D70E042E050E0D2
:1005A000A40EB51EC6010E94EE038C0150E8F52A88
:1005B000F3FE07C01AC080E290E0B3010E94040479
:1005C000EA948E2D90E008171907A8F30EC0F601E3
:1005D000F7FC8591F7FE81916F0190E0B3010E94D5
:1005E0000404E110EA94015010400115110579F757
:1005F000EAC0943611F0993669F5F7FE08C0F501A6
:10060000208131814281538184E090E00AC0F5016C
:10061000808191819C01442737FD4095542F82E0D1
:1006200090E0A80EB91E9FE6F92257FF09C0509529
:100630004095309521953F4F4F4F5F4FE0E8FE2AA0
:10064000CA01B901A1012AE030E00E943004D82E8D
:10065000D21840C0953729F41F2D1F7E2AE030E0C4
:100660001DC01F2D197F9F3661F0903720F49835FB
:1006700009F0ACC00FC0903739F0983709F0A6C028
:1006800004C028E030E00AC0106114FD146020E1CD
:1006900030E004C014FD166020E132E017FF08C00E
:1006A000F501608171818281938144E050E008C04E
:1006B000F50180819181BC0180E090E042E050E052
:1006C000A40EB51EA1010E943004D82ED2188FE7C7
:1006D000F82EF122F6FE0BC05EEFF522D91438F4A5
:1006E000F4FE07C0F2FC05C08FEEF82202C01D2DFB
:1006F00001C0192DF4FE0DC0FE01ED0DF11D80812C
:10070000803319F499EEF92208C01F5FF2FE05C08C
:1007100003C08F2D867809F01F5F0F2DF3FC14C0E6
:10072000F0FE0FC01E1510F09D2C0BC09D2C9E0CD2
:10073000911A1E2D06C080E290E0B3010E940404CD
:100740001F5F1E15C0F304C01E1510F4E11A01C08E
:10075000EE2404FF0FC080E390E0B3010E94040484
:1007600002FF1DC001FD03C088E790E00EC088E5D0
:1007700090E00BC0802F867891F001FF02C08BE2E1
:1007800001C080E2F7FC8DE290E0B3010E94040416
:1007900006C080E390E0B3010E9404049A94D91447
:1007A000C0F3DA94F101ED0DF11D808190E0B30109
:1007B0000E940404DD20A9F706C080E290E0B301A6
:1007C0000E940404EA94EE20C1F743CEF30166814F
:1007D0007781CB012B96E2E10C94AA04FC010590F1
:1007E000615070400110D8F7809590958E0F9F1F33
:1007F0000895FC016150704001900110D8F7809578
:1008000090958E0F9F1F08950F931F93CF93DF93A3
:100810008C01EB018B8181FF1BC082FF0DC02E81FB
:100820003F818C819D812817390764F4E881F98123
:100830000193F983E88306C0E885F985802F09953F
:10084000892B31F48E819F8101969F838E8302C014
:100850000FEF1FEFC801DF91CF911F910F91089506
:10086000FA01AA27283051F1203181F1E8946F93E1
:100870006E7F6E5F7F4F8F4F9F4FAF4FB1E03ED087
:10088000B4E03CD0670F781F891F9A1FA11D680F25
:10089000791F8A1F911DA11D6A0F711D811D911D58
:1008A000A11D20D009F468943F912AE0269F1124CD
:1008B0003019305D3193DEF6CF010895462F477031
:1008C000405D4193B3E00FD0C9F7F6CF462F4F708C
:1008D000405D4A3318F0495D31FD4052419302D0EA
:1008E000A9F7EACFB4E0A695979587957795679590
:1008F000BA95C9F700976105710508959B01AC0190
:100900000A2E06945795479537952795BA95C9F7B6
:10091000620F731F841F951FA01D08952F923F9291
:100920004F925F926F927F928F929F92AF92BF92FF
:10093000CF92DF92EF92FF920F931F93CF93DF93AB
:10094000CDB7DEB7CA1BDB0B0FB6F894DEBF0FBE08
:10095000CDBF09942A88398848885F846E847D8455
:100960008C849B84AA84B984C884DF80EE80FD8057
:100970000C811B81AA81B981CE0FD11D0FB6F894CD
:0E098000DEBF0FBECDBFED010895F894FFCF8E
:04098E0025640A00D2
:00000001FF
