:100000000C948C010C94A9010C94A9010C94A901E5
:100010000C94A9010C94A9010C94A9010C94A901B8
:100020000C94A9010C94A9010C94A9010C94A901A8
:100030000C94A9010C94A9010C94A9010C94A90198
:100040000C94A9010C94A9010C94D6020C94A9015A
:100050000C94A9010C94E81B0C94A9010C94A9011F
:100060000C94A9010C94A9010D0A00476C6F626100
:100070006C20696E7465727275707420656E616251
:100080006C65640D0A004E6577204C6F67204372E3
:1000900065617465640D0A0044656C65746564206F
:1000A00070726576756F697573204C6F670D0A0005
:1000B00053442D434152442020696E697469616C38
:1000C000697A65640D0A005561727420696E6974FD
:1000D00069616C697A65640D0A006572726F7220DD
:1000E00064656C6574696E672066696C653A2000AA
:1000F0006572726F72206F70656E696E6720006343
:10010000616C6C20696E69745F73646361726428EA
:1001100029206669727374200A0053442043617277
:1001200064206E6F7420696E697469616C697A65A8
:10013000642070726F7065726C790A006572726FFC
:10014000722077726974696E6720746F2066696CBB
:10015000650A006572726F72207365656B696E6700
:10016000206F6E20006572726F72206F70656E690D
:100170006E67200063616C6C20696E69745F7364E4
:100180006361726428292066697273740A0053449B
:100190002043617264206E6F7420696E69746961B6
:1001A0006C697A65642070726F7065726C790A0090
:1001B0006572726F722077726974696E6720746FEE
:1001C0002066696C650A006572726F7220736565DE
:1001D0006B696E67206F6E20006572726F72206FA0
:1001E00070656E696E67200063616C6C20696E6972
:1001F000745F736463617264282920666972737422
:100200000A0053442043617264206E6F7420696E4B
:10021000697469616C697A65642070726F70657267
:100220006C790A006572726F72206372656174691D
:100230006E672066696C653A20006F70656E696E46
:100240006720726F6F74206469726563746F72796E
:10025000206661696C65640A006F70656E696E671F
:100260002066696C6573797374656D206661696C6D
:1002700065640A006F70656E696E672070617274E4
:100280006974696F6E206661696C65640A004D4D22
:10029000432F534420696E697469616C697A617493
:1002A000696F6E206661696C65640A0066726565D7
:1002B0003A20202000666F726D61743A20007772D8
:1002C0002E70722E3A2000636F70793A2020200041
:1002D0004D420A0073697A653A20202000646174F7
:1002E000653A2020200073657269616C3A2030788D
:1002F000007265763A202020200070726F643A20E8
:100300002020006F656D3A20202020006D616E7501
:10031000663A20203078000011241FBECFEFD8E0CD
:10032000DEBFCDBF12E0A0E0B1E0E4E6FEE402C033
:1003300005900D92A632B107D9F715E0A6E2B2E01A
:1003400001C01D92A430B107E1F70E94EC1A0C9491
:1003500030270C9400001092C50087E68093C400FB
:1003600086E08093C20088E98093C10008951F93BE
:10037000182F8A3019F48DE00E94B7018091C000D7
:1003800085FFFCCF1093C6001F9108951F93182F6F
:1003900082958F708A3010F4805D01C0895A0E9466
:1003A000B701812F90E08F709070212F2F700A97E6
:1003B0001CF4822F805D02C0822F895A0E94B701EF
:1003C0001F9108951F93182F892F0E94C601812F16
:1003D0000E94C6011F910895EF92FF920F931F9301
:1003E0007B018C01C801AA27BB270E94E201C7013B
:1003F0000E94E2011F910F91FF90EF900895CF921C
:10040000DF92FF920F931F93CF93DF936C01C0E1B4
:10041000D7E240E000E010E0C601BE010E943426B1
:10042000F62E662329F4442319F4C130D10529F4AA
:100430008F2D805D0E94B70141E0CE016AE070E03F
:100440000E9434260F5F1F4F0530110571F08F2D6C
:1004500090E09C012C9FC0012D9F900D3C9F900D22
:100460001124C81AD90AEB01D7CFDF91CF911F9180
:100470000F91FF90DF90CF9008954F925F926F920F
:100480007F928F929F92AF92BF92CF92DF92EF9224
:10049000FF920F931F93CF93DF935B016C01E12CCD
:1004A0009AECF92E9AE9092F9BE3192F4424C0E016
:1004B000D0E0C601B501A80197010E945B26922EEB
:1004C000222341F4442031F481E0E816F1040105CF
:1004D000110531F4892D805D0E94B70144244394B5
:1004E000C801B7012AE030E040E050E00E945B26FE
:1004F000822E732E642E552E2196CA30D105A9F076
:10050000692D70E080E090E0A80197010E94152617
:10051000A61AB70AC80AD90A282D372D462D552DF7
:10052000C901DA017C018D01C4CFDF91CF911F9108
:100530000F91FF90EF90DF90CF90BF90AF909F9082
:100540008F907F906F905F904F900895CF93DF933F
:10055000EC0103C021960E94B70188818823D1F75E
:10056000DF91CF910895CF93DF93EC01FE012196A7
:100570008491882319F00E94B701F8CFDF91CF91C1
:1005800008959FB7789407C083B7816083BF88952B
:1005900083B78E7F83BF8091C00087FFF5CF9FBF59
:1005A0008091C6008D3009F48AE008951895FC0109
:1005B000009711F0118210820895DF93CF9300D03D
:1005C000CDB7DEB7DC01009781F16230710568F1CB
:1005D000ED91FC911197660F771F80E090E01696E1
:1005E0002D913D914D915C911997620F731F841F5E
:1005F000951F0190F081E02DAE014F5F5F4F22E02B
:1006000030E00995882389F029813A812115310547
:1006100071F08FEF273F380741F0C90140960797E7
:1006200020F08FEF283F380710F020E030E0C901BC
:100630000F900F90CF91DF9108954F925F926F923C
:100640007F928F929F92AF92BF92CF92DF92EF9262
:10065000FF920F931F93DF93CF9300D0CDB7DEB7F8
:100660005C01009709F449C06230710508F445C087
:10067000DC0116966D907D908D909C9019972E01BF
:100680000894411C511C660F771F7B0100E010E0AD
:10069000E60CF71C081D191DD501ED91FC91019088
:1006A000F081E02DC801B701A20122E030E00995F8
:1006B000882319F1C980DA80C114D10401F1C6017F
:1006C00040960897D0F0B8EFCB16BFEFDB0610F0DE
:1006D000CC24DD241A821982D501ED91FC9104808D
:1006E000F581E02DC801B701A20122E030E00995B3
:1006F000B601C114D10439F602C080E001C081E026
:100700000F900F90CF91DF911F910F91FF90EF907D
:10071000DF90CF90BF90AF909F908F907F906F9021
:100720005F904F9008952F923F924F925F926F92F9
:100730007F928F929F92AF92BF92CF92DF92EF9271
:10074000FF920F931F93DF93CF93CDB7DEB72C9714
:100750000FB6F894DEBF0FBECDBF4C011B01CA011E
:100760008114910409F4ABC0D401ED91FC9111976F
:10077000208131813C872B87448155815A87498765
:1007800016962D913D914D915C9119972D833E8345
:100790004F8358875A96AD90BC905B971A962D91CF
:1007A0003D914D915C911D975695479537952795AD
:1007B0003C832B835B961C921E925A973C01290125
:1007C000CC24DD2454C0B2E0AB16B10428F0EB8198
:1007D000FC81AE16BF0618F062E0A62EB12CC50152
:1007E000880F991F7C0100E010E02D813E814F8130
:1007F0005885E20EF31E041F151FC801B701AE0194
:100800004F5F5F4F22E030E0AB85BC85FD0109956D
:10081000882309F454C089819A81892B11F56114C8
:10082000710421F4F401B38EA28E27C0C114D10447
:1008300029F42FEF3FEF3A83298302C0DA82C9827D
:10084000C801B701AE014F5F5F4F22E030E0A985DC
:10085000BA85FD010995882371F108946108710832
:1008600065010894410851080894A11CB11C411469
:10087000510409F0A8CF6728F1F4B2E02B16310437
:1008800000F1C982DA82220C331CB10180E090E0D1
:100890002D813E814F815885620F731F841F951FE4
:1008A000AE014F5F5F4F22E030E0A985BA85FD01C0
:1008B0000995882331F4C401B6010E941D03CC249C
:1008C000DD24C6012C960FB6F894DEBF0FBECDBF57
:1008D000CF91DF911F910F91FF90EF90DF90CF901C
:1008E000BF90AF909F908F907F906F905F904F9050
:1008F0003F902F90089580E190E00895FC010097CB
:1009000011F01182108208952F923F924F925F92C0
:100910006F927F928F929F92AF92BF92CF92DF920F
:10092000EF92FF920F931F93DF93CF93CDB7DEB774
:100930002A970FB6F894DEBF0FBECDBF2C017A8385
:1009400069835C834B83009709F409C1672B09F421
:1009500006C1452B09F403C1DC019D96AD90BD9005
:10096000CD90DC90D09795962D913D914D915C91D5
:100970009897EB81FC81CF01A0E0B0E08A0D9B1D30
:10098000AC1DBD1D281739074A075B0740F4B901A4
:100990006A197B097C836B83672B09F4E3C0D2015E
:1009A000ED91FC91119720883188D196ED91FC91C1
:1009B000D297FA87E987EF2BF1F593962D913C9129
:1009C00094973A872987232B39F4A114B104C104E1
:1009D000D10409F4C7C0C3C0A114B104C104D10437
:1009E00051F1860175013101882499246627772702
:1009F000CB0166197709880999096D837E838F83F6
:100A0000988714C0D2018D919C9169857A850E9446
:100A1000DD029A878987892B09F4A1C06D817E81C7
:100A20008F819885E60EF71E081F191FE614F7043C
:100A30000805190538F7089421083108A220B320C9
:100A40000894211C311CCB80DC80D201ED90FC90FD
:100A5000E114F10409F1E985FA85E230F105E0F0ED
:100A60003297BF0180E090E03296FA87E987D7019C
:100A700050962D913C91519740E050E00E941526F0
:100A80009B01AC01F70182899389A489B589280F5C
:100A9000391F4A1F5B1F04C020E030E040E050E0F7
:100AA00081010A191B09C016D10608F48601D70175
:100AB000ED91FC91C501A0E0B0E0280F391F4A1F5D
:100AC0005B1F0190F081E02DCA01B90149815A8173
:100AD00098010995882341F1C01AD10AC801A0E004
:100AE000B0E0F20125A536A547A550A9280F391F6A
:100AF0004A1F5B1FD2019D962D933D934D935C93AE
:100B0000D097C8018A0D9B1D82159305A0F08D9189
:100B10009C9169857A850E94DD029A878987892B55
:100B200041F4F20112AA11AA4B815C814C195D09B2
:100B30001BC0AA24BB24E985FA85D201D296FC9376
:100B4000EE93D197C114D10439F029813A81200F55
:100B5000311F3A83298379CF4B815C8105C04FEFE8
:100B60005FEF02C040E050E0CA012A960FB6F89449
:100B7000DEBF0FBECDBFCF91DF911F910F91FF90D0
:100B8000EF90DF90CF90BF90AF909F908F907F902D
:100B90006F905F904F903F902F900895FC010097C9
:100BA00011F0118210820895FC01009711F480E089
:100BB000089583A194A196A785A710AA17A681E0FE
:100BC00008957F928F929F92AF92BF92CF92DF92C1
:100BD000EF92FF920F931F93DF93CF93CDB7DEB7C2
:100BE0002C970FB6F894DEBF0FBECDBF6C015B0132
:100BF000009709F453C06115710509F44FC0DB017A
:100C00009796ED90FD900D911C919A97E114F10447
:100C10000105110509F442C04E010894811C911C84
:100C2000E5EE7E2ED601ED91FC910190F081E02D54
:100C3000C801B701A4012CE030E00995882371F1C7
:100C40007982D601ED91FC910480F581E02DC801F7
:100C5000B701A4012CE030E009958823F9F08C85D8
:100C60008F3049F480E290E0A0E0B0E0E80EF91E99
:100C70000A1F1B1FD7CFD50191966D917C9192973A
:100C80006115710539F0C6010E941D0320E030E0B6
:100C9000882311F021E030E0822F01C080E02C9603
:100CA0000FB6F894DEBF0FBECDBFCF91DF911F917D
:100CB0000F91FF90EF90DF90CF90BF90AF909F90FB
:100CC0008F907F900895FC01009729F420E030E098
:100CD00040E050E014C062857385848595859695C3
:100CE0008795779567956250704080409040208945
:100CF000318940E050E00E9415269B01AC01B9010A
:100D0000CA0108952F923F924F925F926F927F9205
:100D10008F929F92AF92BF92CF92DF92EF92FF920B
:100D20000F931F93DF93CF93CDB7DEB7A6970FB680
:100D3000F894DEBF0FBECDBF9EA38DA3892B09F40F
:100D40005DC01A82198280E290E09C838B83ADA102
:100D5000BEA116964D905D906D907C9019971A9655
:100D60008D909D90AD90BC901D9734C0BEEF8B16BA
:100D7000BFEF9B06B0E0AB06B0E0BB0628F01EEF6D
:100D8000212E1FEF312E01C01401ADA1BEA1ED91A6
:100D9000FC910280F381E02DC301B201AE014B5FF3
:100DA0005F4F20E230E08101BDE1EB2EB7E0FB2E8A
:100DB0006E010894C11CD11C09958823F9F0C1016A
:100DC000A0E0B0E0480E591E6A1E7B1E881A990AE0
:100DD000AA0ABB0A81149104A104B10439F6EDA159
:100DE000FEA16089718980E090E029813A8140E02C
:100DF00050E00E9415269B01AC0104C020E030E0C9
:100E000040E050E0B901CA01A6960FB6F894DEBFE3
:100E10000FBECDBFCF91DF911F910F91FF90EF904B
:100E2000DF90CF90BF90AF909F908F907F906F900A
:100E30005F904F903F902F900895DC01F90142811F
:100E4000538120E030E00DC08D919C911197892B4A
:100E500029F4808191810196918380832E5F3F4F99
:100E600012962417350780F381E0089581E00895F4
:100E700080E00895282F8FEF8EBD0DB407FEFDCFC3
:100E80008DB58F778DBD8EB5822F80648EBD0DB4EC
:100E900007FEFDCF8DB58F778DBD872F9927AA27A8
:100EA000BB278EBD0DB407FEFDCF8DB58F778DBDF1
:100EB000CB01AA27BB278EBD0DB407FEFDCF8DB594
:100EC0008F778DBDBB27A72F962F852F8EBD0DB495
:100ED00007FEFDCF8DB58F778DBD4EBD0DB407FEDE
:100EE000FDCF8DB58F778DBD222319F0283069F4A1
:100EF00006C085E98EBD0DB407FEFDCF0BC087E8A7
:100F00008EBD0DB407FEFDCF05C08FEF8EBD0DB4B5
:100F100007FEFDCF8DB58F778DBD90E02FEF2EBDF5
:100F20000DB407FEFDCF8DB58F778DBD8EB58F3F8C
:100F300019F49F5F9A3099F70895FC01009711F416
:100F400080E00895108681E008958F929F92AF927D
:100F5000BF92CF92DF92EF92FF920F93DF93CF93E6
:100F6000CDB7DEB760970FB6F894DEBF0FBECDBF2A
:100F70007C016B015A014901009709F493C0611586
:100F8000710509F48FC004300CF08CC007FD1DC042
:100F9000602F772767FD7095E4E0660F771FEA956D
:100FA000E1F762547E4F882777FD8095982FAE0138
:100FB0004F5F5F4F20E130E0F7010995882309F486
:100FC00071C08D81882309F46DC08091F504882358
:100FD00009F068C07CC08D818093F5042A8530E0DB
:100FE00040E050E0542F432F322F22278B8590E092
:100FF000A0E0B0E0DC0199278827282B392B4A2B69
:101000005B2B898590E0A0E0B0E0282B392B4A2BA0
:101010005B2B8C8590E0A0E0B0E0B82FAA27992741
:101020008827282B392B4A2B5B2B2093F6043093EF
:10103000F7044093F8045093F9042E8530E040E023
:1010400050E0542F432F322F22278F8590E0A0E0CD
:10105000B0E0DC0199278827282B392B4A2B5B2B02
:101060008D8590E0A0E0B0E0282B392B4A2B5B2B3C
:10107000888990E0A0E0B0E0B82FAA2799278827B8
:10108000282B392B4A2B5B2B2093FA043093FB043B
:101090004093FC045093FD0403C08FEF8093F5044C
:1010A0009F0102C020E030E0C90160960FB6F894BD
:1010B000DEBF0FBECDBFCF91DF910F91FF90EF90BC
:1010C000DF90CF90BF90AF909F908F900895EDEEFE
:1010D000F4E081E1DF011D928A95E9F7F092EE04D8
:1010E000E092ED04D092F004C092EF04B092F204CA
:1010F000A092F1049092F4048092F30407FF6BCF66
:10110000CCCFCF92DF92EF92FF920F931F93CF93AA
:10111000DF93EC01009781F089E1FE0111928A953D
:10112000E9F72A988AE040E050E060E070E00E9431
:101130003A07882319F02A9A80E0F7C09FEF9EBDF6
:101140000DB407FEFDCF8DB58F778DBD8EB58E3F6B
:10115000B1F71C2FCE01FC0160E670E00FEF9E2F6F
:10116000911B0EBD0DB407FEFDCF8DB58F778DBDE4
:101170002EB5983028F4933088F4992359F00CC098
:101180009D3018F4993070F40BC09D3019F19E30E9
:1011900069F524C028832AC0208328C0218326C063
:1011A0002A8724C030E040E050E0062E04C0220F21
:1011B000331F441F551F0A94D2F78B859C85AD853C
:1011C000BE85822B932BA42BB52B8B879C87AD8759
:1011D000BE870CC02295207F2F8708C0922F929542
:1011E0009F708F85892B8F872F70288B3196685041
:1011F00070408FEF603D780709F0B1CF89E040E0A3
:1012000050E060E070E00E943A07882309F093CF35
:101210009FEF9EBD0DB407FEFDCF8DB58F778DBDC1
:101220008EB58E3FB1F7F0E070E020E030E040E0B6
:1012300050E060E01FEFE1E01EBD0DB407FEFDCF02
:101240008DB58F778DBD8EB56E3079F490E086FDCB
:10125000ED8B85FDEE8B84FDEF8B8C7090709595FA
:10126000879595958795888F5AC06730F9F06830D3
:1012700030F4653061F0663009F051C00BC0693060
:10128000A1F1693010F16A3009F049C032C0F82F7D
:10129000FF7045C090E0A0E0B0E083709070A07057
:1012A000B0702227382F492F5A2F39C090E0A0E084
:1012B000B0E0282B392B4A2B5B2BA2E0220F331FE7
:1012C000441F551FAA95D1F72AC082958695869509
:1012D000837090E0A0E0B0E0282B392B4A2B5B2BE9
:1012E0002F5F3F4F4F4F5F4F1AC0782F7370770FAC
:1012F00016C0881F8827881F782B8F2F90E00296B2
:10130000870F911D69017A0104C0CC0CDD1CEE1C15
:10131000FF1C8A95D2F7C98ADA8AEB8AFC8A6F5F4A
:10132000623109F089CF2A9A81E0DF91CF911F9134
:101330000F91FF90EF90DF90CF900895CF92DF92C2
:10134000EF92FF920F931F93DF93CF93CDB7DEB74A
:1013500060970FB6F894DEBF0FBECDBF8C01623030
:10136000710510F480E035C0009729F440E050E0AA
:1013700060E070E016C06250704080E090E0F801DC
:101380002089318940E050E00E941526AB01BC0164
:10139000F80182899389A489B589480F591F6A1F6A
:1013A0007B1FDE01119680E1FD0111928A95E9F71C
:1013B000F8018081918120893189FC01C680D78024
:1013C000CB01BA01AD010BE714E0EE24FF24F601D6
:1013D000099560960FB6F894DEBF0FBECDBFCF91D2
:1013E000DF911F910F91FF90EF90DF90CF900895C4
:1013F0002F923F924F925F926F927F928F929F9225
:10140000AF92BF92CF92DF92EF92FF920F931F9312
:10141000DF93CF93CDB7DEB7AA970FB6F894DEBFB0
:101420000FBECDBF4C01DB01009709F4B5C06115BB
:10143000710509F4B1C0FC0160807180F30120885E
:101440003188FC01A5A4B6A427A530A9221533052F
:1014500008F07EC0AE014F5F5F4F86E0FA01119247
:101460008A95E9F78BE2FB0111928A95E9F7A114BD
:10147000B10409F074C0F301228833888689978902
:10148000281A390A6CC0720100E010E0A114B104FE
:1014900041F4D30156966D917D918D919C91599710
:1014A00024C061147104D9F0B2E0AB16B104B8F0F5
:1014B000F3012089318940E050E06FA178A589A52A
:1014C0009AA50E9415269B01AC01F301828993899C
:1014D000A489B589280F391F4A1F5B1F04C020E06B
:1014E00030E040E050E0CA01B9016E0D7F1D801F61
:1014F000911F1C821B82D301ED91FC918101041983
:1015000015090280F381E02DAE01495F5F4F20E2B3
:1015100030E0B6EEEB2EBAE0FB2E6E010894C11C53
:10152000D11C09958823C1F18B819C81480E591EDD
:101530004214530430F1C301B5010E94DD025C0185
:1015400020E030E0009769F48E818823F1F4F40103
:1015500083A194A196A785A710AA17A61DC0BA8338
:10156000A98329018EEF9FEFA80EB91EC501A0E047
:10157000B0E08FA398A7A9A7BAA7A2E0B0E0AA0EEF
:10158000BB1E8E81882309F47ECFF401B6A6A5A6E2
:1015900050AA47A68E8101C080E0AA960FB6F894A3
:1015A000DEBF0FBECDBFCF91DF911F910F91FF9096
:1015B000EF90DF90CF90BF90AF909F908F907F90F3
:1015C0006F905F904F903F902F900895CF92DF9251
:1015D000EF92FF920F931F93CF93DF938C016A01D9
:1015E0007B01A901D901CD91DC91119712968D91C2
:1015F0009C911397809613969C938E931297F80163
:101600009081953E11F0992321F4DA0114961C92F1
:10161000C3C0F80183858F30E1F5D90114969C9100
:10162000992319F08585981771F08BE2FE011192CC
:101630008A95E9F7D8011D968C91FA018483CFA28F
:10164000D8A6E9A6FAA6D8018C9190E08F73907085
:101650002DE030E0829FA001839F500D929F500D9E
:1016600011244D505040A0E1B1E0C40FD51F0DC072
:101670008D91F801E80FF11D808189934F5F5F4FD5
:10168000E1E0AD31BE0709F487C04F31510580F369
:1016900083C088818823A1F0D90114963C91F80178
:1016A00021E0892F8695979599279795982B818189
:1016B000980F2F5F31962B30A1F7391709F457C0D7
:1016C0008BE2FE0111928A95E9F7CFA2D8A6E9A68E
:1016D000FAA6B801DE01780120E0F701908190328E
:1016E000A1F09C93F801848583FF08C0F7018081F5
:1016F000813420F08B3510F4905E9C932F5F08941A
:10170000E11CF11C1196283041F78881853011F4D5
:1017100085EE8883D80118968C91803221F1FE01E4
:10172000E20FF11D8EE28083322F3F5F2C5FFB01C1
:1017300090859032B9F0FE01E30FF11D9083D8013E
:101740001C968C9184FF09C0DB0118968C91813422
:1017500020F08B3510F4905E90833F5F6F5F7F4F7A
:10176000321729F7232FFE01E20FF11D1082F80135
:10177000838588A3828D938D9AA389A3848D958D6B
:10178000A68DB78D8BA39CA3ADA3BEA381E0DA0188
:1017900015968C9380E001C081E0DF91CF911F917D
:1017A0000F91FF90EF90DF90CF9008952F923F928E
:1017B0004F925F926F927F928F929F92AF92BF9261
:1017C000CF92DF92EF92FF920F931F93DF93CF930D
:1017D000CDB7DEB7A8970FB6F894DEBF0FBECDBF6A
:1017E00098A78FA3009709F45CC1DC0114968D9132
:1017F0009C911597892B09F454C116968D919C9153
:101800001797892B09F44DC168C1E6E3F2E08CE13A
:10181000DF011D928A95E9F7EFA1F8A5F093370251
:10182000E0933602218432844384548459E0220CAC
:10183000331C441C551C5A95D1F7C201B101655F98
:101840007F4F8F4F9F4F0190F081E02DAE014F5F92
:101850005F4F29E130E00995882309F445C1E9810A
:10186000FA81FBA3EAA32C813D81FB81FCA34E817D
:101870008F8198859EA38DA3E985FA856C857D85EA
:101880006E887F88888C998C61147104810491041E
:1018900031F4309709F428C13F0188249924611557
:1018A000710509F421C1C901A0E0B0E08E8F9F8FBE
:1018B000A8A3B9A380E090E0242F30E040E050E0FE
:1018C0000E9415266A8F7B8F8C8F9D8F84017301F8
:1018D0002E8D3F8D48A159A1E21AF30A040B150B76
:1018E000E61AF70A080B190B8AA19BA101972DA1F3
:1018F0003EA145E0220F331F4A95E1F7820F931F67
:101900006AA17BA10E94342680E090E0E61AF70AE3
:10191000080B190B8CA1282F30E040E050E0C801E3
:10192000B7010E945B2679018A0195EFE9169FE0D5
:10193000F90690E0090790E0190708F4D5C0A5EF73
:10194000EA16AFEFFA06A0E00A07A0E01A0728F4AB
:1019500086E0EFA1F8A5808705C08BE0AFA1B8A510
:1019600018968C9388E1E8E3F2E0DF011D928A95F6
:10197000E9F7EAA1FBA15F01CC24DD24C401B30196
:10198000A60195010E9415266093380270933902D2
:1019900080933A0290933B02C601B5012E8D3F8D94
:1019A00048A159A10E941526260E371E481E591E11
:1019B00020923C0230923D0240923E0250923F0201
:1019C000AFA1B8A518968C91863029F064E070E03C
:1019D00080E090E004C062E070E080E090E022E00F
:1019E00030E040E050E0E20EF31E041F151FA80196
:1019F00097010E94152660934002709341028093E4
:101A00004202909343024AA15BA150934502409346
:101A100044025CA1852F90E0DC01EAA1FBA1AE9F0E
:101A2000C001AF9F900DBE9F900D1124909347026F
:101A3000809346026A8D7B8D8C8D9D8DA6019501CC
:101A40000E94152620913C0230913D0240913E02B9
:101A500050913F02620F731F841F951F60934C02C9
:101A600070934D0280934E0290934F02ADA1BEA1A0
:101A70009D0140E050E015E0220F331F441F551F29
:101A80001A95D1F7620F731F841F951F6093480248
:101A90007093490280934A0290934B0226E332E00E
:101AA00002C020E030E0C901A8960FB6F894DEBF6E
:101AB0000FBECDBFCF91DF911F910F91FF90EF909F
:101AC000DF90CF90BF90AF909F908F907F906F905E
:101AD0005F904F903F902F900895809136029091A3
:101AE0003702892BF1F691CE10923702109236020E
:101AF000D8CF2F923F924F925F926F927F928F92A8
:101B00009F92AF92BF92CF92DF92EF92FF920F938C
:101B10001F93CF93DF934B015C012A0139013324DA
:101B20003A9422242394A1C0E401D170CE01A0E014
:101B3000B0E085017401E81AF90A0A0B1B0BC12CED
:101B400062E0D62ECC1ADD0A6C147D0408F4630121
:101B50008091E7049091E804A091E904B091EA042F
:101B6000E816F9060A071B07F9F00E944F0E8823B2
:101B700009F481C0209729F480E0C81682E0D806D5
:101B800058F4C801B70147EE52E020E032E00E946D
:101B9000690E882309F46FC0E092E704F092E8042C
:101BA0000093E9041093EA0487EE481682E0580691
:101BB00071F09E0129513D4FC901B201A6010E9459
:101BC00028231092EB046C147D0409F452C02A9867
:101BD00088E1B801A7010E943A07882311F02A9AE8
:101BE0004AC08EEF8EBD0DB407FEFDCF8DB58F7749
:101BF0008DBDE7EEF2E081918EBD0DB407FEFDCF05
:101C00008DB58F778DBD84E0E73EF807A1F73EBC28
:101C10000DB407FEFDCF8DB58F778DBD3EBC0DB4E5
:101C200007FEFDCF8DB58F778DBD3EBC0DB407FE91
:101C3000FDCF8DB58F778DBD8EB58F3FB1F78EBD42
:101C40000DB407FEFDCF8DB58F778DBD8EB52A9A69
:101C50004C0C5D1CC601A0E0B0E0880E991EAA1EC7
:101C6000BB1E6C187D082092EB046114710409F00E
:101C70005BCF81E001C080E0DF91CF911F910F9198
:101C8000FF90EF90DF90CF90BF90AF909F908F909C
:101C90007F906F905F904F903F902F90089580912C
:101CA000EB04882311F081E008956091E7047091BE
:101CB000E8048091E9049091EA0447EE52E020E0C4
:101CC00032E00E94790D882319F081E08093EB04C3
:101CD00008953F924F925F926F927F928F929F9260
:101CE000AF92BF92CF92DF92EF92FF920F931F932A
:101CF000CF93DF933B014C016A01290133243A94CD
:101D00008FC07FEFA72E71E0B72EA620B720C501A8
:101D1000A0E0B0E084017301E81AF90A0A0B1B0B7A
:101D2000C0E0D2E0CA19DB094C165D0608F4E201F6
:101D30008091E7049091E804A091E904B091EA044D
:101D4000E816F9060A071B0709F457C00E944F0E50
:101D5000882309F46AC02A9881E1B801A7010E948A
:101D60003A07882319F02A9A80E05FC03EBC0DB480
:101D700007FEFDCF8DB58F778DBD8EB58E3FB1F748
:101D8000E7EEF2E03EBC0DB407FEFDCF8DB58F77D8
:101D90008DBD8EB5808384E0E63EF80711F0319664
:101DA000F1CFE092E704F092E8040093E904109385
:101DB000EA04950129513D4FC601B901AE010E94C7
:101DC00028233EBC0DB407FEFDCF8DB58F778DBDAA
:101DD0008EB53EBC0DB407FEFDCF8DB58F778DBDA2
:101DE0008EB52A9A3EBC0DB407FEFDCFCC0EDD1E8B
:101DF0008DB58F778DBD8EB50AC0950129513D4FA8
:101E0000C601B901AE010E942823CC0EDD1E4C1A7A
:101E10005D0ACE01A0E0B0E0680E791E8A1E9B1E0E
:101E20004114510409F06DCF81E0DF91CF911F91F2
:101E30000F91FF90EF90DF90CF90BF90AF909F9069
:101E40008F907F906F905F904F903F9008952F926A
:101E50003F924F925F926F927F928F929F92AF923A
:101E6000BF92CF92DF92EF92FF920F931F93DF9377
:101E7000CF9300D000D0CDB7DEB74B015C013A0163
:101E80003C832B832701DA82C98241155105A9F1D0
:101E90002115310591F10217130778F1E114F104CE
:101EA00061F119013094219431083394021B130B12
:101EB0006901EE24FF24C501B401A3012B813C81FB
:101EC0000E94690E8823C9F0C301B501A4012981CC
:101ED0003A81F2010995882391F0020D131D8B813F
:101EE0009C81800F911F2B813C818217930738F0D2
:101EF0008C0C9D1CAE1CBF1CDECF80E001C081E0BD
:101F00000F900F900F900F90CF91DF911F910F9135
:101F1000FF90EF90DF90CF90BF90AF909F908F9009
:101F20007F906F905F904F903F902F9008950F9308
:101F30001F93CF93DF93239A259A229A24982A9A63
:101F400083E58CBD8DB58E7F8DBD1092EC0490E045
:101F50002FEF2EBD0DB407FEFDCF8DB58F778DBD54
:101F60008EB59F5F9A30A9F72A98C0E0D0E080E054
:101F700040E050E060E070E00E943A07182F8130A6
:101F800039F081E0CF3FD80709F440C02196EFCF68
:101F900087E340E050E060E070E00E943A0789E2A9
:101FA00040E050E060E070E00E943A0782FD02C02D
:101FB0001093EC048091EC04082F10E00370107073
:101FC000C0E0D0E00115110549F087E340E050E0A2
:101FD00060E070E00E943A0789E201C081E040E0E1
:101FE00050E060E070E00E943A0780FF06C08FE793
:101FF000CF3FD80759F02196E5CF80E140E052E08D
:1020000060E070E00E943A07882319F02A9A80E085
:1020100022C02A9A8CB58C7F8CBD8DB581608DBD18
:102020008FEF9FEFAFEFBFEF8093E7049093E8044B
:10203000A093E904B093EA0481E08093EB0460E0AC
:1020400070E080E090E047EE52E020E032E00E9455
:10205000690E811181E0DF91CF911F910F91089559
:102060004F925F926F927F928F929F92AF92BF92A8
:10207000CF92DF92EF92FF920F931F93CF93DF9354
:102080005B016C014A01E901380127014115510545
:1020900071F10115110559F1FF242115310511F5D3
:1020A000FF24F3941FC0C401B601A5019201F301FE
:1020B00009958C010097E9F0FF2019F4C817D9079A
:1020C000B0F0C601B501A40198010E94790D8823E2
:1020D00071F0C801A0E0B0E0A80EB91ECA1EDB1E58
:1020E000C01BD10BFF20F9F62097E9F602C080E073
:1020F00001C081E0DF91CF911F910F91FF90EF9090
:10210000DF90CF90BF90AF909F908F907F906F9017
:102110005F904F900895CF93DF93AC01DB01009760
:1021200089F16115710571F190968C91909784FFFA
:1021300029C08091850290918602892B19F4E5E8E7
:10214000F2E008C08091B6029091B702892BD1F4D9
:10215000E6EBF2E09F012E5F3F4FBD018BE2EB010A
:102160000990BE01E90109929E018150C1F7518396
:10217000408391968D919C91929796A785A710AADE
:1021800017A602C0E0E0F0E0CF01DF91CF91089503
:10219000CF93DF939C01FB01009731F0611571052E
:1021A00019F080A184FF23C020E030E0C901DF9155
:1021B000CF910895C4E5D2E0DF018BE20D90099242
:1021C0008150E1F7309353022093520210927F0224
:1021D00010928002109281021092820281A192A13B
:1021E000909384028093830222E532E0DFCF8091D6
:1021F000520290915302892BB9F6DCCFEF92FF92F5
:102200000F931F93CF93DF93EB018A01790110C0E5
:10221000C701B8010E944323009751F4209731F081
:102220008BA19CA19EA78DA718AA1FA681E006C01E
:10223000CE01B7010E94F809882351F7DF91CF91B1
:102240001F910F91FF90EF900895EF92FF920F93DF
:102250001F93DF93CF93CDB7DEB7AB970FB6F8944C
:10226000DEBF0FBECDBF7C016091020570910305FA
:102270008091FE049091FF04A7018E010F5F1F4F14
:1022800098010E94FE10882361F08091FE049091D5
:10229000FF04B8010E94E105882319F020E030E036
:1022A0000CC08AED90E00E94B302C7010E94A60212
:1022B0008AE00E94B7012FEF3FEFC901AB960FB63E
:1022C000F894DEBF0FBECDBFCF91DF911F910F916C
:1022D000FF90EF900895EF92FF920F931F93DF937B
:1022E000CF93CDB7DEB7AB970FB6F894DEBF0FBE76
:1022F000CDBF8C017E010894E11CF11C97010E9466
:10230000FE10882319F420E030E005C0C801B701B1
:102310000E94C8109C01C901AB960FB6F894DEBFAD
:102320000FBECDBFCF91DF911F910F91FF90EF9026
:102330000895AF92BF92CF92DF92EF92FF920F93E8
:102340001F93DF93CF93CDB7DEB728970FB6F894DE
:10235000DEBF0FBECDBF8C018091FE049091FF04C3
:10236000009739F0609102057091030561157105C0
:1023700059F48AE191E00E94B3028FEF90E00E944D
:10238000B3022FEF3FEF35C0A8010E946B117C0113
:102390000097B1F480EF90E00E94B302C8010E9460
:1023A000A6028AE00E94B7012EEF3FEF22C0F8019B
:1023B00081918F010E94B7010A151B05C1F709C061
:1023C0006E010894C11CD11CE9E0AE2EB12CAC0EFC
:1023D000BD1EC701B60148E050E00E9484041816F3
:1023E000190614F48601E3CFF7011182108220E070
:1023F00030E0C90128960FB6F894DEBF0FBECDBFFE
:10240000CF91DF911F910F91FF90EF90DF90CF90D0
:10241000BF90AF9008952F923F924F925F926F922C
:102420007F928F929F92AF92BF92CF92DF92EF9264
:10243000FF920F931F93DF93CF9300D00F92CDB7EE
:10244000DEB71C019B01009709F4D2C0411551056C
:1024500009F4CEC0FA0101900020E9F7E41BF50B66
:10246000CF010B966DE070E00E943426862F8F5FBF
:102470008B83D90193964D905C90949741145104AD
:1024800051F0AA24BB246501EE24FF2487016624B1
:10249000772443010BC0F101E688F788008D118D88
:1024A0006288738884889588570168011A82E614C7
:1024B000F7040805190509F06EC04114510409F428
:1024C00097C0E114F1040105110589F1C101B201C0
:1024D0000E94DD02009751F5C101B20141E050E0D8
:1024E0000E9493038C01009709F482C002501040AF
:1024F000B80180E090E00E5F1F4FD10150962D9102
:102500003C91519740E050E00E9415265B016C0120
:10251000F10182899389A489B589A80EB91ECA1EC2
:10252000DB1EC101B8010E949E0965C02C01F2E0CA
:102530004F16510420F4EE24FF2487011DC02EEF16
:102540003FEF420E531EB20180E090E0A2E0B0E007
:102550004A0E5B1EF1012089318940E050E00E9463
:1025600015267B018C01F10182899389A489B589A3
:10257000E80EF91E0A1F1B1FD10150968D919C91E8
:1025800051973C01882499246E0C7F1C801E911E5B
:10259000570168011A82D101ED91FC910190F081FF
:1025A000E02DC801B701AE014F5F5F4F21E030E081
:1025B00009958823E9F08981853E11F0882379F413
:1025C000BA81BF5FBA83EB81BE17A8F480E290E0C6
:1025D000A0E0B0E0E80EF91E0A1F1B1F68CF80E2E2
:1025E00090E0A0E0B0E0E80EF91E0A1F1B1F5CCFD0
:1025F000AA24BB246501B501C6010F900F900F906E
:10260000CF91DF911F910F91FF90EF90DF90CF90CE
:10261000BF90AF909F908F907F906F905F904F9002
:102620003F902F9008953F924F925F926F927F92CA
:102630008F929F92AF92BF92CF92DF92EF92FF92D2
:102640000F931F93DF93CF93CDB7DEB7A0970FB64D
:10265000F894DEBF0FBECDBFFC018B01009709F4DB
:102660001FC16115710509F41BC10190F081E02DB6
:1026700044805580DB019796AD90BD90CD90DC9065
:102680009A97E62E912EFB0101900020E9F73197F1
:10269000FE2EF61A8F2D90E00C966DE070E00E94F1
:1026A0004826762ECE01019660E270E04BE050E0C5
:1026B0000E943123C8016EE270E00E946923FC0190
:1026C0000097E1F09C012F5F3F4F81818823B1F09B
:1026D000D9010D900020E9F71197A21BB30B8A2FA7
:1026E0008095F80EBE01675F7F4F4A2FA43008F037
:1026F00043E0CB01B90150E00E942823CE010196AE
:10270000B8E0BF1588F06E2D792D4F2D50E00E9456
:102710002823F80180818E3231F581818E3209F4CF
:1027200082818823F9F01FC0DC018E2D992D9C0138
:10273000F90188E001900D928150E1F7D80191965E
:102740008C91982F92959F70803A10F4905D01C003
:102750009F598F708A3010F4805D01C08F599F831C
:10276000888701C077248981853E11F485E08983BB
:102770008CE0882E912C8C0E9D1E85E1F401119227
:102780008A95E9F7D80190968C9190978C879196CD
:102790008D919C9192979C8F8B8F93968D919D910B
:1027A0000D90BC91A02D8D8F9E8FAF8FB8A3672DFC
:1027B00070E0B5E0660F771FBA95E1F780E090E032
:1027C0006A0D7B1D8C1D9D1DAE014F5F5F4F20E28A
:1027D00030E0F2010995882309F462C0E980FE0126
:1027E000329694018E2D8695E794EE24E794E82A9C
:1027F0008191E80EE217F307A9F7F72C4E01089430
:10280000811C911CADE03A2EFFE06F2E44C0C40144
:102810006FEF70E040E250E00E943123F39CD00162
:1028200011241D97A00FB11F91E0F401E90FF11DD4
:102830008C918083892F8F5FF401E80FF11D108246
:102840009E5F9B3019F09A3121F402C09EE001C0D6
:102850009CE18C91882321F09F3110F41196E5CFF3
:10286000F982F71419F48F2D806489836C86EE86C3
:102870001D861B8E1C8EC601B501A40120E230E02E
:10288000F201099580E290E0A0E0B0E0A80EB91E48
:10289000CA1EDB1EFA94FF2009F0B9CF81E001C007
:1028A00080E0A0960FB6F894DEBF0FBECDBFCF91EB
:1028B000DF911F910F91FF90EF90DF90CF90BF902D
:1028C000AF909F908F907F906F905F904F903F90D0
:1028D00008957F928F929F92AF92BF92CF92DF9294
:1028E000EF92FF920F931F93CF93DF936C015B01E5
:1028F000EA01009709F49DC06115710509F499C0BA
:10290000FB018081882309F494C04115510581F4AD
:1029100090C0C501682D772D0E944323009751F484
:10292000F60183A194A196A785A710AA17A681C036
:10293000842E7D2EC601BE010E94F809882349F726
:10294000F601E080F180C70160E070E041E050E016
:102950000E9493038C01009709F46BC0C701B80172
:102960000E949E098BE2FE0111928A95E9F780E1AF
:1029700088A302501040B80180E090E00E5F1F4F26
:10298000F7012089318940E050E00E941526F701C7
:102990002289338944895589260F371F481F591FBB
:1029A0002FA338A749A75AA79EE2992E98821AA367
:1029B00009A3C701BE010E9413138823B1F18FA19F
:1029C00098A5A9A5BAA58096A11DB11D8FA398A70A
:1029D000A9A7BAA79982F60183A194A19AA389A372
:1029E000C701BE010E9413138823F9F0882D972D8B
:1029F000B5014FE150E00E945A231AA309A3C70171
:102A0000B601AE010E940B126FA378A789A79AA7FF
:102A1000611571058105910541F0C701BE010E9454
:102A20001313882311F081E005C0C701B8010E948B
:102A30001D0380E0DF91CF911F910F91FF90EF90E8
:102A4000DF90CF90BF90AF909F908F907F90089530
:102A5000AF92BF92CF92DF92EF92FF920F931F93AC
:102A6000CF93DF938C017B01EA01009709F448C002
:102A70006115710509F444C0FB018081882309F4C4
:102A80003FC041155105E1F1B42EAD2EC801BE0184
:102A90000E94F809882379F0C7016B2D7A2D0E94D6
:102AA0004323009799F7F80183A194A196A785A7DE
:102AB00010AA17A625C0F801C080D1808BE2FE01C4
:102AC00011928A95E9F78B2D9A2DB7014FE150E0CD
:102AD0000E945A23C601B801AE010E940B126FA3D7
:102AE00078A789A79AA7611571058105910541F01D
:102AF000C601BE010E941313882319F081E001C0B2
:102B000080E0DF91CF911F910F91FF90EF90DF90C8
:102B1000CF90BF90AF9008950F931F93DF93CF9303
:102B2000CDB7DEB7AB970FB6F894DEBF0FBECDBF03
:102B30008C018091020590910305B801AE014F5FB1
:102B40005F4F0E942815882319F020E030E00CC068
:102B500084E292E00E94B302C8010E94A6028AE0C9
:102B60000E94B7012FEF3FEFC901AB960FB6F89463
:102B7000DEBF0FBECDBFCF91DF911F910F910895A2
:102B80004F925F926F927F928F929F92AF92BF927D
:102B9000CF92DF92EF92FF920F931F93DF93CF9329
:102BA000CDB7DEB72A970FB6F894DEBF0FBECDBF04
:102BB0002C015A016B01009709F4E5C0DC019396E2
:102BC0000D911C919497ED91FC912089318901150B
:102BD000110599F0AB82BC82CD82DE823901882456
:102BE000992422273327A9012619370948095909A9
:102BF0002F83388749875A8720C0411551056105C1
:102C0000710509F4A9C0E6CFD2018D919C91B8015C
:102C10000E94DD020097D9F0EB80FC800D811E81BF
:102C20002F81388549855A85E20EF31E041F151F32
:102C3000EB82FC820D831E838C018B819C81AD8194
:102C4000BE81681679068A069B06F0F2B4C0780148
:102C50006B817C818D819E81660D771D881D991DFC
:102C60006150704080409040A40193010E945B2617
:102C7000D2018D919C91B801A9010E949303009704
:102C800009F481C0012B21F4F20194A383A37C01F8
:102C9000D2019596AD92BD92CD92DC929897A114F7
:102CA000B104C104D10421F494961C921E9293970E
:102CB000F20181919191BF010E941313882309F4BD
:102CC00062C0A114B104C104D10429F4F2018081CD
:102CD0009181B7013FC00B811C812D813E8160161F
:102CE000710682069306C0F1D2010D911C91011567
:102CF000110591F1B2E0EB16F10470F1C801B701D2
:102D00000E94DD024C018FEF9FEF9A838983D801E7
:102D1000ED91FC911197EE0CFF1CB70180E090E063
:102D200016962D913D914D915C911997620F731FED
:102D3000841F951F0480F581E02DAE014F5F5F4F2A
:102D400022E030E00995882339F08114910421F0C4
:102D5000C801B4010E941D03F20185A596A5A7A58F
:102D6000B0A9A816B906CA06DB0658F4D2019D968A
:102D7000AD92BD92CD92DC92D097D2961C921E92CB
:102D8000D19781E001C080E02A960FB6F894DEBFAB
:102D90000FBECDBFCF91DF911F910F91FF90EF90AC
:102DA000DF90CF90BF90AF909F908F907F906F906B
:102DB0005F904F90089578010115110509F448CFEF
:102DC00067CFCF92DF92EF92FF920F931F93CF9333
:102DD000DF93EC016B01009709F445C061157105A3
:102DE00009F441C08DA59EA5AFA5B8A9413059F001
:102DF000413018F04230B9F50CC0FB01E080F180A1
:102E00000281138113C0FB01E080F18002811381F4
:102E100009C0FB01E080F180028113818DA19EA198
:102E2000AFA1B8A5E80EF91E0A1F1B1F8DA19EA118
:102E3000AFA1B8A58E159F05A007B10738F4CE0144
:102E4000B801A7010E94C015882369F0EDA6FEA66F
:102E50000FA718AB1AAA19AAF601E082F182028321
:102E6000138381E001C080E0DF91CF911F910F912A
:102E7000FF90EF90DF90CF9008952F923F924F9266
:102E80005F926F927F928F929F92AF92BF92CF92FA
:102E9000DF92EF92FF920F931F93DF93CF9300D0B7
:102EA00000D000D0CDB7DEB79E838D837A8369834F
:102EB0005C834B83009709F441C1672B09F43EC141
:102EC000452B09F43BC1DC019D968D909D90AD9002
:102ED000BC90D097FC0185A196A1A7A1B0A58815AB
:102EE0009905AA05BB0508F429C10190F081E02DE0
:102EF00020883188AD81BE81D1960D911C91D297E9
:102F00000115110509F055C093960D911C919497E8
:102F100001151105A9F481149104A104B10409F06B
:102F20000DC1CF0160E070E041E050E00E949303EA
:102F30008C01ED81FE8194A383A3009709F4FEC068
:102F4000AD81BE819D96CD90DD90ED90FC90D097A7
:102F5000C114D104E104F10421F52BC0C418D50833
:102F6000E608F708ED81FE8180819181B8010E9419
:102F7000DD02009711F08C0117C0C114D104E104E7
:102F8000F10409F0DBC0AD81BE818D919C91B80147
:102F900041E050E00E949303009709F4CFC08C01F8
:102FA00003C0210166247724C414D504E604F70481
:102FB000A8F6089421083108822093200894211C47
:102FC000311CAB80BC80ED81FE81C080D180C114FA
:102FD000D104F9F002301105E0F002501040B801C0
:102FE00080E090E00E5F1F4FD60150962D913C91EE
:102FF000519740E050E00E9415269B01AC01F6017C
:1030000082899389A489B589280F391F4A1F5B1FBC
:1030100004C020E030E040E050E07101E818F90819
:10302000AE14BF0408F47501D601ED91FC91C40102
:10303000A0E0B0E0280F391F4A1F5B1F0480F58114
:10304000E02DCA01B90149815A8197010995882368
:1030500009F448C0AE18BF08C701A0E0B0E0ED8198
:10306000FE8125A536A547A550A9280F391F4A1F5F
:103070005B1F25A736A747A750ABC701880D991D31
:103080008215930508F180819181B8010E94DD02CB
:10309000009711F08C0116C0A114B10459F0ED8114
:1030A000FE8180819181B80141E050E00E9493034C
:1030B000009739F4AD81BE81D2961C921E92D197B1
:1030C00011C08C0188249924ED81FE8112AB01ABE3
:1030D000A114B10439F089819A818E0D9F1D9A83C4
:1030E000898371CFED81FE8185A596A5A7A5B0A99D
:1030F000E5A0F6A007A110A5E816F9060A071B0728
:10310000C0F485A396A3A7A3B0A781919191BF0115
:103110000E941313882369F4AD81BE819D96AD9002
:10312000BC909E97AE18BF08FD01E5A6F6A607A7BE
:1031300010AB4B815C814A195B0902C04FEF5FEF16
:10314000CA0126960FB6F894DEBF0FBECDBFCF9151
:10315000DF911F910F91FF90EF90DF90CF90BF9084
:10316000AF909F908F907F906F905F904F903F9027
:103170002F900895CF92DF92EF92FF920F931F93BB
:10318000CF93DF938C016B017A018091FE049091C3
:10319000FF04009739F060910205709103056115F5
:1031A000710559F48EE891E00E94B30284E791E042
:1031B0000E94B3022FEF3FEF52C0A8010E946B1193
:1031C000EC01009769F485E691E00E94B302C80122
:1031D0000E94A6028AE00E94B7012EEF3FEF3FC097
:1031E00066E272E040E00E94E116882361F483E524
:1031F00091E00E94B3028AE00E94B701198218820E
:103200002DEF3FEF2CC0CE01B601A7010E943D1764
:103210008E159F0539F08CE391E00E94B3022CEFEC
:103220003FEF1DC09C01442737FD4095542F8091EE
:10323000260290912702A0912802B0912902820FC4
:10324000931FA41FB51F8093260290932702A0937B
:103250002802B09329021982188220E030E0C901C7
:10326000DF91CF911F910F91FF90EF90DF90CF9062
:1032700008956F927F928F929F92AF92BF92CF925A
:10328000DF92EF92FF920F931F93CF93DF934C0146
:10329000EB017A01009709F467C06115710509F423
:1032A00063C08881882309F45FC04115510509F482
:1032B0005BC08F3209F421968BE2F70111928A9557
:1032C000E9F780E1F70180A3370101C0E5018881BA
:1032D000882309F44BC0C401B7010E948B106C0114
:1032E000009709F441C0CE016FE270E00E943823DC
:1032F000009739F0482F4C1B5C010894A11CB11CAD
:103300002AC0FE0101900020E9F731974E2F4C1B97
:103310005E01A40EB11C1FC0F30101900020E9F76B
:103320003197E619F709E017F107B9F4CE01B301B7
:10333000A8010E944C23009781F4F60111821082AB
:103340000C0F1D1FF8018081882381F0F70180A1F7
:1033500084FDBCCF09C0042F10E0C601B7010E9454
:10336000F8098823C9F612C080E001C081E0DF912E
:10337000CF911F910F91FF90EF90DF90CF90BF9072
:10338000AF909F908F907F906F900895F60111827B
:1033900010829DCFEF92FF920F931F93DF93CF93F5
:1033A000CDB7DEB7C454D0400FB6F894DEBF0FBE21
:1033B000CDBF83B7817F83BF4AE1E42EF12CEC0EB1
:1033C000FD1E0E94970F882319F48EE892E048C0F2
:1033D00089E69EE067E27FE049E75DE020E330E1D7
:1033E00000E00E94A5079093010580930005892BBA
:1033F000A1F489E69EE067E27FE049E75DE020E333
:1034000030E10FEF0E94A50790930105809300051E
:10341000892B19F484E792E023C0809100059091F4
:1034200001050E94D60B9093FF048093FE04009741
:1034300019F489E592E014C060E071E0A7010E94F0
:1034400039198091FE049091FF04B7010E948B10FE
:103450009093030580930205892B29F48AE392E077
:103460000E94B302AECF0091FE041091FF0401153B
:10347000110509F4A1C0CE0101960E94810888239C
:1034800009F49AC08CE093E00E94B30289810E9403
:10349000C6018AE00E94B70183E093E00E94B30274
:1034A000CE0102960E94A6028AE00E94B7018AEF2E
:1034B00092E00E94B302CE0105960E94A6028AE025
:1034C0000E94B70181EF92E00E94B3028B850E94B7
:1034D000C6018AE00E94B70186EE92E00E94B30224
:1034E0006C857D858E859F850E94EC018AE00E9417
:1034F000B7018DED92E00E94B302898990E00E94AD
:10350000FF018FE20E94B701888990E00E94FF01CD
:103510008AE00E94B70184ED92E00E94B3026A89BA
:103520007B898C899D8934E19695879577956795F8
:103530003A95D1F70E943D0280ED92E00E94B302DD
:1035400087EC92E00E94B3028E8990E00E94FF0116
:103550008AE00E94B7018EEB92E00E94B302888D50
:1035600090E00E94FF018FE20E94B7018F8990E0F6
:103570000E94FF018AE00E94B70185EB92E00E9461
:10358000B302898D90E00E94FF018AE00E94B7019A
:103590008CEA92E00E94B302C8010E9482060E9457
:1035A0003D028FE20E94B701C8010E9463060E949B
:1035B0003D028AE00E94B70180E090E0CC5BDF4FE3
:1035C0000FB6F894DEBF0FBECDBFCF91DF911F9134
:1035D0000F91FF90EF90089580917A00876080931B
:1035E0007A0080917A00886080937A0080917B00D5
:1035F000887F80937B0080917C00806480937C0036
:1036000080917A00806280937A0080917A0080684D
:1036100080937A0080917A00806480937A0010927F
:10362000C50087E68093C40086E08093C20088E9E5
:103630008093C10087EC90E00E94B3020E94CA19F7
:1036400080EB90E00E94B30282E091E00E9425119D
:1036500088E990E00E94B30282E091E00E948C151C
:10366000892BD1F786E890E00E94B30278948BE62C
:1036700090E00E94B302FFCFCF92DF92EF92FF92D1
:103680000F931F93DF93CF93CDB7DEB728970FB675
:10369000F894DEBF0FBECDBF8C016B018091FE049C
:1036A0009091FF04009739F0609102057091030535
:1036B0006115710559F482E092E00E94B30288EE30
:1036C00091E00E94B3022FEF3FEF72C0A8010E9469
:1036D0006B117C01009769F489ED91E00E94B302BF
:1036E000C8010E94A6028AE00E94B7012EEF3FEFB8
:1036F0005FC066E272E040E00E94E116882369F450
:1037000087EC91E00E94B3028AE00E94B701D701E2
:103710001D921C922DEF3FEF4BC000D000D000D087
:10372000EDB7FEB731968E010F5F1F4FADB7BEB735
:1037300012961C930E9311978AE091E093838283F3
:10374000D582C4820E947423D82EEDB7FEB7369678
:103750000FB6F894FEBF0FBEEDBFC701B8014D2DE7
:1037600050E00E943D172D2D30E08217930739F06D
:1037700080EB91E00E94B3022CEF3FEF19C08091E3
:10378000260290912702A0912802B09129028D0D66
:10379000911DA11DB11D8093260290932702A09335
:1037A0002802B0932902D7011D921C9220E030E03C
:1037B000C90128960FB6F894DEBF0FBECDBFCF91DA
:1037C000DF911F910F91FF90EF90DF90CF900895C0
:1037D0001F920F920FB60F921124CF92DF92EF92A9
:1037E000FF920F931F932F933F934F935F936F938A
:1037F0007F938F939F93AF93BF93EF93FF9320910A
:10380000780030E040917900942F80E0822B932B58
:1038100080509240889FB001899F700D989F700DD5
:103820001124882777FD8095982F0E948120209170
:103830002A0230912B0240912C0250912D020E94BD
:103840007E1E9B01AC0160932A0270932B02809331
:103850002C0290932D0280913202909133020196B6
:103860009093330280933202803C910509F086C028
:1038700000913402109135020F5F1F4F10933502F3
:1038800000933402CA01B90120E030E040E453E47F
:103890000E94A51F0E94B82620E030E048ED51E4C8
:1038A0000E94AB1E20E030E04CE553E40E94AB1ECA
:1038B00020E030E04AE754E40E94A51F20912E0248
:1038C00030912F0240913002509131020E947E1EB1
:1038D00060932E0270932F028093300290933102F6
:1038E0000F2EF0E0CF2EF0E0DF2EF0E0EF2EF0E034
:1038F000FF2EF02DC0922A02D0922B02E0922C02D1
:10390000F0922D021092330210923202023311050E
:10391000A9F520E030E048E452E40E94A51F60933E
:103920002E0270932F0280933002909331021092F6
:103930003502109234020E94D51CDC01CB010E949A
:10394000FF0188E690E00E94B30260912E02709120
:103950002F0280913002909131020E94D51C9B0170
:10396000AC0182E091E0B9010E943C1BC0922E02A2
:10397000D0922F02E0923002F0923102FF91EF914B
:10398000BF91AF919F918F917F916F915F914F9177
:103990003F912F911F910F91FF90EF90DF90CF906B
:1039A0000F900FBE0F901F901895EF92FF920F93FC
:1039B0001F937B018C0120E030E040E05FE40E9437
:1039C000512088238CF0C801B70120E030E040E0AE
:1039D0005FE40E944D1E0E94DF209B01AC0120503D
:1039E00030404040504806C0C801B7010E94DF2067
:1039F0009B01AC01B901CA011F910F91FF90EF909B
:103A00000895A0E0B0E0E7E0FDE10C947D26DC0144
:103A10002B01FA019C91923008F439C1EB018881A5
:103A2000823008F433C1943069F4843009F02FC136
:103A300011969C9111978981981709F428C1ADE1DD
:103A4000B1E025C1843009F421C18230A9F492305B
:103A500009F01DC19A01AD0188E0EA010990AE01AB
:103A6000E90109929E018150C1F7E2018981119615
:103A70009C918923818308C1923009F407C1129671
:103A80002D903C901397EB018A819B811496AD9009
:103A9000BD90CD90DC901797EC80FD800E811F814A
:103AA0009101281B390BB90137FF04C0662777271E
:103AB000621B730B603271050CF061C012161306A5
:103AC0006CF537014801062E04C0969487947794CC
:103AD00067940A94D2F721E030E040E050E004C05F
:103AE000220F331F441F551F6A95D2F721503040D3
:103AF000404050402E213F214023512321153105C4
:103B00004105510521F021E030E040E050E079012D
:103B10008A01E628F728082919293CC0232BD1F16E
:103B2000260E371E35014601062E04C09694879452
:103B3000779467940A94D2F721E030E040E050E0B7
:103B400004C0220F331F441F551F6A95D2F721501E
:103B50003040404050402A213B214C215D2121151D
:103B600031054105510521F021E030E040E050E011
:103B700059016A01A628B728C828D9280BC0821580
:103B800093052CF01C01AA24BB24650103C0EE247C
:103B9000FF24870111969C91D20111968C91981760
:103BA00009F445C0992339F0A80197012A193B0966
:103BB0004C095D0906C0A60195012E193F09400B6D
:103BC000510B57FD08C01182338222822483358332
:103BD000468357831DC081E08183338222828827F8
:103BE0009927DC01821B930BA40BB50B848395836F
:103BF000A683B7830DC0220F331F441F551F248394
:103C0000358346835783828193810197938382838F
:103C10002481358146815781DA01C9010197A109C3
:103C2000B1098F5F9F4FAF4FBF4328F30BC0918304
:103C300033822282EA0CFB1C0C1D1D1DE482F582DE
:103C40000683178383E080832481358146815781F1
:103C500057FF1AC0C901AA2797FDA095BA2F8170F6
:103C60009070A070B0705695479537952795822B28
:103C7000932BA42BB52B84839583A683B783828152
:103C80009381019693838283DF0101C0D201CD012C
:103C9000CDB7DEB7E2E10C949926A0E2B0E0E3E50F
:103CA000FEE10C94892669837A838B839C832D8320
:103CB0003E834F835887E9E0EE2EF12CEC0EFD1E7B
:103CC000CE010196B7010E9457228E010F5E1F4F51
:103CD000CE010596B8010E9457228A8991E0892772
:103CE0008A8BC701B801AE01475E5F4F0E94011D7C
:103CF0000E948221A096E6E00C94A526A0E2B0E006
:103D0000E4E8FEE10C94892669837A838B839C83A3
:103D10002D833E834F835887F9E0EF2EF12CEC0E74
:103D2000FD1ECE010196B7010E9457228E010F5E43
:103D30001F4FCE010596B8010E945722C701B80156
:103D4000AE01475E5F4F0E94011D0E948221A09636
:103D5000E6E00C94A526A0E2B0E0E1EBFEE10C94D5
:103D60007D2669837A838B839C832D833E834F8357
:103D70005887CE010196BE01675F7F4F0E94572290
:103D8000CE010596BE016F5E7F4F0E945722998536
:103D9000923088F089898230C8F0943019F48230EA
:103DA00051F404C0843029F4923081F48DE191E023
:103DB000C6C0923049F420E09A858A89981321E0A0
:103DC0002A87CE010996BBC0823049F420E09A854B
:103DD0008A89981321E02A8BCE014196B0C02D84A8
:103DE0003E844F8458886D887E888F88988CEE2416
:103DF000FF248701AA24BB24650140E050E060E075
:103E000070E0E0E0F0E0C10181709070892BE9F092
:103E1000E60CF71C081D191D9A01AB012A0D3B1D6C
:103E20004C1D5D1D80E090E0A0E0B0E0E614F704DA
:103E30000805190520F481E090E0A0E0B0E0BA01A7
:103E4000A901480F591F6A1F7B1FAA0CBB1CCC1C61
:103E5000DD1C97FE08C081E090E0A0E0B0E0A82A59
:103E6000B92ACA2ADB2A3196E032F10549F0660CFC
:103E7000771C881C991C5694479437942794C3CF79
:103E8000FA85EA892B893C898B859C85280F391F07
:103E90002E5F3F4F17C0CA0181709070892B61F06F
:103EA00016950795F794E79480E090E0A0E0B0E8DD
:103EB000E82AF92A0A2B1B2B769567955795479583
:103EC0002F5F3F4F77FDE7CF0CC0440F551F661F94
:103ED000771F17FD4160EE0CFF1C001F111F2150C2
:103EE0003040403090E0590790E0690790E479074E
:103EF00060F32B8F3C8FDB01CA018F779070A0702D
:103F0000B07080349105A105B10561F447FD0AC088
:103F1000E114F1040105110529F0405C5F4F6F4F7A
:103F20007F4F40781A8EFE1711F081E08A8F4D8FF7
:103F30005E8F6F8F78A383E0898FCE0149960E94B0
:103F40008221A096E2E10C949926A8E1B0E0EBEA88
:103F5000FFE10C94852669837A838B839C832D8370
:103F60003E834F835887B9E0EB2EF12CEC0EFD1EFB
:103F7000CE010196B7010E9457228E010F5E1F4F9E
:103F8000CE010596B8010E9457222985223008F4F7
:103F90007EC03989323010F4B8017CC08A859A8994
:103FA00089278A87243011F0223031F4231709F051
:103FB0006EC06DE171E06EC0343039F41D861E862E
:103FC0001F86188A1C861B8604C0323021F484E0C8
:103FD0008987B7015FC02B853C858B899C89281B0D
:103FE000390B3C872B87ED84FE840F851889AD88BB
:103FF000BE88CF88D88CEA14FB040C051D0540F45C
:10400000EE0CFF1C001F111F215030403C872B87F6
:1040100020E030E040E050E080E090E0A0E0B0E45C
:1040200060E070E0EA14FB040C051D0540F0282B4D
:10403000392B4A2B5B2BEA18FB080C091D09B69596
:10404000A79597958795EE0CFF1C001F111F6F5FBA
:104050007F4F6F31710531F7DA01C9018F779070A9
:10406000A070B07080349105A105B10561F427FD01
:104070000AC0E114F1040105110529F0205C3F4F4D
:104080004F4F5F4F20782D873E874F87588BBE015B
:10409000675F7F4FCB010E9482216896EAE00C9413
:1040A000A126A8E1B0E0E7E5F0E20C948926698357
:1040B0007A838B839C832D833E834F83588789E04B
:1040C000E82EF12CEC0EFD1ECE010196B7010E94E8
:1040D00057228E010F5E1F4FCE010596B8010E9438
:1040E00057228985823040F08989823028F0C701C3
:1040F000B8010E94CF2201C08FEF6896E6E00C94D1
:10410000A526A8E0B0E0E7E8F0E20C9486269B0143
:10411000AC0183E08983DA01C9018827B7FD839563
:104120009927AA27BB27B82E21153105410551052E
:1041300019F482E089833AC08823A9F0203080E016
:10414000380780E0480780E8580729F460E070E00D
:1041500080E09FEC30C0EE24FF248701E21AF30ACE
:10416000040B150B02C079018A018EE1C82ED12CF7
:10417000DC82CB82ED82FE820F831887C801B701F3
:104180000E94332101971816190684F4082E04C0E2
:10419000EE0CFF1C001F111F0A94D2F7ED82FE8265
:1041A0000F831887C81AD90ADC82CB82BA82CE0163
:1041B00001960E9482212896E9E00C94A226ACE0A8
:1041C000B0E0E5EEF0E20C948D2669837A838B8370
:1041D0009C83CE010196BE016B5F7F4F0E945722E8
:1041E0008D81823061F1823050F1843021F48E81F2
:1041F000882351F12EC02F81388537FD20C06E8174
:104200002F3131051CF06623F9F023C08EE190E0D8
:10421000821B930B29853A854B855C8504C0569596
:104220004795379527958A95D2F76623B1F0509533
:104230004095309521953F4F4F4F5F4F0EC020E086
:1042400030E040E050E009C02FEF3FEF4FEF5FE775
:1042500004C020E030E040E050E8B901CA012C96EB
:10426000E2E00C94A926EF92FF920F931F937B013B
:104270008C0180E0E81680E0F80681E0080780E025
:10428000180788F48FEFE816F1040105110531F0E5
:1042900028F088E090E0A0E0B0E017C080E090E077
:1042A000A0E0B0E012C080E0E81680E0F80680E010
:1042B000080781E0180728F088E190E0A0E0B0E06E
:1042C00004C080E190E0A0E0B0E020E230E040E017
:1042D00050E0281B390B4A0B5B0B04C01695079561
:1042E000F794E7948A95D2F7F701EB5DFE4F808152
:1042F000281B310941095109C9011F910F91FF90F4
:10430000EF900895DF92EF92FF920F931F93FC01BD
:10431000E480F58006811781D1808081823048F465
:1043200080E090E0A0E1B0E0E82AF92A0A2B1B2BFC
:10433000A5C0843009F49FC0823021F4EE24FF240C
:10434000870105C0E114F1040105110519F4E0E04D
:10435000F0E096C0628173819FEF623879070CF0BC
:104360005BC022E83FEF261B370B2A3131052CF0CA
:1043700020E030E040E050E02AC0B801A701022E62
:1043800004C076956795579547950A94D2F781E0D2
:1043900090E0A0E0B0E004C0880F991FAA1FBB1FE7
:1043A0002A95D2F70197A109B1098E219F21A02357
:1043B000B1230097A105B10521F081E090E0A0E0D4
:1043C000B0E09A01AB01282B392B4A2B5B2BDA0189
:1043D000C9018F779070A070B07080349105A105ED
:1043E000B10539F427FF09C0205C3F4F4F4F5F4FA5
:1043F00004C0215C3F4F4F4F5F4FE0E0F0E02030C2
:10440000A0E03A07A0E04A07A0E45A0710F0E1E074
:10441000F0E079018A0127C06038710564F5FB017D
:10442000E158FF4FD801C7018F779070A070B0702E
:1044300080349105A105B10539F4E7FE0DC080E493
:1044400090E0A0E0B0E004C08FE390E0A0E0B0E036
:10445000E80EF91E0A1F1B1F17FF05C016950795CA
:10446000F794E794319687E016950795F794E794CB
:104470008A95D1F705C0EE24FF248701EFEFF0E025
:104480006E2F679566276795902F9F77D794DD24C9
:10449000D7948E2F8695492F462B582F5D29B7012B
:1044A000CA011F910F91FF90EF90DF900895FC01DA
:1044B000DB01408151812281622F6F7770E0221FE2
:1044C0002227221F9381892F880F822B282F30E0EB
:1044D000991F9927991F11969C93119721153105C2
:1044E000A9F5411551056105710511F482E037C048
:1044F00082E89FEF13969C938E9312979A01AB01DB
:1045000067E0220F331F441F551F6A95D1F783E0E0
:104510008C930DC0220F331F441F551F12968D918F
:104520009C911397019713969C938E93129720302A
:1045300080E0380780E0480780E4580758F3149675
:104540002D933D934D935C93179708952F3F31051D
:1045500079F4411551056105710519F484E08C93D6
:10456000089564FF03C081E08C9312C01C9210C0B8
:104570002F57304013963C932E93129783E08C93E1
:1045800087E0440F551F661F771F8A95D1F7706427
:1045900014964D935D936D937C93179708951F9395
:1045A000DC01FB019C91923008F447C0808182308D
:1045B00008F443C0943051F411961C91843099F55D
:1045C0008181682F70E0611B71093FC0843021F048
:1045D000923031F48230B9F18181882389F12DC084
:1045E00011961C9111978230F1F081811817D9F43E
:1045F00012962D913C911397828193818217930794
:1046000094F028173907BCF014968D919D910D9068
:10461000BC91A02D24813581468157812817390707
:104620004A075B0718F4112341F00AC08217930769
:10463000A407B50740F4112319F061E070E005C04C
:104640006FEF7FEF02C060E070E0CB011F91089533
:10465000FB01DC0102C001900D9241505040D8F79F
:104660000895DC0101C06D9341505040E0F708957A
:10467000FC018191861721F08823D9F799270895A5
:104680003197CF010895FB01DC018D9101908019D4
:104690000110D9F3990B0895FB01DC014150504002
:1046A00030F08D910190801919F40020B9F7881B22
:1046B000990B0895FB01DC014150504048F00190F6
:1046C0000D920020C9F701C01D9241505040E0F703
:1046D0000895FC0181E090E00190061609F4CF01F5
:1046E0000020D1F701970895AEE0B0E0EAE7F3E2E9
:1046F0000C948B260D891E8986E08C831A8309838E
:104700008FEF9FE79E838D839E01275E3F4FCE01F3
:1047100001966F89788DA9010E9498232F81388591
:10472000020F131FF80110822E96E4E00C94A726C6
:10473000ABE0B0E0EEE9F3E20C947D263C012B0106
:104740005A01FC0117821682838181FD03C06FEF3D
:104750007FEFC6C19AE0892E1E010894211C311CEE
:10476000F3012381F20123FD859123FF81912F0124
:10477000882309F4B2C1853239F423FD859123FFE2
:1047800081912F01853229F490E0B3010E948B259D
:10479000E7CF982FFF24EE249924FFE1FF15D0F0F6
:1047A0009B3269F09C3228F4903259F0933291F4A4
:1047B0000EC09D3249F0903369F441E024C052E0CC
:1047C000F52A84E0F82A28C098E0F92A25C0E0E11B
:1047D000FE2A22C0F7FC29C0892F80538A3070F44A
:1047E000F6FE05C0989C902C1124980E15C0E89CEC
:1047F000E02C1124E80EF0E2FF2A0EC09E3229F4CC
:10480000F6FC6BC140E4F42A07C09C3619F450E86A
:10481000F52A02C0983649F4F20123FD959123FF51
:1048200091912F01992309F0B8CF892F85548330B6
:1048300018F08052833038F444E050E0A40EB51EE6
:104840005FE359830FC0933631F0933779F0933596
:1048500009F056C020C0F5018081898342E050E014
:10486000A40EB51E610101E010E012C0F501C08088
:10487000D180F6FC03C06FEF7FEF02C0692D70E0BE
:1048800042E050E0A40EB51EC6010E9480258C01B6
:104890005FE7F52214C0F501C080D180F6FC03C0AB
:1048A0006FEF7FEF02C0692D70E042E050E0A40E90
:1048B000B51EC6010E9475258C0150E8F52AF3FE4D
:1048C00007C01AC080E290E0B3010E948B25EA94F1
:1048D0008E2D90E008171907A8F30EC0F601F7FC1B
:1048E0008591F7FE81916F0190E0B3010E948B25C5
:1048F000E110EA94015010400115110579F7EAC062
:10490000943611F0993669F5F7FE08C0F50120815B
:1049100031814281538184E090E00AC0F5018081B9
:1049200091819C01442737FD4095542F82E090E00F
:10493000A80EB91E9FE6F92257FF09C05095409571
:10494000309521953F4F4F4F5F4FE0E8FE2ACA0157
:10495000B901A1012AE030E00E94B725D82ED21873
:1049600040C0953729F41F2D1F7E2AE030E01DC07E
:104970001F2D197F9F3661F0903720F4983509F08C
:10498000ACC00FC0903739F0983709F0A6C004C00A
:1049900028E030E00AC0106114FD146020E130E02E
:1049A00004C014FD166020E132E017FF08C0F501D5
:1049B000608171818281938144E050E008C0F501FB
:1049C00080819181BC0180E090E042E050E0A40E43
:1049D000B51EA1010E94B725D82ED2188FE7F82E58
:1049E000F122F6FE0BC05EEFF522D91438F4F4FE86
:1049F00007C0F2FC05C08FEEF82202C01D2D01C0D9
:104A0000192DF4FE0DC0FE01ED0DF11D80818033E6
:104A100019F499EEF92208C01F5FF2FE05C003C029
:104A20008F2D867809F01F5F0F2DF3FC14C0F0FE68
:104A30000FC01E1510F09D2C0BC09D2C9E0C911AC2
:104A40001E2D06C080E290E0B3010E948B251F5FFF
:104A50001E15C0F304C01E1510F4E11A01C0EE24A7
:104A600004FF0FC080E390E0B3010E948B2502FF9A
:104A70001DC001FD03C088E790E00EC088E590E00E
:104A80000BC0802F867891F001FF02C08BE201C03D
:104A900080E2F7FC8DE290E0B3010E948B2506C016
:104AA00080E390E0B3010E948B259A94D914C0F35F
:104AB000DA94F101ED0DF11D808190E0B3010E94C7
:104AC0008B25DD20A9F706C080E290E0B3010E94AB
:104AD0008B25EA94EE20C1F743CEF30166817781FE
:104AE000CB012B96E2E10C949926FC0105906150D4
:104AF00070400110D8F7809590958E0F9F1F0895F4
:104B0000FC016150704001900110D8F7809590959C
:104B10008E0F9F1F08950F931F93CF93DF938C01E8
:104B2000EB018B8181FF1BC082FF0DC02E813F8175
:104B30008C819D812817390764F4E881F9810193FC
:104B4000F983E88306C0E885F985802F0995892BCC
:104B500031F48E819F8101969F838E8302C00FEF77
:104B60001FEFC801DF91CF911F910F910895FA01B6
:104B7000AA27283051F1203181F1E8946F936E7F9C
:104B80006E5F7F4F8F4F9F4FAF4FB1E03ED0B4E08D
:104B90003CD0670F781F891F9A1FA11D680F791FCE
:104BA0008A1F911DA11D6A0F711D811D911DA11DDF
:104BB00020D009F468943F912AE0269F11243019EF
:104BC000305D3193DEF6CF010895462F4770405D8A
:104BD0004193B3E00FD0C9F7F6CF462F4F70405D39
:104BE0004A3318F0495D31FD4052419302D0A9F794
:104BF000EACFB4E0A6959795879577956795BA958E
:104C0000C9F700976105710508959B01AC010A2E53
:104C100006945795479537952795BA95C9F7620F2A
:104C2000731F841F951FA01D0895629FD001739F5D
:104C3000F001829FE00DF11D649FE00DF11D929F38
:104C4000F00D839FF00D749FF00D659FF00D992777
:104C5000729FB00DE11DF91F639FB00DE11DF91F9B
:104C6000BD01CF0111240895AA1BBB1B51E107C050
:104C7000AA1FBB1FA617B70710F0A61BB70B881FEC
:104C8000991F5A95A9F780959095BC01CD0108957B
:104C900097FB092E07260AD077FD04D0E5DF06D062
:104CA00000201AF4709561957F4F0895F6F790955E
:104CB00081959F4F0895A1E21A2EAA1BBB1BFD01EF
:104CC0000DC0AA1FBB1FEE1FFF1FA217B307E407EB
:104CD000F50720F0A21BB30BE40BF50B661F771F43
:104CE000881F991F1A9469F7609570958095909523
:104CF0009B01AC01BD01CF0108952F923F924F92CD
:104D00005F926F927F928F929F92AF92BF92CF925B
:104D1000DF92EF92FF920F931F93CF93DF93CDB764
:104D2000DEB7CA1BDB0B0FB6F894DEBF0FBECDBFDC
:104D300009942A88398848885F846E847D848C84AD
:104D40009B84AA84B984C884DF80EE80FD800C81B6
:104D50001B81AA81B981CE0FD11D0FB6F894DEBF99
:104D60000FBECDBFED01089511F40EF44DC03EC04D
:104D70005DD0D0F39923D9F3CEF39F57550B87FF1E
:104D800046D00024A0E640EA9001805856959795B9
:104D900028F4805C660F771F881F20F026173707DE
:104DA000480730F4621B730B840B202931294A2BEE
:104DB000A69517940794202531254A2758F7660FA2
:104DC000771F881F20F026173707480730F4620B3B
:104DD000730B840B200D311D411DA09581F7B90186
:104DE000842F9158880F9695879508959F3F31F0AD
:104DF000915020F4879577956795B795880F911D09
:104E00009695879597F908959FEF80EC08959150B6
:104E10005040660F771F881FD2F7089557FD9058AE
:104E2000440F551F59F05F3F71F04795880F97FB6E
:104E3000991F61F09F3F79F0879508951216130628
:104E40001406551FF2CF4695F1DF08C01616170657
:104E50001806991FF1CF869571056105089408958C
:044E6000F894FFCFF4
:104E64002F006C6F672E7478740025303364200033
:104E740001030507090E10121416181C1E00000069
:104E84000000000000000102020303030304040401
:104E940004040404040505050505050505050505C3
:104EA40005050505050606060606060606060606A3
:104EB400060606060606060606060606060606068E
:104EC4000606060606070707070707070707070773
:104ED400070707070707070707070707070707075E
:104EE400070707070707070707070707070707074E
:104EF400070707070707070707070707070707073E
:104F04000707070707080808080808080808080822
:104F1400080808080808080808080808080808080D
:104F240008080808080808080808080808080808FD
:104F340008080808080808080808080808080808ED
:104F440008080808080808080808080808080808DD
:104F540008080808080808080808080808080808CD
:104F640008080808080808080808080808080808BD
:104F740008080808080808080808080808080808AD
:064F8400080808080800FF
:00000001FF
